{
  "contractName": "Bank",
  "abi": [
    {
      "constant": true,
      "inputs": [
        {
          "internalType": "uint256",
          "name": "",
          "type": "uint256"
        }
      ],
      "name": "accounts",
      "outputs": [
        {
          "internalType": "string",
          "name": "password",
          "type": "string"
        },
        {
          "internalType": "uint256",
          "name": "account_balance",
          "type": "uint256"
        },
        {
          "internalType": "uint256",
          "name": "created",
          "type": "uint256"
        },
        {
          "internalType": "uint256",
          "name": "request_count",
          "type": "uint256"
        },
        {
          "internalType": "uint256",
          "name": "transaction_count",
          "type": "uint256"
        }
      ],
      "payable": false,
      "stateMutability": "view",
      "type": "function"
    },
    {
      "constant": true,
      "inputs": [
        {
          "internalType": "uint256",
          "name": "account",
          "type": "uint256"
        },
        {
          "internalType": "string",
          "name": "password",
          "type": "string"
        }
      ],
      "name": "loginAuthenticate",
      "outputs": [
        {
          "internalType": "string",
          "name": "",
          "type": "string"
        }
      ],
      "payable": false,
      "stateMutability": "view",
      "type": "function"
    },
    {
      "constant": false,
      "inputs": [
        {
          "internalType": "uint256",
          "name": "account",
          "type": "uint256"
        },
        {
          "internalType": "string",
          "name": "password",
          "type": "string"
        }
      ],
      "name": "newUser",
      "outputs": [],
      "payable": false,
      "stateMutability": "nonpayable",
      "type": "function"
    },
    {
      "constant": false,
      "inputs": [
        {
          "internalType": "uint256",
          "name": "account",
          "type": "uint256"
        },
        {
          "internalType": "uint256",
          "name": "recipient",
          "type": "uint256"
        },
        {
          "internalType": "uint256",
          "name": "value",
          "type": "uint256"
        }
      ],
      "name": "sendMoney",
      "outputs": [],
      "payable": false,
      "stateMutability": "nonpayable",
      "type": "function"
    },
    {
      "constant": false,
      "inputs": [
        {
          "internalType": "uint256",
          "name": "account",
          "type": "uint256"
        },
        {
          "internalType": "uint256",
          "name": "recipient",
          "type": "uint256"
        },
        {
          "internalType": "uint256",
          "name": "value",
          "type": "uint256"
        }
      ],
      "name": "requestMoney",
      "outputs": [],
      "payable": false,
      "stateMutability": "nonpayable",
      "type": "function"
    },
    {
      "constant": true,
      "inputs": [
        {
          "internalType": "uint256",
          "name": "account",
          "type": "uint256"
        }
      ],
      "name": "getBalance",
      "outputs": [
        {
          "internalType": "uint256",
          "name": "",
          "type": "uint256"
        }
      ],
      "payable": false,
      "stateMutability": "view",
      "type": "function"
    },
    {
      "constant": true,
      "inputs": [
        {
          "internalType": "uint256",
          "name": "account",
          "type": "uint256"
        },
        {
          "internalType": "uint256",
          "name": "index",
          "type": "uint256"
        }
      ],
      "name": "getSender",
      "outputs": [
        {
          "internalType": "uint256",
          "name": "",
          "type": "uint256"
        }
      ],
      "payable": false,
      "stateMutability": "view",
      "type": "function"
    },
    {
      "constant": true,
      "inputs": [
        {
          "internalType": "uint256",
          "name": "account",
          "type": "uint256"
        },
        {
          "internalType": "uint256",
          "name": "index",
          "type": "uint256"
        }
      ],
      "name": "getRecipient",
      "outputs": [
        {
          "internalType": "uint256",
          "name": "",
          "type": "uint256"
        }
      ],
      "payable": false,
      "stateMutability": "view",
      "type": "function"
    },
    {
      "constant": true,
      "inputs": [
        {
          "internalType": "uint256",
          "name": "account",
          "type": "uint256"
        },
        {
          "internalType": "uint256",
          "name": "index",
          "type": "uint256"
        }
      ],
      "name": "getAmount",
      "outputs": [
        {
          "internalType": "uint256",
          "name": "",
          "type": "uint256"
        }
      ],
      "payable": false,
      "stateMutability": "view",
      "type": "function"
    },
    {
      "constant": true,
      "inputs": [
        {
          "internalType": "uint256",
          "name": "account",
          "type": "uint256"
        },
        {
          "internalType": "uint256",
          "name": "index",
          "type": "uint256"
        }
      ],
      "name": "getRole",
      "outputs": [
        {
          "internalType": "string",
          "name": "",
          "type": "string"
        }
      ],
      "payable": false,
      "stateMutability": "view",
      "type": "function"
    },
    {
      "constant": true,
      "inputs": [
        {
          "internalType": "uint256",
          "name": "account",
          "type": "uint256"
        },
        {
          "internalType": "uint256",
          "name": "index",
          "type": "uint256"
        }
      ],
      "name": "getRequestOwner",
      "outputs": [
        {
          "internalType": "uint256",
          "name": "",
          "type": "uint256"
        }
      ],
      "payable": false,
      "stateMutability": "view",
      "type": "function"
    },
    {
      "constant": true,
      "inputs": [
        {
          "internalType": "uint256",
          "name": "account",
          "type": "uint256"
        },
        {
          "internalType": "uint256",
          "name": "index",
          "type": "uint256"
        }
      ],
      "name": "getRequestAmount",
      "outputs": [
        {
          "internalType": "uint256",
          "name": "",
          "type": "uint256"
        }
      ],
      "payable": false,
      "stateMutability": "view",
      "type": "function"
    }
  ],
  "bytecode": "0x608060405234801561001057600080fd5b506110cd806100206000396000f3fe608060405234801561001057600080fd5b50600436106100b45760003560e01c80638486ebcb116100715780638486ebcb1461026357806386b5b252146102af5780638a4366c0146103ed5780639cf42bc6146104b2578063d320609714610563578063f2a40db8146105af576100b4565b806316b621d6146100b95780631e010439146101055780631f038e491461014757806323e673801461018957806336a31de5146101cb5780634ca9899714610217575b600080fd5b6100ef600480360360408110156100cf57600080fd5b810190808035906020019092919080359060200190929190505050610672565b6040518082815260200191505060405180910390f35b6101316004803603602081101561011b57600080fd5b81019080803590602001909291905050506106ae565b6040518082815260200191505060405180910390f35b6101876004803603606081101561015d57600080fd5b810190808035906020019092919080359060200190929190803590602001909291905050506106cd565b005b6101c96004803603606081101561019f57600080fd5b8101908080359060200190929190803590602001909291908035906020019092919050505061096e565b005b610201600480360360408110156101e157600080fd5b810190808035906020019092919080359060200190929190505050610a47565b6040518082815260200191505060405180910390f35b61024d6004803603604081101561022d57600080fd5b810190808035906020019092919080359060200190929190505050610a83565b6040518082815260200191505060405180910390f35b6102996004803603604081101561027957600080fd5b810190808035906020019092919080359060200190929190505050610abf565b6040518082815260200191505060405180910390f35b610372600480360360408110156102c557600080fd5b8101908080359060200190929190803590602001906401000000008111156102ec57600080fd5b8201836020820111156102fe57600080fd5b8035906020019184600183028401116401000000008311171561032057600080fd5b91908080601f016020809104026020016040519081016040528093929190818152602001838380828437600081840152601f19601f820116905080830192505050505050509192919290505050610afb565b6040518080602001828103825283818151815260200191508051906020019080838360005b838110156103b2578082015181840152602081019050610397565b50505050905090810190601f1680156103df5780820380516001836020036101000a031916815260200191505b509250505060405180910390f35b6104b06004803603604081101561040357600080fd5b81019080803590602001909291908035906020019064010000000081111561042a57600080fd5b82018360208201111561043c57600080fd5b8035906020019184600183028401116401000000008311171561045e57600080fd5b91908080601f016020809104026020016040519081016040528093929190818152602001838380828437600081840152601f19601f820116905080830192505050505050509192919290505050610ca5565b005b6104e8600480360360408110156104c857600080fd5b810190808035906020019092919080359060200190929190505050610d95565b6040518080602001828103825283818151815260200191508051906020019080838360005b8381101561052857808201518184015260208101905061050d565b50505050905090810190601f1680156105555780820380516001836020036101000a031916815260200191505b509250505060405180910390f35b6105996004803603604081101561057957600080fd5b810190808035906020019092919080359060200190929190505050610e69565b6040518082815260200191505060405180910390f35b6105db600480360360208110156105c557600080fd5b8101908080359060200190929190505050610ea5565b6040518080602001868152602001858152602001848152602001838152602001828103825287818151815260200191508051906020019080838360005b83811015610633578082015181840152602081019050610618565b50505050905090810190601f1680156106605780820380516001836020036101000a031916815260200191505b50965050505050505060405180910390f35b6000806000848152602001908152602001600020600501828154811061069457fe5b906000526020600020906002020160010154905092915050565b6000806000838152602001908152602001600020600101549050919050565b600160008085815260200190815260200160002060020154146106ef57600080fd5b6001600080848152602001908152602001600020600201541461071157600080fd5b8060008085815260200190815260200160002060010154101561073357600080fd5b8060008085815260200190815260200160002060010160008282540392505081905550806000808481526020019081526020016000206001016000828254019250508190555060008084815260200190815260200160002060060160405180608001604052808581526020018481526020018381526020016040518060400160405280600481526020017f53656e7400000000000000000000000000000000000000000000000000000000815250815250908060018154018082558091505090600182039060005260206000209060040201600090919290919091506000820151816000015560208201518160010155604082015181600201556060820151816003019080519060200190610849929190610f73565b5050505060008083815260200190815260200160002060060160405180608001604052808581526020018481526020018381526020016040518060400160405280600881526020017f526563656976656400000000000000000000000000000000000000000000000081525081525090806001815401808255809150509060018203906000526020600020906004020160009091929091909150600082015181600001556020820151816001015560408201518160020155606082015181600301908051906020019061091d929190610f73565b50505050600160008085815260200190815260200160002060040160008282540192505081905550600160008084815260200190815260200160002060040160008282540192505081905550505050565b6001600080858152602001908152602001600020600201541461099057600080fd5b600160008084815260200190815260200160002060020154146109b257600080fd5b600080838152602001908152602001600020600501604051806040016040528085815260200183815250908060018154018082558091505090600182039060005260206000209060020201600090919290919091506000820151816000015560208201518160010155505050600160008084815260200190815260200160002060030160008282540192505081905550505050565b60008060008481526020019081526020016000206005018281548110610a6957fe5b906000526020600020906002020160000154905092915050565b60008060008481526020019081526020016000206006018281548110610aa557fe5b906000526020600020906004020160020154905092915050565b60008060008481526020019081526020016000206006018281548110610ae157fe5b906000526020600020906004020160010154905092915050565b60606000806000858152602001908152602001600020600201541415610b58576040518060400160405280600181526020017f30000000000000000000000000000000000000000000000000000000000000008152509050610c9f565b60606000808581526020019081526020016000206000018054600181600116156101000203166002900480601f016020809104026020016040519081016040528092919081815260200182805460018160011615610100020316600290048015610c035780601f10610bd857610100808354040283529160200191610c03565b820191906000526020600020905b815481529060010190602001808311610be657829003601f168201915b50505050509050606083905060606040518060400160405280600181526020017f30000000000000000000000000000000000000000000000000000000000000008152509050818051906020012083805190602001201415610c98576040518060400160405280600181526020017f310000000000000000000000000000000000000000000000000000000000000081525090505b8093505050505b92915050565b6001600080848152602001908152602001600020600201541415610d31576040517f08c379a00000000000000000000000000000000000000000000000000000000081526004018080602001828103825260168152602001807f4163636f756e7420416c7265616479204578697374730000000000000000000081525060200191505060405180910390fd5b806000808481526020019081526020016000206000019080519060200190610d5a929190610ff3565b506064600080848152602001908152602001600020600101819055506001600080848152602001908152602001600020600201819055505050565b60606000808481526020019081526020016000206006018281548110610db757fe5b90600052602060002090600402016003018054600181600116156101000203166002900480601f016020809104026020016040519081016040528092919081815260200182805460018160011615610100020316600290048015610e5c5780601f10610e3157610100808354040283529160200191610e5c565b820191906000526020600020905b815481529060010190602001808311610e3f57829003601f168201915b5050505050905092915050565b60008060008481526020019081526020016000206006018281548110610e8b57fe5b906000526020600020906004020160000154905092915050565b6000602052806000526040600020600091509050806000018054600181600116156101000203166002900480601f016020809104026020016040519081016040528092919081815260200182805460018160011615610100020316600290048015610f515780601f10610f2657610100808354040283529160200191610f51565b820191906000526020600020905b815481529060010190602001808311610f3457829003601f168201915b5050505050908060010154908060020154908060030154908060040154905085565b828054600181600116156101000203166002900490600052602060002090601f016020900481019282601f10610fb457805160ff1916838001178555610fe2565b82800160010185558215610fe2579182015b82811115610fe1578251825591602001919060010190610fc6565b5b509050610fef9190611073565b5090565b828054600181600116156101000203166002900490600052602060002090601f016020900481019282601f1061103457805160ff1916838001178555611062565b82800160010185558215611062579182015b82811115611061578251825591602001919060010190611046565b5b50905061106f9190611073565b5090565b61109591905b80821115611091576000816000905550600101611079565b5090565b9056fea265627a7a72315820f75a28cec2c69b25ea0408e24bf8cc7cceaa7110ee92a9493655905f16d2e9fd64736f6c63430005100032",
  "source": "// SPDX-License-Identifier: MIT\npragma solidity >=0.4.18 <0.9.0;\n\ncontract Bank{\n\n  struct Request{\n    uint from;\n    uint amount;\n  }\n  struct Transaction{\n    uint sender;\n    uint recipient;\n    uint amount;\n    string role;\n  }\n  struct User{\n    string password;\n    uint account_balance;\n    uint created;\n    uint request_count;\n    uint transaction_count;\n    Request [] requests; \n    Transaction [] transactions;\n    \n  }\n\n  mapping(uint => User) public accounts;\n  function loginAuthenticate(uint account,string memory password) view public returns (string memory) {\n\n    if(accounts[account].created == 0){\n      return \"0\";\n    }\n\n    string memory a = accounts[account].password;\n    string memory b = password;\n    string memory check = \"0\";\n    if(keccak256(bytes(a)) == keccak256(bytes(b))){\n      check = \"1\";\n    }\n    return check;\n  }\n\n  function newUser(uint account,string memory password)  public {\n    if(accounts[account].created == 1){\n      revert('Account Already Exists');\n    }\n    \n    accounts[account].password = password;\n    accounts[account].account_balance = 100;\n    accounts[account].created = 1;\n\n  }\n\n  function sendMoney(uint account,uint recipient,uint value) public {\n    require((accounts[account].created == 1));\n    require((accounts[recipient].created == 1)); \n    require(accounts[account].account_balance >= value);\n\n    accounts[account].account_balance -= value;\n    accounts[recipient].account_balance += value;\n\n    accounts[account].transactions.push(Transaction(account,recipient,value,\"Sent\"));\n    accounts[recipient].transactions.push(Transaction(account,recipient,value,\"Received\"));\n\n    accounts[account].transaction_count += 1;\n    accounts[recipient].transaction_count += 1;\n\n  }\n\n  function requestMoney(uint account,uint recipient,uint value) public {\n    require((accounts[account].created == 1));\n    require((accounts[recipient].created == 1));\n\n \n    accounts[recipient].requests.push(Request(account,value));\n\n    accounts[recipient].request_count += 1;\n\n  } \n  function getBalance(uint account) view public returns(uint){\n      return accounts[account].account_balance;\n  }\n\n\n  function getSender(uint account,uint index) view public returns (uint){\n    return accounts[account].transactions[index].sender;\n  }\n\n  function getRecipient(uint account,uint index) view public returns (uint){\n    return accounts[account].transactions[index].recipient;\n  }\n\n  function getAmount(uint account,uint index) view public returns (uint){\n    return accounts[account].transactions[index].amount;\n  }\n\n  function getRole(uint account,uint index) view public returns (string memory){\n    return accounts[account].transactions[index].role;\n  }\n   \n  function getRequestOwner(uint account,uint index) view public returns (uint){\n    return accounts[account].requests[index].from;\n  }\n\n  function getRequestAmount(uint account,uint index) view public returns (uint){\n    return accounts[account].requests[index].amount;\n  }\n\n  \n\n}",
  "sourcePath": "C:\\Users\\Retr0\\Desktop\\crypro_wallet\\backend\\contracts\\Bank.sol",
  "compiler": {
    "name": "solc",
    "version": "0.5.16+commit.9c3226ce.Emscripten.clang"
  },
  "schemaVersion": "3.4.16",
  "updatedAt": "2024-05-30T20:12:11.093Z",
  "devdoc": {
    "methods": {}
  },
  "userdoc": {
    "methods": {}
  }
}