{
	"Desktop/crypro_wallet/backend/contracts/Bank.sol": {
		"Bank": {
			"abi": [
				{
					"inputs": [
						{
							"internalType": "uint256",
							"name": "",
							"type": "uint256"
						}
					],
					"name": "accounts",
					"outputs": [
						{
							"internalType": "string",
							"name": "password",
							"type": "string"
						},
						{
							"internalType": "uint256",
							"name": "account_balance",
							"type": "uint256"
						},
						{
							"internalType": "uint256",
							"name": "created",
							"type": "uint256"
						},
						{
							"internalType": "uint256",
							"name": "request_count",
							"type": "uint256"
						},
						{
							"internalType": "uint256",
							"name": "transaction_count",
							"type": "uint256"
						}
					],
					"stateMutability": "view",
					"type": "function"
				},
				{
					"inputs": [
						{
							"internalType": "uint256",
							"name": "account",
							"type": "uint256"
						},
						{
							"internalType": "uint256",
							"name": "index",
							"type": "uint256"
						}
					],
					"name": "getAmount",
					"outputs": [
						{
							"internalType": "uint256",
							"name": "",
							"type": "uint256"
						}
					],
					"stateMutability": "view",
					"type": "function"
				},
				{
					"inputs": [
						{
							"internalType": "uint256",
							"name": "account",
							"type": "uint256"
						}
					],
					"name": "getBalance",
					"outputs": [
						{
							"internalType": "uint256",
							"name": "",
							"type": "uint256"
						}
					],
					"stateMutability": "view",
					"type": "function"
				},
				{
					"inputs": [
						{
							"internalType": "uint256",
							"name": "account",
							"type": "uint256"
						},
						{
							"internalType": "uint256",
							"name": "index",
							"type": "uint256"
						}
					],
					"name": "getRecipient",
					"outputs": [
						{
							"internalType": "uint256",
							"name": "",
							"type": "uint256"
						}
					],
					"stateMutability": "view",
					"type": "function"
				},
				{
					"inputs": [
						{
							"internalType": "uint256",
							"name": "account",
							"type": "uint256"
						},
						{
							"internalType": "uint256",
							"name": "index",
							"type": "uint256"
						}
					],
					"name": "getRequestAmount",
					"outputs": [
						{
							"internalType": "uint256",
							"name": "",
							"type": "uint256"
						}
					],
					"stateMutability": "view",
					"type": "function"
				},
				{
					"inputs": [
						{
							"internalType": "uint256",
							"name": "account",
							"type": "uint256"
						},
						{
							"internalType": "uint256",
							"name": "index",
							"type": "uint256"
						}
					],
					"name": "getRequestOwner",
					"outputs": [
						{
							"internalType": "uint256",
							"name": "",
							"type": "uint256"
						}
					],
					"stateMutability": "view",
					"type": "function"
				},
				{
					"inputs": [
						{
							"internalType": "uint256",
							"name": "account",
							"type": "uint256"
						},
						{
							"internalType": "uint256",
							"name": "index",
							"type": "uint256"
						}
					],
					"name": "getRole",
					"outputs": [
						{
							"internalType": "string",
							"name": "",
							"type": "string"
						}
					],
					"stateMutability": "view",
					"type": "function"
				},
				{
					"inputs": [
						{
							"internalType": "uint256",
							"name": "account",
							"type": "uint256"
						},
						{
							"internalType": "uint256",
							"name": "index",
							"type": "uint256"
						}
					],
					"name": "getSender",
					"outputs": [
						{
							"internalType": "uint256",
							"name": "",
							"type": "uint256"
						}
					],
					"stateMutability": "view",
					"type": "function"
				},
				{
					"inputs": [
						{
							"internalType": "uint256",
							"name": "account",
							"type": "uint256"
						},
						{
							"internalType": "string",
							"name": "password",
							"type": "string"
						}
					],
					"name": "loginAuthenticate",
					"outputs": [
						{
							"internalType": "string",
							"name": "",
							"type": "string"
						}
					],
					"stateMutability": "view",
					"type": "function"
				},
				{
					"inputs": [
						{
							"internalType": "uint256",
							"name": "account",
							"type": "uint256"
						},
						{
							"internalType": "string",
							"name": "password",
							"type": "string"
						}
					],
					"name": "newUser",
					"outputs": [],
					"stateMutability": "nonpayable",
					"type": "function"
				},
				{
					"inputs": [
						{
							"internalType": "uint256",
							"name": "account",
							"type": "uint256"
						},
						{
							"internalType": "uint256",
							"name": "recipient",
							"type": "uint256"
						},
						{
							"internalType": "uint256",
							"name": "value",
							"type": "uint256"
						}
					],
					"name": "requestMoney",
					"outputs": [],
					"stateMutability": "nonpayable",
					"type": "function"
				},
				{
					"inputs": [
						{
							"internalType": "uint256",
							"name": "account",
							"type": "uint256"
						},
						{
							"internalType": "uint256",
							"name": "recipient",
							"type": "uint256"
						},
						{
							"internalType": "uint256",
							"name": "value",
							"type": "uint256"
						}
					],
					"name": "sendMoney",
					"outputs": [],
					"stateMutability": "nonpayable",
					"type": "function"
				}
			],
			"devdoc": {
				"kind": "dev",
				"methods": {},
				"version": 1
			},
			"evm": {
				"assembly": "    /* \"Desktop/crypro_wallet/backend/contracts/Bank.sol\":66:2988  contract Bank{... */\n  mstore(0x40, 0x80)\n  callvalue\n  dup1\n  iszero\n  tag_1\n  jumpi\n  0x00\n  dup1\n  revert\ntag_1:\n  pop\n  dataSize(sub_0)\n  dup1\n  dataOffset(sub_0)\n  0x00\n  codecopy\n  0x00\n  return\nstop\n\nsub_0: assembly {\n        /* \"Desktop/crypro_wallet/backend/contracts/Bank.sol\":66:2988  contract Bank{... */\n      mstore(0x40, 0x80)\n      callvalue\n      dup1\n      iszero\n      tag_1\n      jumpi\n      0x00\n      dup1\n      revert\n    tag_1:\n      pop\n      jumpi(tag_2, lt(calldatasize, 0x04))\n      shr(0xe0, calldataload(0x00))\n      dup1\n      0x8486ebcb\n      gt\n      tag_15\n      jumpi\n      dup1\n      0x8486ebcb\n      eq\n      tag_9\n      jumpi\n      dup1\n      0x86b5b252\n      eq\n      tag_10\n      jumpi\n      dup1\n      0x8a4366c0\n      eq\n      tag_11\n      jumpi\n      dup1\n      0x9cf42bc6\n      eq\n      tag_12\n      jumpi\n      dup1\n      0xd3206097\n      eq\n      tag_13\n      jumpi\n      dup1\n      0xf2a40db8\n      eq\n      tag_14\n      jumpi\n      jump(tag_2)\n    tag_15:\n      dup1\n      0x16b621d6\n      eq\n      tag_3\n      jumpi\n      dup1\n      0x1e010439\n      eq\n      tag_4\n      jumpi\n      dup1\n      0x1f038e49\n      eq\n      tag_5\n      jumpi\n      dup1\n      0x23e67380\n      eq\n      tag_6\n      jumpi\n      dup1\n      0x36a31de5\n      eq\n      tag_7\n      jumpi\n      dup1\n      0x4ca98997\n      eq\n      tag_8\n      jumpi\n    tag_2:\n      0x00\n      dup1\n      revert\n        /* \"Desktop/crypro_wallet/backend/contracts/Bank.sol\":2846:2981  function getRequestAmount(uint account,uint index) view public returns (uint){... */\n    tag_3:\n      tag_16\n      0x04\n      dup1\n      calldatasize\n      sub\n      dup2\n      add\n      swap1\n      tag_17\n      swap2\n      swap1\n      tag_18\n      jump\t// in\n    tag_17:\n      tag_19\n      jump\t// in\n    tag_16:\n      mload(0x40)\n      tag_20\n      swap2\n      swap1\n      tag_21\n      jump\t// in\n    tag_20:\n      mload(0x40)\n      dup1\n      swap2\n      sub\n      swap1\n      return\n        /* \"Desktop/crypro_wallet/backend/contracts/Bank.sol\":2035:2147  function getBalance(uint account) view public returns(uint){... */\n    tag_4:\n      tag_22\n      0x04\n      dup1\n      calldatasize\n      sub\n      dup2\n      add\n      swap1\n      tag_23\n      swap2\n      swap1\n      tag_24\n      jump\t// in\n    tag_23:\n      tag_25\n      jump\t// in\n    tag_22:\n      mload(0x40)\n      tag_26\n      swap2\n      swap1\n      tag_21\n      jump\t// in\n    tag_26:\n      mload(0x40)\n      dup1\n      swap2\n      sub\n      swap1\n      return\n        /* \"Desktop/crypro_wallet/backend/contracts/Bank.sol\":1146:1745  function sendMoney(uint account,uint recipient,uint value) public {... */\n    tag_5:\n      tag_27\n      0x04\n      dup1\n      calldatasize\n      sub\n      dup2\n      add\n      swap1\n      tag_28\n      swap2\n      swap1\n      tag_29\n      jump\t// in\n    tag_28:\n      tag_30\n      jump\t// in\n    tag_27:\n      stop\n        /* \"Desktop/crypro_wallet/backend/contracts/Bank.sol\":1749:2031  function requestMoney(uint account,uint recipient,uint value) public {... */\n    tag_6:\n      tag_31\n      0x04\n      dup1\n      calldatasize\n      sub\n      dup2\n      add\n      swap1\n      tag_32\n      swap2\n      swap1\n      tag_29\n      jump\t// in\n    tag_32:\n      tag_33\n      jump\t// in\n    tag_31:\n      stop\n        /* \"Desktop/crypro_wallet/backend/contracts/Bank.sol\":2710:2842  function getRequestOwner(uint account,uint index) view public returns (uint){... */\n    tag_7:\n      tag_34\n      0x04\n      dup1\n      calldatasize\n      sub\n      dup2\n      add\n      swap1\n      tag_35\n      swap2\n      swap1\n      tag_18\n      jump\t// in\n    tag_35:\n      tag_36\n      jump\t// in\n    tag_34:\n      mload(0x40)\n      tag_37\n      swap2\n      swap1\n      tag_21\n      jump\t// in\n    tag_37:\n      mload(0x40)\n      dup1\n      swap2\n      sub\n      swap1\n      return\n        /* \"Desktop/crypro_wallet/backend/contracts/Bank.sol\":2430:2562  function getAmount(uint account,uint index) view public returns (uint){... */\n    tag_8:\n      tag_38\n      0x04\n      dup1\n      calldatasize\n      sub\n      dup2\n      add\n      swap1\n      tag_39\n      swap2\n      swap1\n      tag_18\n      jump\t// in\n    tag_39:\n      tag_40\n      jump\t// in\n    tag_38:\n      mload(0x40)\n      tag_41\n      swap2\n      swap1\n      tag_21\n      jump\t// in\n    tag_41:\n      mload(0x40)\n      dup1\n      swap2\n      sub\n      swap1\n      return\n        /* \"Desktop/crypro_wallet/backend/contracts/Bank.sol\":2288:2426  function getRecipient(uint account,uint index) view public returns (uint){... */\n    tag_9:\n      tag_42\n      0x04\n      dup1\n      calldatasize\n      sub\n      dup2\n      add\n      swap1\n      tag_43\n      swap2\n      swap1\n      tag_18\n      jump\t// in\n    tag_43:\n      tag_44\n      jump\t// in\n    tag_42:\n      mload(0x40)\n      tag_45\n      swap2\n      swap1\n      tag_21\n      jump\t// in\n    tag_45:\n      mload(0x40)\n      dup1\n      swap2\n      sub\n      swap1\n      return\n        /* \"Desktop/crypro_wallet/backend/contracts/Bank.sol\":477:856  function loginAuthenticate(uint account,string memory password) view public returns (string memory) {... */\n    tag_10:\n      tag_46\n      0x04\n      dup1\n      calldatasize\n      sub\n      dup2\n      add\n      swap1\n      tag_47\n      swap2\n      swap1\n      tag_48\n      jump\t// in\n    tag_47:\n      tag_49\n      jump\t// in\n    tag_46:\n      mload(0x40)\n      tag_50\n      swap2\n      swap1\n      tag_51\n      jump\t// in\n    tag_50:\n      mload(0x40)\n      dup1\n      swap2\n      sub\n      swap1\n      return\n        /* \"Desktop/crypro_wallet/backend/contracts/Bank.sol\":860:1142  function newUser(uint account,string memory password)  public {... */\n    tag_11:\n      tag_52\n      0x04\n      dup1\n      calldatasize\n      sub\n      dup2\n      add\n      swap1\n      tag_53\n      swap2\n      swap1\n      tag_48\n      jump\t// in\n    tag_53:\n      tag_54\n      jump\t// in\n    tag_52:\n      stop\n        /* \"Desktop/crypro_wallet/backend/contracts/Bank.sol\":2566:2703  function getRole(uint account,uint index) view public returns (string memory){... */\n    tag_12:\n      tag_55\n      0x04\n      dup1\n      calldatasize\n      sub\n      dup2\n      add\n      swap1\n      tag_56\n      swap2\n      swap1\n      tag_18\n      jump\t// in\n    tag_56:\n      tag_57\n      jump\t// in\n    tag_55:\n      mload(0x40)\n      tag_58\n      swap2\n      swap1\n      tag_51\n      jump\t// in\n    tag_58:\n      mload(0x40)\n      dup1\n      swap2\n      sub\n      swap1\n      return\n        /* \"Desktop/crypro_wallet/backend/contracts/Bank.sol\":2152:2284  function getSender(uint account,uint index) view public returns (uint){... */\n    tag_13:\n      tag_59\n      0x04\n      dup1\n      calldatasize\n      sub\n      dup2\n      add\n      swap1\n      tag_60\n      swap2\n      swap1\n      tag_18\n      jump\t// in\n    tag_60:\n      tag_61\n      jump\t// in\n    tag_59:\n      mload(0x40)\n      tag_62\n      swap2\n      swap1\n      tag_21\n      jump\t// in\n    tag_62:\n      mload(0x40)\n      dup1\n      swap2\n      sub\n      swap1\n      return\n        /* \"Desktop/crypro_wallet/backend/contracts/Bank.sol\":436:473  mapping(uint => User) public accounts */\n    tag_14:\n      tag_63\n      0x04\n      dup1\n      calldatasize\n      sub\n      dup2\n      add\n      swap1\n      tag_64\n      swap2\n      swap1\n      tag_24\n      jump\t// in\n    tag_64:\n      tag_65\n      jump\t// in\n    tag_63:\n      mload(0x40)\n      tag_66\n      swap6\n      swap5\n      swap4\n      swap3\n      swap2\n      swap1\n      tag_67\n      jump\t// in\n    tag_66:\n      mload(0x40)\n      dup1\n      swap2\n      sub\n      swap1\n      return\n        /* \"Desktop/crypro_wallet/backend/contracts/Bank.sol\":2846:2981  function getRequestAmount(uint account,uint index) view public returns (uint){... */\n    tag_19:\n        /* \"Desktop/crypro_wallet/backend/contracts/Bank.sol\":2918:2922  uint */\n      0x00\n        /* \"Desktop/crypro_wallet/backend/contracts/Bank.sol\":2936:2944  accounts */\n      dup1\n        /* \"Desktop/crypro_wallet/backend/contracts/Bank.sol\":2936:2953  accounts[account] */\n      0x00\n        /* \"Desktop/crypro_wallet/backend/contracts/Bank.sol\":2945:2952  account */\n      dup5\n        /* \"Desktop/crypro_wallet/backend/contracts/Bank.sol\":2936:2953  accounts[account] */\n      dup2\n      mstore\n      0x20\n      add\n      swap1\n      dup2\n      mstore\n      0x20\n      add\n      0x00\n      keccak256\n        /* \"Desktop/crypro_wallet/backend/contracts/Bank.sol\":2936:2962  accounts[account].requests */\n      0x05\n      add\n        /* \"Desktop/crypro_wallet/backend/contracts/Bank.sol\":2963:2968  index */\n      dup3\n        /* \"Desktop/crypro_wallet/backend/contracts/Bank.sol\":2936:2969  accounts[account].requests[index] */\n      dup2\n      sload\n      dup2\n      lt\n      tag_69\n      jumpi\n      tag_70\n      tag_71\n      jump\t// in\n    tag_70:\n    tag_69:\n      swap1\n      0x00\n      mstore\n      keccak256(0x00, 0x20)\n      swap1\n      0x02\n      mul\n      add\n        /* \"Desktop/crypro_wallet/backend/contracts/Bank.sol\":2936:2976  accounts[account].requests[index].amount */\n      0x01\n      add\n      sload\n        /* \"Desktop/crypro_wallet/backend/contracts/Bank.sol\":2929:2976  return accounts[account].requests[index].amount */\n      swap1\n      pop\n        /* \"Desktop/crypro_wallet/backend/contracts/Bank.sol\":2846:2981  function getRequestAmount(uint account,uint index) view public returns (uint){... */\n      swap3\n      swap2\n      pop\n      pop\n      jump\t// out\n        /* \"Desktop/crypro_wallet/backend/contracts/Bank.sol\":2035:2147  function getBalance(uint account) view public returns(uint){... */\n    tag_25:\n        /* \"Desktop/crypro_wallet/backend/contracts/Bank.sol\":2089:2093  uint */\n      0x00\n        /* \"Desktop/crypro_wallet/backend/contracts/Bank.sol\":2109:2117  accounts */\n      dup1\n        /* \"Desktop/crypro_wallet/backend/contracts/Bank.sol\":2109:2126  accounts[account] */\n      0x00\n        /* \"Desktop/crypro_wallet/backend/contracts/Bank.sol\":2118:2125  account */\n      dup4\n        /* \"Desktop/crypro_wallet/backend/contracts/Bank.sol\":2109:2126  accounts[account] */\n      dup2\n      mstore\n      0x20\n      add\n      swap1\n      dup2\n      mstore\n      0x20\n      add\n      0x00\n      keccak256\n        /* \"Desktop/crypro_wallet/backend/contracts/Bank.sol\":2109:2142  accounts[account].account_balance */\n      0x01\n      add\n      sload\n        /* \"Desktop/crypro_wallet/backend/contracts/Bank.sol\":2102:2142  return accounts[account].account_balance */\n      swap1\n      pop\n        /* \"Desktop/crypro_wallet/backend/contracts/Bank.sol\":2035:2147  function getBalance(uint account) view public returns(uint){... */\n      swap2\n      swap1\n      pop\n      jump\t// out\n        /* \"Desktop/crypro_wallet/backend/contracts/Bank.sol\":1146:1745  function sendMoney(uint account,uint recipient,uint value) public {... */\n    tag_30:\n        /* \"Desktop/crypro_wallet/backend/contracts/Bank.sol\":1256:1257  1 */\n      0x01\n        /* \"Desktop/crypro_wallet/backend/contracts/Bank.sol\":1227:1235  accounts */\n      0x00\n        /* \"Desktop/crypro_wallet/backend/contracts/Bank.sol\":1227:1244  accounts[account] */\n      dup1\n        /* \"Desktop/crypro_wallet/backend/contracts/Bank.sol\":1236:1243  account */\n      dup6\n        /* \"Desktop/crypro_wallet/backend/contracts/Bank.sol\":1227:1244  accounts[account] */\n      dup2\n      mstore\n      0x20\n      add\n      swap1\n      dup2\n      mstore\n      0x20\n      add\n      0x00\n      keccak256\n        /* \"Desktop/crypro_wallet/backend/contracts/Bank.sol\":1227:1252  accounts[account].created */\n      0x02\n      add\n      sload\n        /* \"Desktop/crypro_wallet/backend/contracts/Bank.sol\":1227:1257  accounts[account].created == 1 */\n      eq\n        /* \"Desktop/crypro_wallet/backend/contracts/Bank.sol\":1218:1259  require((accounts[account].created == 1)) */\n      tag_75\n      jumpi\n      0x00\n      dup1\n      revert\n    tag_75:\n        /* \"Desktop/crypro_wallet/backend/contracts/Bank.sol\":1305:1306  1 */\n      0x01\n        /* \"Desktop/crypro_wallet/backend/contracts/Bank.sol\":1274:1282  accounts */\n      0x00\n        /* \"Desktop/crypro_wallet/backend/contracts/Bank.sol\":1274:1293  accounts[recipient] */\n      dup1\n        /* \"Desktop/crypro_wallet/backend/contracts/Bank.sol\":1283:1292  recipient */\n      dup5\n        /* \"Desktop/crypro_wallet/backend/contracts/Bank.sol\":1274:1293  accounts[recipient] */\n      dup2\n      mstore\n      0x20\n      add\n      swap1\n      dup2\n      mstore\n      0x20\n      add\n      0x00\n      keccak256\n        /* \"Desktop/crypro_wallet/backend/contracts/Bank.sol\":1274:1301  accounts[recipient].created */\n      0x02\n      add\n      sload\n        /* \"Desktop/crypro_wallet/backend/contracts/Bank.sol\":1274:1306  accounts[recipient].created == 1 */\n      eq\n        /* \"Desktop/crypro_wallet/backend/contracts/Bank.sol\":1265:1308  require((accounts[recipient].created == 1)) */\n      tag_76\n      jumpi\n      0x00\n      dup1\n      revert\n    tag_76:\n        /* \"Desktop/crypro_wallet/backend/contracts/Bank.sol\":1360:1365  value */\n      dup1\n        /* \"Desktop/crypro_wallet/backend/contracts/Bank.sol\":1323:1331  accounts */\n      0x00\n        /* \"Desktop/crypro_wallet/backend/contracts/Bank.sol\":1323:1340  accounts[account] */\n      dup1\n        /* \"Desktop/crypro_wallet/backend/contracts/Bank.sol\":1332:1339  account */\n      dup6\n        /* \"Desktop/crypro_wallet/backend/contracts/Bank.sol\":1323:1340  accounts[account] */\n      dup2\n      mstore\n      0x20\n      add\n      swap1\n      dup2\n      mstore\n      0x20\n      add\n      0x00\n      keccak256\n        /* \"Desktop/crypro_wallet/backend/contracts/Bank.sol\":1323:1356  accounts[account].account_balance */\n      0x01\n      add\n      sload\n        /* \"Desktop/crypro_wallet/backend/contracts/Bank.sol\":1323:1365  accounts[account].account_balance >= value */\n      lt\n      iszero\n        /* \"Desktop/crypro_wallet/backend/contracts/Bank.sol\":1315:1366  require(accounts[account].account_balance >= value) */\n      tag_77\n      jumpi\n      0x00\n      dup1\n      revert\n    tag_77:\n        /* \"Desktop/crypro_wallet/backend/contracts/Bank.sol\":1410:1415  value */\n      dup1\n        /* \"Desktop/crypro_wallet/backend/contracts/Bank.sol\":1373:1381  accounts */\n      0x00\n        /* \"Desktop/crypro_wallet/backend/contracts/Bank.sol\":1373:1390  accounts[account] */\n      dup1\n        /* \"Desktop/crypro_wallet/backend/contracts/Bank.sol\":1382:1389  account */\n      dup6\n        /* \"Desktop/crypro_wallet/backend/contracts/Bank.sol\":1373:1390  accounts[account] */\n      dup2\n      mstore\n      0x20\n      add\n      swap1\n      dup2\n      mstore\n      0x20\n      add\n      0x00\n      keccak256\n        /* \"Desktop/crypro_wallet/backend/contracts/Bank.sol\":1373:1406  accounts[account].account_balance */\n      0x01\n      add\n      0x00\n        /* \"Desktop/crypro_wallet/backend/contracts/Bank.sol\":1373:1415  accounts[account].account_balance -= value */\n      dup3\n      dup3\n      sload\n      tag_78\n      swap2\n      swap1\n      tag_79\n      jump\t// in\n    tag_78:\n      swap3\n      pop\n      pop\n      dup2\n      swap1\n      sstore\n      pop\n        /* \"Desktop/crypro_wallet/backend/contracts/Bank.sol\":1460:1465  value */\n      dup1\n        /* \"Desktop/crypro_wallet/backend/contracts/Bank.sol\":1421:1429  accounts */\n      0x00\n        /* \"Desktop/crypro_wallet/backend/contracts/Bank.sol\":1421:1440  accounts[recipient] */\n      dup1\n        /* \"Desktop/crypro_wallet/backend/contracts/Bank.sol\":1430:1439  recipient */\n      dup5\n        /* \"Desktop/crypro_wallet/backend/contracts/Bank.sol\":1421:1440  accounts[recipient] */\n      dup2\n      mstore\n      0x20\n      add\n      swap1\n      dup2\n      mstore\n      0x20\n      add\n      0x00\n      keccak256\n        /* \"Desktop/crypro_wallet/backend/contracts/Bank.sol\":1421:1456  accounts[recipient].account_balance */\n      0x01\n      add\n      0x00\n        /* \"Desktop/crypro_wallet/backend/contracts/Bank.sol\":1421:1465  accounts[recipient].account_balance += value */\n      dup3\n      dup3\n      sload\n      tag_80\n      swap2\n      swap1\n      tag_81\n      jump\t// in\n    tag_80:\n      swap3\n      pop\n      pop\n      dup2\n      swap1\n      sstore\n      pop\n        /* \"Desktop/crypro_wallet/backend/contracts/Bank.sol\":1472:1480  accounts */\n      0x00\n        /* \"Desktop/crypro_wallet/backend/contracts/Bank.sol\":1472:1489  accounts[account] */\n      dup1\n        /* \"Desktop/crypro_wallet/backend/contracts/Bank.sol\":1481:1488  account */\n      dup5\n        /* \"Desktop/crypro_wallet/backend/contracts/Bank.sol\":1472:1489  accounts[account] */\n      dup2\n      mstore\n      0x20\n      add\n      swap1\n      dup2\n      mstore\n      0x20\n      add\n      0x00\n      keccak256\n        /* \"Desktop/crypro_wallet/backend/contracts/Bank.sol\":1472:1502  accounts[account].transactions */\n      0x06\n      add\n        /* \"Desktop/crypro_wallet/backend/contracts/Bank.sol\":1508:1551  Transaction(account,recipient,value,\"Sent\") */\n      mload(0x40)\n      dup1\n      0x80\n      add\n      0x40\n      mstore\n      dup1\n        /* \"Desktop/crypro_wallet/backend/contracts/Bank.sol\":1520:1527  account */\n      dup6\n        /* \"Desktop/crypro_wallet/backend/contracts/Bank.sol\":1508:1551  Transaction(account,recipient,value,\"Sent\") */\n      dup2\n      mstore\n      0x20\n      add\n        /* \"Desktop/crypro_wallet/backend/contracts/Bank.sol\":1528:1537  recipient */\n      dup5\n        /* \"Desktop/crypro_wallet/backend/contracts/Bank.sol\":1508:1551  Transaction(account,recipient,value,\"Sent\") */\n      dup2\n      mstore\n      0x20\n      add\n        /* \"Desktop/crypro_wallet/backend/contracts/Bank.sol\":1538:1543  value */\n      dup4\n        /* \"Desktop/crypro_wallet/backend/contracts/Bank.sol\":1508:1551  Transaction(account,recipient,value,\"Sent\") */\n      dup2\n      mstore\n      0x20\n      add\n      mload(0x40)\n      dup1\n      0x40\n      add\n      0x40\n      mstore\n      dup1\n      0x04\n      dup2\n      mstore\n      0x20\n      add\n      0x53656e7400000000000000000000000000000000000000000000000000000000\n      dup2\n      mstore\n      pop\n      dup2\n      mstore\n      pop\n        /* \"Desktop/crypro_wallet/backend/contracts/Bank.sol\":1472:1552  accounts[account].transactions.push(Transaction(account,recipient,value,\"Sent\")) */\n      swap1\n      dup1\n      0x01\n      dup2\n      sload\n      add\n      dup1\n      dup3\n      sstore\n      dup1\n      swap2\n      pop\n      pop\n      0x01\n      swap1\n      sub\n      swap1\n      0x00\n      mstore\n      keccak256(0x00, 0x20)\n      swap1\n      0x04\n      mul\n      add\n      0x00\n      swap1\n      swap2\n      swap1\n      swap2\n      swap1\n      swap2\n      pop\n      0x00\n      dup3\n      add\n      mload\n      dup2\n      0x00\n      add\n      sstore\n      0x20\n      dup3\n      add\n      mload\n      dup2\n      0x01\n      add\n      sstore\n      0x40\n      dup3\n      add\n      mload\n      dup2\n      0x02\n      add\n      sstore\n      0x60\n      dup3\n      add\n      mload\n      dup2\n      0x03\n      add\n      swap1\n      dup2\n      tag_83\n      swap2\n      swap1\n      tag_84\n      jump\t// in\n    tag_83:\n      pop\n      pop\n      pop\n        /* \"Desktop/crypro_wallet/backend/contracts/Bank.sol\":1558:1566  accounts */\n      0x00\n        /* \"Desktop/crypro_wallet/backend/contracts/Bank.sol\":1558:1577  accounts[recipient] */\n      dup1\n        /* \"Desktop/crypro_wallet/backend/contracts/Bank.sol\":1567:1576  recipient */\n      dup4\n        /* \"Desktop/crypro_wallet/backend/contracts/Bank.sol\":1558:1577  accounts[recipient] */\n      dup2\n      mstore\n      0x20\n      add\n      swap1\n      dup2\n      mstore\n      0x20\n      add\n      0x00\n      keccak256\n        /* \"Desktop/crypro_wallet/backend/contracts/Bank.sol\":1558:1590  accounts[recipient].transactions */\n      0x06\n      add\n        /* \"Desktop/crypro_wallet/backend/contracts/Bank.sol\":1596:1643  Transaction(account,recipient,value,\"Received\") */\n      mload(0x40)\n      dup1\n      0x80\n      add\n      0x40\n      mstore\n      dup1\n        /* \"Desktop/crypro_wallet/backend/contracts/Bank.sol\":1608:1615  account */\n      dup6\n        /* \"Desktop/crypro_wallet/backend/contracts/Bank.sol\":1596:1643  Transaction(account,recipient,value,\"Received\") */\n      dup2\n      mstore\n      0x20\n      add\n        /* \"Desktop/crypro_wallet/backend/contracts/Bank.sol\":1616:1625  recipient */\n      dup5\n        /* \"Desktop/crypro_wallet/backend/contracts/Bank.sol\":1596:1643  Transaction(account,recipient,value,\"Received\") */\n      dup2\n      mstore\n      0x20\n      add\n        /* \"Desktop/crypro_wallet/backend/contracts/Bank.sol\":1626:1631  value */\n      dup4\n        /* \"Desktop/crypro_wallet/backend/contracts/Bank.sol\":1596:1643  Transaction(account,recipient,value,\"Received\") */\n      dup2\n      mstore\n      0x20\n      add\n      mload(0x40)\n      dup1\n      0x40\n      add\n      0x40\n      mstore\n      dup1\n      0x08\n      dup2\n      mstore\n      0x20\n      add\n      0x5265636569766564000000000000000000000000000000000000000000000000\n      dup2\n      mstore\n      pop\n      dup2\n      mstore\n      pop\n        /* \"Desktop/crypro_wallet/backend/contracts/Bank.sol\":1558:1644  accounts[recipient].transactions.push(Transaction(account,recipient,value,\"Received\")) */\n      swap1\n      dup1\n      0x01\n      dup2\n      sload\n      add\n      dup1\n      dup3\n      sstore\n      dup1\n      swap2\n      pop\n      pop\n      0x01\n      swap1\n      sub\n      swap1\n      0x00\n      mstore\n      keccak256(0x00, 0x20)\n      swap1\n      0x04\n      mul\n      add\n      0x00\n      swap1\n      swap2\n      swap1\n      swap2\n      swap1\n      swap2\n      pop\n      0x00\n      dup3\n      add\n      mload\n      dup2\n      0x00\n      add\n      sstore\n      0x20\n      dup3\n      add\n      mload\n      dup2\n      0x01\n      add\n      sstore\n      0x40\n      dup3\n      add\n      mload\n      dup2\n      0x02\n      add\n      sstore\n      0x60\n      dup3\n      add\n      mload\n      dup2\n      0x03\n      add\n      swap1\n      dup2\n      tag_86\n      swap2\n      swap1\n      tag_84\n      jump\t// in\n    tag_86:\n      pop\n      pop\n      pop\n        /* \"Desktop/crypro_wallet/backend/contracts/Bank.sol\":1690:1691  1 */\n      0x01\n        /* \"Desktop/crypro_wallet/backend/contracts/Bank.sol\":1651:1659  accounts */\n      0x00\n        /* \"Desktop/crypro_wallet/backend/contracts/Bank.sol\":1651:1668  accounts[account] */\n      dup1\n        /* \"Desktop/crypro_wallet/backend/contracts/Bank.sol\":1660:1667  account */\n      dup6\n        /* \"Desktop/crypro_wallet/backend/contracts/Bank.sol\":1651:1668  accounts[account] */\n      dup2\n      mstore\n      0x20\n      add\n      swap1\n      dup2\n      mstore\n      0x20\n      add\n      0x00\n      keccak256\n        /* \"Desktop/crypro_wallet/backend/contracts/Bank.sol\":1651:1686  accounts[account].transaction_count */\n      0x04\n      add\n      0x00\n        /* \"Desktop/crypro_wallet/backend/contracts/Bank.sol\":1651:1691  accounts[account].transaction_count += 1 */\n      dup3\n      dup3\n      sload\n      tag_87\n      swap2\n      swap1\n      tag_81\n      jump\t// in\n    tag_87:\n      swap3\n      pop\n      pop\n      dup2\n      swap1\n      sstore\n      pop\n        /* \"Desktop/crypro_wallet/backend/contracts/Bank.sol\":1738:1739  1 */\n      0x01\n        /* \"Desktop/crypro_wallet/backend/contracts/Bank.sol\":1697:1705  accounts */\n      0x00\n        /* \"Desktop/crypro_wallet/backend/contracts/Bank.sol\":1697:1716  accounts[recipient] */\n      dup1\n        /* \"Desktop/crypro_wallet/backend/contracts/Bank.sol\":1706:1715  recipient */\n      dup5\n        /* \"Desktop/crypro_wallet/backend/contracts/Bank.sol\":1697:1716  accounts[recipient] */\n      dup2\n      mstore\n      0x20\n      add\n      swap1\n      dup2\n      mstore\n      0x20\n      add\n      0x00\n      keccak256\n        /* \"Desktop/crypro_wallet/backend/contracts/Bank.sol\":1697:1734  accounts[recipient].transaction_count */\n      0x04\n      add\n      0x00\n        /* \"Desktop/crypro_wallet/backend/contracts/Bank.sol\":1697:1739  accounts[recipient].transaction_count += 1 */\n      dup3\n      dup3\n      sload\n      tag_88\n      swap2\n      swap1\n      tag_81\n      jump\t// in\n    tag_88:\n      swap3\n      pop\n      pop\n      dup2\n      swap1\n      sstore\n      pop\n        /* \"Desktop/crypro_wallet/backend/contracts/Bank.sol\":1146:1745  function sendMoney(uint account,uint recipient,uint value) public {... */\n      pop\n      pop\n      pop\n      jump\t// out\n        /* \"Desktop/crypro_wallet/backend/contracts/Bank.sol\":1749:2031  function requestMoney(uint account,uint recipient,uint value) public {... */\n    tag_33:\n        /* \"Desktop/crypro_wallet/backend/contracts/Bank.sol\":1862:1863  1 */\n      0x01\n        /* \"Desktop/crypro_wallet/backend/contracts/Bank.sol\":1833:1841  accounts */\n      0x00\n        /* \"Desktop/crypro_wallet/backend/contracts/Bank.sol\":1833:1850  accounts[account] */\n      dup1\n        /* \"Desktop/crypro_wallet/backend/contracts/Bank.sol\":1842:1849  account */\n      dup6\n        /* \"Desktop/crypro_wallet/backend/contracts/Bank.sol\":1833:1850  accounts[account] */\n      dup2\n      mstore\n      0x20\n      add\n      swap1\n      dup2\n      mstore\n      0x20\n      add\n      0x00\n      keccak256\n        /* \"Desktop/crypro_wallet/backend/contracts/Bank.sol\":1833:1858  accounts[account].created */\n      0x02\n      add\n      sload\n        /* \"Desktop/crypro_wallet/backend/contracts/Bank.sol\":1833:1863  accounts[account].created == 1 */\n      eq\n        /* \"Desktop/crypro_wallet/backend/contracts/Bank.sol\":1824:1865  require((accounts[account].created == 1)) */\n      tag_90\n      jumpi\n      0x00\n      dup1\n      revert\n    tag_90:\n        /* \"Desktop/crypro_wallet/backend/contracts/Bank.sol\":1911:1912  1 */\n      0x01\n        /* \"Desktop/crypro_wallet/backend/contracts/Bank.sol\":1880:1888  accounts */\n      0x00\n        /* \"Desktop/crypro_wallet/backend/contracts/Bank.sol\":1880:1899  accounts[recipient] */\n      dup1\n        /* \"Desktop/crypro_wallet/backend/contracts/Bank.sol\":1889:1898  recipient */\n      dup5\n        /* \"Desktop/crypro_wallet/backend/contracts/Bank.sol\":1880:1899  accounts[recipient] */\n      dup2\n      mstore\n      0x20\n      add\n      swap1\n      dup2\n      mstore\n      0x20\n      add\n      0x00\n      keccak256\n        /* \"Desktop/crypro_wallet/backend/contracts/Bank.sol\":1880:1907  accounts[recipient].created */\n      0x02\n      add\n      sload\n        /* \"Desktop/crypro_wallet/backend/contracts/Bank.sol\":1880:1912  accounts[recipient].created == 1 */\n      eq\n        /* \"Desktop/crypro_wallet/backend/contracts/Bank.sol\":1871:1914  require((accounts[recipient].created == 1)) */\n      tag_91\n      jumpi\n      0x00\n      dup1\n      revert\n    tag_91:\n        /* \"Desktop/crypro_wallet/backend/contracts/Bank.sol\":1923:1931  accounts */\n      0x00\n        /* \"Desktop/crypro_wallet/backend/contracts/Bank.sol\":1923:1942  accounts[recipient] */\n      dup1\n        /* \"Desktop/crypro_wallet/backend/contracts/Bank.sol\":1932:1941  recipient */\n      dup4\n        /* \"Desktop/crypro_wallet/backend/contracts/Bank.sol\":1923:1942  accounts[recipient] */\n      dup2\n      mstore\n      0x20\n      add\n      swap1\n      dup2\n      mstore\n      0x20\n      add\n      0x00\n      keccak256\n        /* \"Desktop/crypro_wallet/backend/contracts/Bank.sol\":1923:1951  accounts[recipient].requests */\n      0x05\n      add\n        /* \"Desktop/crypro_wallet/backend/contracts/Bank.sol\":1957:1979  Request(account,value) */\n      mload(0x40)\n      dup1\n      0x40\n      add\n      0x40\n      mstore\n      dup1\n        /* \"Desktop/crypro_wallet/backend/contracts/Bank.sol\":1965:1972  account */\n      dup6\n        /* \"Desktop/crypro_wallet/backend/contracts/Bank.sol\":1957:1979  Request(account,value) */\n      dup2\n      mstore\n      0x20\n      add\n        /* \"Desktop/crypro_wallet/backend/contracts/Bank.sol\":1973:1978  value */\n      dup4\n        /* \"Desktop/crypro_wallet/backend/contracts/Bank.sol\":1957:1979  Request(account,value) */\n      dup2\n      mstore\n      pop\n        /* \"Desktop/crypro_wallet/backend/contracts/Bank.sol\":1923:1980  accounts[recipient].requests.push(Request(account,value)) */\n      swap1\n      dup1\n      0x01\n      dup2\n      sload\n      add\n      dup1\n      dup3\n      sstore\n      dup1\n      swap2\n      pop\n      pop\n      0x01\n      swap1\n      sub\n      swap1\n      0x00\n      mstore\n      keccak256(0x00, 0x20)\n      swap1\n      0x02\n      mul\n      add\n      0x00\n      swap1\n      swap2\n      swap1\n      swap2\n      swap1\n      swap2\n      pop\n      0x00\n      dup3\n      add\n      mload\n      dup2\n      0x00\n      add\n      sstore\n      0x20\n      dup3\n      add\n      mload\n      dup2\n      0x01\n      add\n      sstore\n      pop\n      pop\n        /* \"Desktop/crypro_wallet/backend/contracts/Bank.sol\":2024:2025  1 */\n      0x01\n        /* \"Desktop/crypro_wallet/backend/contracts/Bank.sol\":1987:1995  accounts */\n      0x00\n        /* \"Desktop/crypro_wallet/backend/contracts/Bank.sol\":1987:2006  accounts[recipient] */\n      dup1\n        /* \"Desktop/crypro_wallet/backend/contracts/Bank.sol\":1996:2005  recipient */\n      dup5\n        /* \"Desktop/crypro_wallet/backend/contracts/Bank.sol\":1987:2006  accounts[recipient] */\n      dup2\n      mstore\n      0x20\n      add\n      swap1\n      dup2\n      mstore\n      0x20\n      add\n      0x00\n      keccak256\n        /* \"Desktop/crypro_wallet/backend/contracts/Bank.sol\":1987:2020  accounts[recipient].request_count */\n      0x03\n      add\n      0x00\n        /* \"Desktop/crypro_wallet/backend/contracts/Bank.sol\":1987:2025  accounts[recipient].request_count += 1 */\n      dup3\n      dup3\n      sload\n      tag_93\n      swap2\n      swap1\n      tag_81\n      jump\t// in\n    tag_93:\n      swap3\n      pop\n      pop\n      dup2\n      swap1\n      sstore\n      pop\n        /* \"Desktop/crypro_wallet/backend/contracts/Bank.sol\":1749:2031  function requestMoney(uint account,uint recipient,uint value) public {... */\n      pop\n      pop\n      pop\n      jump\t// out\n        /* \"Desktop/crypro_wallet/backend/contracts/Bank.sol\":2710:2842  function getRequestOwner(uint account,uint index) view public returns (uint){... */\n    tag_36:\n        /* \"Desktop/crypro_wallet/backend/contracts/Bank.sol\":2781:2785  uint */\n      0x00\n        /* \"Desktop/crypro_wallet/backend/contracts/Bank.sol\":2799:2807  accounts */\n      dup1\n        /* \"Desktop/crypro_wallet/backend/contracts/Bank.sol\":2799:2816  accounts[account] */\n      0x00\n        /* \"Desktop/crypro_wallet/backend/contracts/Bank.sol\":2808:2815  account */\n      dup5\n        /* \"Desktop/crypro_wallet/backend/contracts/Bank.sol\":2799:2816  accounts[account] */\n      dup2\n      mstore\n      0x20\n      add\n      swap1\n      dup2\n      mstore\n      0x20\n      add\n      0x00\n      keccak256\n        /* \"Desktop/crypro_wallet/backend/contracts/Bank.sol\":2799:2825  accounts[account].requests */\n      0x05\n      add\n        /* \"Desktop/crypro_wallet/backend/contracts/Bank.sol\":2826:2831  index */\n      dup3\n        /* \"Desktop/crypro_wallet/backend/contracts/Bank.sol\":2799:2832  accounts[account].requests[index] */\n      dup2\n      sload\n      dup2\n      lt\n      tag_95\n      jumpi\n      tag_96\n      tag_71\n      jump\t// in\n    tag_96:\n    tag_95:\n      swap1\n      0x00\n      mstore\n      keccak256(0x00, 0x20)\n      swap1\n      0x02\n      mul\n      add\n        /* \"Desktop/crypro_wallet/backend/contracts/Bank.sol\":2799:2837  accounts[account].requests[index].from */\n      0x00\n      add\n      sload\n        /* \"Desktop/crypro_wallet/backend/contracts/Bank.sol\":2792:2837  return accounts[account].requests[index].from */\n      swap1\n      pop\n        /* \"Desktop/crypro_wallet/backend/contracts/Bank.sol\":2710:2842  function getRequestOwner(uint account,uint index) view public returns (uint){... */\n      swap3\n      swap2\n      pop\n      pop\n      jump\t// out\n        /* \"Desktop/crypro_wallet/backend/contracts/Bank.sol\":2430:2562  function getAmount(uint account,uint index) view public returns (uint){... */\n    tag_40:\n        /* \"Desktop/crypro_wallet/backend/contracts/Bank.sol\":2495:2499  uint */\n      0x00\n        /* \"Desktop/crypro_wallet/backend/contracts/Bank.sol\":2513:2521  accounts */\n      dup1\n        /* \"Desktop/crypro_wallet/backend/contracts/Bank.sol\":2513:2530  accounts[account] */\n      0x00\n        /* \"Desktop/crypro_wallet/backend/contracts/Bank.sol\":2522:2529  account */\n      dup5\n        /* \"Desktop/crypro_wallet/backend/contracts/Bank.sol\":2513:2530  accounts[account] */\n      dup2\n      mstore\n      0x20\n      add\n      swap1\n      dup2\n      mstore\n      0x20\n      add\n      0x00\n      keccak256\n        /* \"Desktop/crypro_wallet/backend/contracts/Bank.sol\":2513:2543  accounts[account].transactions */\n      0x06\n      add\n        /* \"Desktop/crypro_wallet/backend/contracts/Bank.sol\":2544:2549  index */\n      dup3\n        /* \"Desktop/crypro_wallet/backend/contracts/Bank.sol\":2513:2550  accounts[account].transactions[index] */\n      dup2\n      sload\n      dup2\n      lt\n      tag_99\n      jumpi\n      tag_100\n      tag_71\n      jump\t// in\n    tag_100:\n    tag_99:\n      swap1\n      0x00\n      mstore\n      keccak256(0x00, 0x20)\n      swap1\n      0x04\n      mul\n      add\n        /* \"Desktop/crypro_wallet/backend/contracts/Bank.sol\":2513:2557  accounts[account].transactions[index].amount */\n      0x02\n      add\n      sload\n        /* \"Desktop/crypro_wallet/backend/contracts/Bank.sol\":2506:2557  return accounts[account].transactions[index].amount */\n      swap1\n      pop\n        /* \"Desktop/crypro_wallet/backend/contracts/Bank.sol\":2430:2562  function getAmount(uint account,uint index) view public returns (uint){... */\n      swap3\n      swap2\n      pop\n      pop\n      jump\t// out\n        /* \"Desktop/crypro_wallet/backend/contracts/Bank.sol\":2288:2426  function getRecipient(uint account,uint index) view public returns (uint){... */\n    tag_44:\n        /* \"Desktop/crypro_wallet/backend/contracts/Bank.sol\":2356:2360  uint */\n      0x00\n        /* \"Desktop/crypro_wallet/backend/contracts/Bank.sol\":2374:2382  accounts */\n      dup1\n        /* \"Desktop/crypro_wallet/backend/contracts/Bank.sol\":2374:2391  accounts[account] */\n      0x00\n        /* \"Desktop/crypro_wallet/backend/contracts/Bank.sol\":2383:2390  account */\n      dup5\n        /* \"Desktop/crypro_wallet/backend/contracts/Bank.sol\":2374:2391  accounts[account] */\n      dup2\n      mstore\n      0x20\n      add\n      swap1\n      dup2\n      mstore\n      0x20\n      add\n      0x00\n      keccak256\n        /* \"Desktop/crypro_wallet/backend/contracts/Bank.sol\":2374:2404  accounts[account].transactions */\n      0x06\n      add\n        /* \"Desktop/crypro_wallet/backend/contracts/Bank.sol\":2405:2410  index */\n      dup3\n        /* \"Desktop/crypro_wallet/backend/contracts/Bank.sol\":2374:2411  accounts[account].transactions[index] */\n      dup2\n      sload\n      dup2\n      lt\n      tag_103\n      jumpi\n      tag_104\n      tag_71\n      jump\t// in\n    tag_104:\n    tag_103:\n      swap1\n      0x00\n      mstore\n      keccak256(0x00, 0x20)\n      swap1\n      0x04\n      mul\n      add\n        /* \"Desktop/crypro_wallet/backend/contracts/Bank.sol\":2374:2421  accounts[account].transactions[index].recipient */\n      0x01\n      add\n      sload\n        /* \"Desktop/crypro_wallet/backend/contracts/Bank.sol\":2367:2421  return accounts[account].transactions[index].recipient */\n      swap1\n      pop\n        /* \"Desktop/crypro_wallet/backend/contracts/Bank.sol\":2288:2426  function getRecipient(uint account,uint index) view public returns (uint){... */\n      swap3\n      swap2\n      pop\n      pop\n      jump\t// out\n        /* \"Desktop/crypro_wallet/backend/contracts/Bank.sol\":477:856  function loginAuthenticate(uint account,string memory password) view public returns (string memory) {... */\n    tag_49:\n        /* \"Desktop/crypro_wallet/backend/contracts/Bank.sol\":562:575  string memory */\n      0x60\n        /* \"Desktop/crypro_wallet/backend/contracts/Bank.sol\":616:617  0 */\n      0x00\n        /* \"Desktop/crypro_wallet/backend/contracts/Bank.sol\":587:595  accounts */\n      dup1\n        /* \"Desktop/crypro_wallet/backend/contracts/Bank.sol\":587:604  accounts[account] */\n      0x00\n        /* \"Desktop/crypro_wallet/backend/contracts/Bank.sol\":596:603  account */\n      dup6\n        /* \"Desktop/crypro_wallet/backend/contracts/Bank.sol\":587:604  accounts[account] */\n      dup2\n      mstore\n      0x20\n      add\n      swap1\n      dup2\n      mstore\n      0x20\n      add\n      0x00\n      keccak256\n        /* \"Desktop/crypro_wallet/backend/contracts/Bank.sol\":587:612  accounts[account].created */\n      0x02\n      add\n      sload\n        /* \"Desktop/crypro_wallet/backend/contracts/Bank.sol\":587:617  accounts[account].created == 0 */\n      sub\n        /* \"Desktop/crypro_wallet/backend/contracts/Bank.sol\":584:643  if(accounts[account].created == 0){... */\n      tag_107\n      jumpi\n        /* \"Desktop/crypro_wallet/backend/contracts/Bank.sol\":626:636  return \"0\" */\n      mload(0x40)\n      dup1\n      0x40\n      add\n      0x40\n      mstore\n      dup1\n      0x01\n      dup2\n      mstore\n      0x20\n      add\n      0x3000000000000000000000000000000000000000000000000000000000000000\n      dup2\n      mstore\n      pop\n      swap1\n      pop\n      jump(tag_106)\n        /* \"Desktop/crypro_wallet/backend/contracts/Bank.sol\":584:643  if(accounts[account].created == 0){... */\n    tag_107:\n        /* \"Desktop/crypro_wallet/backend/contracts/Bank.sol\":649:664  string memory a */\n      0x00\n        /* \"Desktop/crypro_wallet/backend/contracts/Bank.sol\":667:675  accounts */\n      dup1\n        /* \"Desktop/crypro_wallet/backend/contracts/Bank.sol\":667:684  accounts[account] */\n      0x00\n        /* \"Desktop/crypro_wallet/backend/contracts/Bank.sol\":676:683  account */\n      dup6\n        /* \"Desktop/crypro_wallet/backend/contracts/Bank.sol\":667:684  accounts[account] */\n      dup2\n      mstore\n      0x20\n      add\n      swap1\n      dup2\n      mstore\n      0x20\n      add\n      0x00\n      keccak256\n        /* \"Desktop/crypro_wallet/backend/contracts/Bank.sol\":667:693  accounts[account].password */\n      0x00\n      add\n        /* \"Desktop/crypro_wallet/backend/contracts/Bank.sol\":649:693  string memory a = accounts[account].password */\n      dup1\n      sload\n      tag_108\n      swap1\n      tag_109\n      jump\t// in\n    tag_108:\n      dup1\n      0x1f\n      add\n      0x20\n      dup1\n      swap2\n      div\n      mul\n      0x20\n      add\n      mload(0x40)\n      swap1\n      dup2\n      add\n      0x40\n      mstore\n      dup1\n      swap3\n      swap2\n      swap1\n      dup2\n      dup2\n      mstore\n      0x20\n      add\n      dup3\n      dup1\n      sload\n      tag_110\n      swap1\n      tag_109\n      jump\t// in\n    tag_110:\n      dup1\n      iszero\n      tag_111\n      jumpi\n      dup1\n      0x1f\n      lt\n      tag_112\n      jumpi\n      0x0100\n      dup1\n      dup4\n      sload\n      div\n      mul\n      dup4\n      mstore\n      swap2\n      0x20\n      add\n      swap2\n      jump(tag_111)\n    tag_112:\n      dup3\n      add\n      swap2\n      swap1\n      0x00\n      mstore\n      keccak256(0x00, 0x20)\n      swap1\n    tag_113:\n      dup2\n      sload\n      dup2\n      mstore\n      swap1\n      0x01\n      add\n      swap1\n      0x20\n      add\n      dup1\n      dup4\n      gt\n      tag_113\n      jumpi\n      dup3\n      swap1\n      sub\n      0x1f\n      and\n      dup3\n      add\n      swap2\n    tag_111:\n      pop\n      pop\n      pop\n      pop\n      pop\n      swap1\n      pop\n        /* \"Desktop/crypro_wallet/backend/contracts/Bank.sol\":699:714  string memory b */\n      0x00\n        /* \"Desktop/crypro_wallet/backend/contracts/Bank.sol\":717:725  password */\n      dup4\n        /* \"Desktop/crypro_wallet/backend/contracts/Bank.sol\":699:725  string memory b = password */\n      swap1\n      pop\n        /* \"Desktop/crypro_wallet/backend/contracts/Bank.sol\":731:750  string memory check */\n      0x00\n        /* \"Desktop/crypro_wallet/backend/contracts/Bank.sol\":731:756  string memory check = \"0\" */\n      mload(0x40)\n      dup1\n      0x40\n      add\n      0x40\n      mstore\n      dup1\n      0x01\n      dup2\n      mstore\n      0x20\n      add\n      0x3000000000000000000000000000000000000000000000000000000000000000\n      dup2\n      mstore\n      pop\n      swap1\n      pop\n        /* \"Desktop/crypro_wallet/backend/contracts/Bank.sol\":804:805  b */\n      dup2\n        /* \"Desktop/crypro_wallet/backend/contracts/Bank.sol\":788:807  keccak256(bytes(b)) */\n      dup1\n      mload\n      swap1\n      0x20\n      add\n      keccak256\n        /* \"Desktop/crypro_wallet/backend/contracts/Bank.sol\":781:782  a */\n      dup4\n        /* \"Desktop/crypro_wallet/backend/contracts/Bank.sol\":765:784  keccak256(bytes(a)) */\n      dup1\n      mload\n      swap1\n      0x20\n      add\n      keccak256\n        /* \"Desktop/crypro_wallet/backend/contracts/Bank.sol\":765:807  keccak256(bytes(a)) == keccak256(bytes(b)) */\n      sub\n        /* \"Desktop/crypro_wallet/backend/contracts/Bank.sol\":762:834  if(keccak256(bytes(a)) == keccak256(bytes(b))){... */\n      tag_114\n      jumpi\n        /* \"Desktop/crypro_wallet/backend/contracts/Bank.sol\":816:827  check = \"1\" */\n      mload(0x40)\n      dup1\n      0x40\n      add\n      0x40\n      mstore\n      dup1\n      0x01\n      dup2\n      mstore\n      0x20\n      add\n      0x3100000000000000000000000000000000000000000000000000000000000000\n      dup2\n      mstore\n      pop\n      swap1\n      pop\n        /* \"Desktop/crypro_wallet/backend/contracts/Bank.sol\":762:834  if(keccak256(bytes(a)) == keccak256(bytes(b))){... */\n    tag_114:\n        /* \"Desktop/crypro_wallet/backend/contracts/Bank.sol\":846:851  check */\n      dup1\n        /* \"Desktop/crypro_wallet/backend/contracts/Bank.sol\":839:851  return check */\n      swap4\n      pop\n      pop\n      pop\n      pop\n        /* \"Desktop/crypro_wallet/backend/contracts/Bank.sol\":477:856  function loginAuthenticate(uint account,string memory password) view public returns (string memory) {... */\n    tag_106:\n      swap3\n      swap2\n      pop\n      pop\n      jump\t// out\n        /* \"Desktop/crypro_wallet/backend/contracts/Bank.sol\":860:1142  function newUser(uint account,string memory password)  public {... */\n    tag_54:\n        /* \"Desktop/crypro_wallet/backend/contracts/Bank.sol\":960:961  1 */\n      0x01\n        /* \"Desktop/crypro_wallet/backend/contracts/Bank.sol\":931:939  accounts */\n      0x00\n        /* \"Desktop/crypro_wallet/backend/contracts/Bank.sol\":931:948  accounts[account] */\n      dup1\n        /* \"Desktop/crypro_wallet/backend/contracts/Bank.sol\":940:947  account */\n      dup5\n        /* \"Desktop/crypro_wallet/backend/contracts/Bank.sol\":931:948  accounts[account] */\n      dup2\n      mstore\n      0x20\n      add\n      swap1\n      dup2\n      mstore\n      0x20\n      add\n      0x00\n      keccak256\n        /* \"Desktop/crypro_wallet/backend/contracts/Bank.sol\":931:956  accounts[account].created */\n      0x02\n      add\n      sload\n        /* \"Desktop/crypro_wallet/backend/contracts/Bank.sol\":931:961  accounts[account].created == 1 */\n      sub\n        /* \"Desktop/crypro_wallet/backend/contracts/Bank.sol\":928:1009  if(accounts[account].created == 1){... */\n      tag_116\n      jumpi\n        /* \"Desktop/crypro_wallet/backend/contracts/Bank.sol\":970:1002  revert('Account Already Exists') */\n      mload(0x40)\n      0x08c379a000000000000000000000000000000000000000000000000000000000\n      dup2\n      mstore\n      0x04\n      add\n      tag_117\n      swap1\n      tag_118\n      jump\t// in\n    tag_117:\n      mload(0x40)\n      dup1\n      swap2\n      sub\n      swap1\n      revert\n        /* \"Desktop/crypro_wallet/backend/contracts/Bank.sol\":928:1009  if(accounts[account].created == 1){... */\n    tag_116:\n        /* \"Desktop/crypro_wallet/backend/contracts/Bank.sol\":1048:1056  password */\n      dup1\n        /* \"Desktop/crypro_wallet/backend/contracts/Bank.sol\":1019:1027  accounts */\n      0x00\n        /* \"Desktop/crypro_wallet/backend/contracts/Bank.sol\":1019:1036  accounts[account] */\n      dup1\n        /* \"Desktop/crypro_wallet/backend/contracts/Bank.sol\":1028:1035  account */\n      dup5\n        /* \"Desktop/crypro_wallet/backend/contracts/Bank.sol\":1019:1036  accounts[account] */\n      dup2\n      mstore\n      0x20\n      add\n      swap1\n      dup2\n      mstore\n      0x20\n      add\n      0x00\n      keccak256\n        /* \"Desktop/crypro_wallet/backend/contracts/Bank.sol\":1019:1045  accounts[account].password */\n      0x00\n      add\n        /* \"Desktop/crypro_wallet/backend/contracts/Bank.sol\":1019:1056  accounts[account].password = password */\n      swap1\n      dup2\n      tag_119\n      swap2\n      swap1\n      tag_84\n      jump\t// in\n    tag_119:\n      pop\n        /* \"Desktop/crypro_wallet/backend/contracts/Bank.sol\":1098:1101  100 */\n      0x64\n        /* \"Desktop/crypro_wallet/backend/contracts/Bank.sol\":1062:1070  accounts */\n      0x00\n        /* \"Desktop/crypro_wallet/backend/contracts/Bank.sol\":1062:1079  accounts[account] */\n      dup1\n        /* \"Desktop/crypro_wallet/backend/contracts/Bank.sol\":1071:1078  account */\n      dup5\n        /* \"Desktop/crypro_wallet/backend/contracts/Bank.sol\":1062:1079  accounts[account] */\n      dup2\n      mstore\n      0x20\n      add\n      swap1\n      dup2\n      mstore\n      0x20\n      add\n      0x00\n      keccak256\n        /* \"Desktop/crypro_wallet/backend/contracts/Bank.sol\":1062:1095  accounts[account].account_balance */\n      0x01\n      add\n        /* \"Desktop/crypro_wallet/backend/contracts/Bank.sol\":1062:1101  accounts[account].account_balance = 100 */\n      dup2\n      swap1\n      sstore\n      pop\n        /* \"Desktop/crypro_wallet/backend/contracts/Bank.sol\":1135:1136  1 */\n      0x01\n        /* \"Desktop/crypro_wallet/backend/contracts/Bank.sol\":1107:1115  accounts */\n      0x00\n        /* \"Desktop/crypro_wallet/backend/contracts/Bank.sol\":1107:1124  accounts[account] */\n      dup1\n        /* \"Desktop/crypro_wallet/backend/contracts/Bank.sol\":1116:1123  account */\n      dup5\n        /* \"Desktop/crypro_wallet/backend/contracts/Bank.sol\":1107:1124  accounts[account] */\n      dup2\n      mstore\n      0x20\n      add\n      swap1\n      dup2\n      mstore\n      0x20\n      add\n      0x00\n      keccak256\n        /* \"Desktop/crypro_wallet/backend/contracts/Bank.sol\":1107:1132  accounts[account].created */\n      0x02\n      add\n        /* \"Desktop/crypro_wallet/backend/contracts/Bank.sol\":1107:1136  accounts[account].created = 1 */\n      dup2\n      swap1\n      sstore\n      pop\n        /* \"Desktop/crypro_wallet/backend/contracts/Bank.sol\":860:1142  function newUser(uint account,string memory password)  public {... */\n      pop\n      pop\n      jump\t// out\n        /* \"Desktop/crypro_wallet/backend/contracts/Bank.sol\":2566:2703  function getRole(uint account,uint index) view public returns (string memory){... */\n    tag_57:\n        /* \"Desktop/crypro_wallet/backend/contracts/Bank.sol\":2629:2642  string memory */\n      0x60\n        /* \"Desktop/crypro_wallet/backend/contracts/Bank.sol\":2656:2664  accounts */\n      0x00\n        /* \"Desktop/crypro_wallet/backend/contracts/Bank.sol\":2656:2673  accounts[account] */\n      dup1\n        /* \"Desktop/crypro_wallet/backend/contracts/Bank.sol\":2665:2672  account */\n      dup5\n        /* \"Desktop/crypro_wallet/backend/contracts/Bank.sol\":2656:2673  accounts[account] */\n      dup2\n      mstore\n      0x20\n      add\n      swap1\n      dup2\n      mstore\n      0x20\n      add\n      0x00\n      keccak256\n        /* \"Desktop/crypro_wallet/backend/contracts/Bank.sol\":2656:2686  accounts[account].transactions */\n      0x06\n      add\n        /* \"Desktop/crypro_wallet/backend/contracts/Bank.sol\":2687:2692  index */\n      dup3\n        /* \"Desktop/crypro_wallet/backend/contracts/Bank.sol\":2656:2693  accounts[account].transactions[index] */\n      dup2\n      sload\n      dup2\n      lt\n      tag_121\n      jumpi\n      tag_122\n      tag_71\n      jump\t// in\n    tag_122:\n    tag_121:\n      swap1\n      0x00\n      mstore\n      keccak256(0x00, 0x20)\n      swap1\n      0x04\n      mul\n      add\n        /* \"Desktop/crypro_wallet/backend/contracts/Bank.sol\":2656:2698  accounts[account].transactions[index].role */\n      0x03\n      add\n        /* \"Desktop/crypro_wallet/backend/contracts/Bank.sol\":2649:2698  return accounts[account].transactions[index].role */\n      dup1\n      sload\n      tag_124\n      swap1\n      tag_109\n      jump\t// in\n    tag_124:\n      dup1\n      0x1f\n      add\n      0x20\n      dup1\n      swap2\n      div\n      mul\n      0x20\n      add\n      mload(0x40)\n      swap1\n      dup2\n      add\n      0x40\n      mstore\n      dup1\n      swap3\n      swap2\n      swap1\n      dup2\n      dup2\n      mstore\n      0x20\n      add\n      dup3\n      dup1\n      sload\n      tag_125\n      swap1\n      tag_109\n      jump\t// in\n    tag_125:\n      dup1\n      iszero\n      tag_126\n      jumpi\n      dup1\n      0x1f\n      lt\n      tag_127\n      jumpi\n      0x0100\n      dup1\n      dup4\n      sload\n      div\n      mul\n      dup4\n      mstore\n      swap2\n      0x20\n      add\n      swap2\n      jump(tag_126)\n    tag_127:\n      dup3\n      add\n      swap2\n      swap1\n      0x00\n      mstore\n      keccak256(0x00, 0x20)\n      swap1\n    tag_128:\n      dup2\n      sload\n      dup2\n      mstore\n      swap1\n      0x01\n      add\n      swap1\n      0x20\n      add\n      dup1\n      dup4\n      gt\n      tag_128\n      jumpi\n      dup3\n      swap1\n      sub\n      0x1f\n      and\n      dup3\n      add\n      swap2\n    tag_126:\n      pop\n      pop\n      pop\n      pop\n      pop\n      swap1\n      pop\n        /* \"Desktop/crypro_wallet/backend/contracts/Bank.sol\":2566:2703  function getRole(uint account,uint index) view public returns (string memory){... */\n      swap3\n      swap2\n      pop\n      pop\n      jump\t// out\n        /* \"Desktop/crypro_wallet/backend/contracts/Bank.sol\":2152:2284  function getSender(uint account,uint index) view public returns (uint){... */\n    tag_61:\n        /* \"Desktop/crypro_wallet/backend/contracts/Bank.sol\":2217:2221  uint */\n      0x00\n        /* \"Desktop/crypro_wallet/backend/contracts/Bank.sol\":2235:2243  accounts */\n      dup1\n        /* \"Desktop/crypro_wallet/backend/contracts/Bank.sol\":2235:2252  accounts[account] */\n      0x00\n        /* \"Desktop/crypro_wallet/backend/contracts/Bank.sol\":2244:2251  account */\n      dup5\n        /* \"Desktop/crypro_wallet/backend/contracts/Bank.sol\":2235:2252  accounts[account] */\n      dup2\n      mstore\n      0x20\n      add\n      swap1\n      dup2\n      mstore\n      0x20\n      add\n      0x00\n      keccak256\n        /* \"Desktop/crypro_wallet/backend/contracts/Bank.sol\":2235:2265  accounts[account].transactions */\n      0x06\n      add\n        /* \"Desktop/crypro_wallet/backend/contracts/Bank.sol\":2266:2271  index */\n      dup3\n        /* \"Desktop/crypro_wallet/backend/contracts/Bank.sol\":2235:2272  accounts[account].transactions[index] */\n      dup2\n      sload\n      dup2\n      lt\n      tag_130\n      jumpi\n      tag_131\n      tag_71\n      jump\t// in\n    tag_131:\n    tag_130:\n      swap1\n      0x00\n      mstore\n      keccak256(0x00, 0x20)\n      swap1\n      0x04\n      mul\n      add\n        /* \"Desktop/crypro_wallet/backend/contracts/Bank.sol\":2235:2279  accounts[account].transactions[index].sender */\n      0x00\n      add\n      sload\n        /* \"Desktop/crypro_wallet/backend/contracts/Bank.sol\":2228:2279  return accounts[account].transactions[index].sender */\n      swap1\n      pop\n        /* \"Desktop/crypro_wallet/backend/contracts/Bank.sol\":2152:2284  function getSender(uint account,uint index) view public returns (uint){... */\n      swap3\n      swap2\n      pop\n      pop\n      jump\t// out\n        /* \"Desktop/crypro_wallet/backend/contracts/Bank.sol\":436:473  mapping(uint => User) public accounts */\n    tag_65:\n      mstore(0x20, 0x00)\n      dup1\n      0x00\n      mstore\n      keccak256(0x00, 0x40)\n      0x00\n      swap2\n      pop\n      swap1\n      pop\n      dup1\n      0x00\n      add\n      dup1\n      sload\n      tag_133\n      swap1\n      tag_109\n      jump\t// in\n    tag_133:\n      dup1\n      0x1f\n      add\n      0x20\n      dup1\n      swap2\n      div\n      mul\n      0x20\n      add\n      mload(0x40)\n      swap1\n      dup2\n      add\n      0x40\n      mstore\n      dup1\n      swap3\n      swap2\n      swap1\n      dup2\n      dup2\n      mstore\n      0x20\n      add\n      dup3\n      dup1\n      sload\n      tag_134\n      swap1\n      tag_109\n      jump\t// in\n    tag_134:\n      dup1\n      iszero\n      tag_135\n      jumpi\n      dup1\n      0x1f\n      lt\n      tag_136\n      jumpi\n      0x0100\n      dup1\n      dup4\n      sload\n      div\n      mul\n      dup4\n      mstore\n      swap2\n      0x20\n      add\n      swap2\n      jump(tag_135)\n    tag_136:\n      dup3\n      add\n      swap2\n      swap1\n      0x00\n      mstore\n      keccak256(0x00, 0x20)\n      swap1\n    tag_137:\n      dup2\n      sload\n      dup2\n      mstore\n      swap1\n      0x01\n      add\n      swap1\n      0x20\n      add\n      dup1\n      dup4\n      gt\n      tag_137\n      jumpi\n      dup3\n      swap1\n      sub\n      0x1f\n      and\n      dup3\n      add\n      swap2\n    tag_135:\n      pop\n      pop\n      pop\n      pop\n      pop\n      swap1\n      dup1\n      0x01\n      add\n      sload\n      swap1\n      dup1\n      0x02\n      add\n      sload\n      swap1\n      dup1\n      0x03\n      add\n      sload\n      swap1\n      dup1\n      0x04\n      add\n      sload\n      swap1\n      pop\n      dup6\n      jump\t// out\n        /* \"#utility.yul\":7:82   */\n    tag_138:\n        /* \"#utility.yul\":40:46   */\n      0x00\n        /* \"#utility.yul\":73:75   */\n      0x40\n        /* \"#utility.yul\":67:76   */\n      mload\n        /* \"#utility.yul\":57:76   */\n      swap1\n      pop\n        /* \"#utility.yul\":7:82   */\n      swap1\n      jump\t// out\n        /* \"#utility.yul\":88:205   */\n    tag_139:\n        /* \"#utility.yul\":197:198   */\n      0x00\n        /* \"#utility.yul\":194:195   */\n      dup1\n        /* \"#utility.yul\":187:199   */\n      revert\n        /* \"#utility.yul\":211:328   */\n    tag_140:\n        /* \"#utility.yul\":320:321   */\n      0x00\n        /* \"#utility.yul\":317:318   */\n      dup1\n        /* \"#utility.yul\":310:322   */\n      revert\n        /* \"#utility.yul\":334:411   */\n    tag_141:\n        /* \"#utility.yul\":371:378   */\n      0x00\n        /* \"#utility.yul\":400:405   */\n      dup2\n        /* \"#utility.yul\":389:405   */\n      swap1\n      pop\n        /* \"#utility.yul\":334:411   */\n      swap2\n      swap1\n      pop\n      jump\t// out\n        /* \"#utility.yul\":417:539   */\n    tag_142:\n        /* \"#utility.yul\":490:514   */\n      tag_184\n        /* \"#utility.yul\":508:513   */\n      dup2\n        /* \"#utility.yul\":490:514   */\n      tag_141\n      jump\t// in\n    tag_184:\n        /* \"#utility.yul\":483:488   */\n      dup2\n        /* \"#utility.yul\":480:515   */\n      eq\n        /* \"#utility.yul\":470:533   */\n      tag_185\n      jumpi\n        /* \"#utility.yul\":529:530   */\n      0x00\n        /* \"#utility.yul\":526:527   */\n      dup1\n        /* \"#utility.yul\":519:531   */\n      revert\n        /* \"#utility.yul\":470:533   */\n    tag_185:\n        /* \"#utility.yul\":417:539   */\n      pop\n      jump\t// out\n        /* \"#utility.yul\":545:684   */\n    tag_143:\n        /* \"#utility.yul\":591:596   */\n      0x00\n        /* \"#utility.yul\":629:635   */\n      dup2\n        /* \"#utility.yul\":616:636   */\n      calldataload\n        /* \"#utility.yul\":607:636   */\n      swap1\n      pop\n        /* \"#utility.yul\":645:678   */\n      tag_187\n        /* \"#utility.yul\":672:677   */\n      dup2\n        /* \"#utility.yul\":645:678   */\n      tag_142\n      jump\t// in\n    tag_187:\n        /* \"#utility.yul\":545:684   */\n      swap3\n      swap2\n      pop\n      pop\n      jump\t// out\n        /* \"#utility.yul\":690:1164   */\n    tag_18:\n        /* \"#utility.yul\":758:764   */\n      0x00\n        /* \"#utility.yul\":766:772   */\n      dup1\n        /* \"#utility.yul\":815:817   */\n      0x40\n        /* \"#utility.yul\":803:812   */\n      dup4\n        /* \"#utility.yul\":794:801   */\n      dup6\n        /* \"#utility.yul\":790:813   */\n      sub\n        /* \"#utility.yul\":786:818   */\n      slt\n        /* \"#utility.yul\":783:902   */\n      iszero\n      tag_189\n      jumpi\n        /* \"#utility.yul\":821:900   */\n      tag_190\n      tag_139\n      jump\t// in\n    tag_190:\n        /* \"#utility.yul\":783:902   */\n    tag_189:\n        /* \"#utility.yul\":941:942   */\n      0x00\n        /* \"#utility.yul\":966:1019   */\n      tag_191\n        /* \"#utility.yul\":1011:1018   */\n      dup6\n        /* \"#utility.yul\":1002:1008   */\n      dup3\n        /* \"#utility.yul\":991:1000   */\n      dup7\n        /* \"#utility.yul\":987:1009   */\n      add\n        /* \"#utility.yul\":966:1019   */\n      tag_143\n      jump\t// in\n    tag_191:\n        /* \"#utility.yul\":956:1019   */\n      swap3\n      pop\n        /* \"#utility.yul\":912:1029   */\n      pop\n        /* \"#utility.yul\":1068:1070   */\n      0x20\n        /* \"#utility.yul\":1094:1147   */\n      tag_192\n        /* \"#utility.yul\":1139:1146   */\n      dup6\n        /* \"#utility.yul\":1130:1136   */\n      dup3\n        /* \"#utility.yul\":1119:1128   */\n      dup7\n        /* \"#utility.yul\":1115:1137   */\n      add\n        /* \"#utility.yul\":1094:1147   */\n      tag_143\n      jump\t// in\n    tag_192:\n        /* \"#utility.yul\":1084:1147   */\n      swap2\n      pop\n        /* \"#utility.yul\":1039:1157   */\n      pop\n        /* \"#utility.yul\":690:1164   */\n      swap3\n      pop\n      swap3\n      swap1\n      pop\n      jump\t// out\n        /* \"#utility.yul\":1170:1288   */\n    tag_144:\n        /* \"#utility.yul\":1257:1281   */\n      tag_194\n        /* \"#utility.yul\":1275:1280   */\n      dup2\n        /* \"#utility.yul\":1257:1281   */\n      tag_141\n      jump\t// in\n    tag_194:\n        /* \"#utility.yul\":1252:1255   */\n      dup3\n        /* \"#utility.yul\":1245:1282   */\n      mstore\n        /* \"#utility.yul\":1170:1288   */\n      pop\n      pop\n      jump\t// out\n        /* \"#utility.yul\":1294:1516   */\n    tag_21:\n        /* \"#utility.yul\":1387:1391   */\n      0x00\n        /* \"#utility.yul\":1425:1427   */\n      0x20\n        /* \"#utility.yul\":1414:1423   */\n      dup3\n        /* \"#utility.yul\":1410:1428   */\n      add\n        /* \"#utility.yul\":1402:1428   */\n      swap1\n      pop\n        /* \"#utility.yul\":1438:1509   */\n      tag_196\n        /* \"#utility.yul\":1506:1507   */\n      0x00\n        /* \"#utility.yul\":1495:1504   */\n      dup4\n        /* \"#utility.yul\":1491:1508   */\n      add\n        /* \"#utility.yul\":1482:1488   */\n      dup5\n        /* \"#utility.yul\":1438:1509   */\n      tag_144\n      jump\t// in\n    tag_196:\n        /* \"#utility.yul\":1294:1516   */\n      swap3\n      swap2\n      pop\n      pop\n      jump\t// out\n        /* \"#utility.yul\":1522:1851   */\n    tag_24:\n        /* \"#utility.yul\":1581:1587   */\n      0x00\n        /* \"#utility.yul\":1630:1632   */\n      0x20\n        /* \"#utility.yul\":1618:1627   */\n      dup3\n        /* \"#utility.yul\":1609:1616   */\n      dup5\n        /* \"#utility.yul\":1605:1628   */\n      sub\n        /* \"#utility.yul\":1601:1633   */\n      slt\n        /* \"#utility.yul\":1598:1717   */\n      iszero\n      tag_198\n      jumpi\n        /* \"#utility.yul\":1636:1715   */\n      tag_199\n      tag_139\n      jump\t// in\n    tag_199:\n        /* \"#utility.yul\":1598:1717   */\n    tag_198:\n        /* \"#utility.yul\":1756:1757   */\n      0x00\n        /* \"#utility.yul\":1781:1834   */\n      tag_200\n        /* \"#utility.yul\":1826:1833   */\n      dup5\n        /* \"#utility.yul\":1817:1823   */\n      dup3\n        /* \"#utility.yul\":1806:1815   */\n      dup6\n        /* \"#utility.yul\":1802:1824   */\n      add\n        /* \"#utility.yul\":1781:1834   */\n      tag_143\n      jump\t// in\n    tag_200:\n        /* \"#utility.yul\":1771:1834   */\n      swap2\n      pop\n        /* \"#utility.yul\":1727:1844   */\n      pop\n        /* \"#utility.yul\":1522:1851   */\n      swap3\n      swap2\n      pop\n      pop\n      jump\t// out\n        /* \"#utility.yul\":1857:2476   */\n    tag_29:\n        /* \"#utility.yul\":1934:1940   */\n      0x00\n        /* \"#utility.yul\":1942:1948   */\n      dup1\n        /* \"#utility.yul\":1950:1956   */\n      0x00\n        /* \"#utility.yul\":1999:2001   */\n      0x60\n        /* \"#utility.yul\":1987:1996   */\n      dup5\n        /* \"#utility.yul\":1978:1985   */\n      dup7\n        /* \"#utility.yul\":1974:1997   */\n      sub\n        /* \"#utility.yul\":1970:2002   */\n      slt\n        /* \"#utility.yul\":1967:2086   */\n      iszero\n      tag_202\n      jumpi\n        /* \"#utility.yul\":2005:2084   */\n      tag_203\n      tag_139\n      jump\t// in\n    tag_203:\n        /* \"#utility.yul\":1967:2086   */\n    tag_202:\n        /* \"#utility.yul\":2125:2126   */\n      0x00\n        /* \"#utility.yul\":2150:2203   */\n      tag_204\n        /* \"#utility.yul\":2195:2202   */\n      dup7\n        /* \"#utility.yul\":2186:2192   */\n      dup3\n        /* \"#utility.yul\":2175:2184   */\n      dup8\n        /* \"#utility.yul\":2171:2193   */\n      add\n        /* \"#utility.yul\":2150:2203   */\n      tag_143\n      jump\t// in\n    tag_204:\n        /* \"#utility.yul\":2140:2203   */\n      swap4\n      pop\n        /* \"#utility.yul\":2096:2213   */\n      pop\n        /* \"#utility.yul\":2252:2254   */\n      0x20\n        /* \"#utility.yul\":2278:2331   */\n      tag_205\n        /* \"#utility.yul\":2323:2330   */\n      dup7\n        /* \"#utility.yul\":2314:2320   */\n      dup3\n        /* \"#utility.yul\":2303:2312   */\n      dup8\n        /* \"#utility.yul\":2299:2321   */\n      add\n        /* \"#utility.yul\":2278:2331   */\n      tag_143\n      jump\t// in\n    tag_205:\n        /* \"#utility.yul\":2268:2331   */\n      swap3\n      pop\n        /* \"#utility.yul\":2223:2341   */\n      pop\n        /* \"#utility.yul\":2380:2382   */\n      0x40\n        /* \"#utility.yul\":2406:2459   */\n      tag_206\n        /* \"#utility.yul\":2451:2458   */\n      dup7\n        /* \"#utility.yul\":2442:2448   */\n      dup3\n        /* \"#utility.yul\":2431:2440   */\n      dup8\n        /* \"#utility.yul\":2427:2449   */\n      add\n        /* \"#utility.yul\":2406:2459   */\n      tag_143\n      jump\t// in\n    tag_206:\n        /* \"#utility.yul\":2396:2459   */\n      swap2\n      pop\n        /* \"#utility.yul\":2351:2469   */\n      pop\n        /* \"#utility.yul\":1857:2476   */\n      swap3\n      pop\n      swap3\n      pop\n      swap3\n      jump\t// out\n        /* \"#utility.yul\":2482:2599   */\n    tag_145:\n        /* \"#utility.yul\":2591:2592   */\n      0x00\n        /* \"#utility.yul\":2588:2589   */\n      dup1\n        /* \"#utility.yul\":2581:2593   */\n      revert\n        /* \"#utility.yul\":2605:2722   */\n    tag_146:\n        /* \"#utility.yul\":2714:2715   */\n      0x00\n        /* \"#utility.yul\":2711:2712   */\n      dup1\n        /* \"#utility.yul\":2704:2716   */\n      revert\n        /* \"#utility.yul\":2728:2830   */\n    tag_147:\n        /* \"#utility.yul\":2769:2775   */\n      0x00\n        /* \"#utility.yul\":2820:2822   */\n      0x1f\n        /* \"#utility.yul\":2816:2823   */\n      not\n        /* \"#utility.yul\":2811:2813   */\n      0x1f\n        /* \"#utility.yul\":2804:2809   */\n      dup4\n        /* \"#utility.yul\":2800:2814   */\n      add\n        /* \"#utility.yul\":2796:2824   */\n      and\n        /* \"#utility.yul\":2786:2824   */\n      swap1\n      pop\n        /* \"#utility.yul\":2728:2830   */\n      swap2\n      swap1\n      pop\n      jump\t// out\n        /* \"#utility.yul\":2836:3016   */\n    tag_148:\n        /* \"#utility.yul\":2884:2961   */\n      0x4e487b7100000000000000000000000000000000000000000000000000000000\n        /* \"#utility.yul\":2881:2882   */\n      0x00\n        /* \"#utility.yul\":2874:2962   */\n      mstore\n        /* \"#utility.yul\":2981:2985   */\n      0x41\n        /* \"#utility.yul\":2978:2979   */\n      0x04\n        /* \"#utility.yul\":2971:2986   */\n      mstore\n        /* \"#utility.yul\":3005:3009   */\n      0x24\n        /* \"#utility.yul\":3002:3003   */\n      0x00\n        /* \"#utility.yul\":2995:3010   */\n      revert\n        /* \"#utility.yul\":3022:3303   */\n    tag_149:\n        /* \"#utility.yul\":3105:3132   */\n      tag_212\n        /* \"#utility.yul\":3127:3131   */\n      dup3\n        /* \"#utility.yul\":3105:3132   */\n      tag_147\n      jump\t// in\n    tag_212:\n        /* \"#utility.yul\":3097:3103   */\n      dup2\n        /* \"#utility.yul\":3093:3133   */\n      add\n        /* \"#utility.yul\":3235:3241   */\n      dup2\n        /* \"#utility.yul\":3223:3233   */\n      dup2\n        /* \"#utility.yul\":3220:3242   */\n      lt\n        /* \"#utility.yul\":3199:3217   */\n      0xffffffffffffffff\n        /* \"#utility.yul\":3187:3197   */\n      dup3\n        /* \"#utility.yul\":3184:3218   */\n      gt\n        /* \"#utility.yul\":3181:3243   */\n      or\n        /* \"#utility.yul\":3178:3266   */\n      iszero\n      tag_213\n      jumpi\n        /* \"#utility.yul\":3246:3264   */\n      tag_214\n      tag_148\n      jump\t// in\n    tag_214:\n        /* \"#utility.yul\":3178:3266   */\n    tag_213:\n        /* \"#utility.yul\":3286:3296   */\n      dup1\n        /* \"#utility.yul\":3282:3284   */\n      0x40\n        /* \"#utility.yul\":3275:3297   */\n      mstore\n        /* \"#utility.yul\":3065:3303   */\n      pop\n        /* \"#utility.yul\":3022:3303   */\n      pop\n      pop\n      jump\t// out\n        /* \"#utility.yul\":3309:3438   */\n    tag_150:\n        /* \"#utility.yul\":3343:3349   */\n      0x00\n        /* \"#utility.yul\":3370:3390   */\n      tag_216\n      tag_138\n      jump\t// in\n    tag_216:\n        /* \"#utility.yul\":3360:3390   */\n      swap1\n      pop\n        /* \"#utility.yul\":3399:3432   */\n      tag_217\n        /* \"#utility.yul\":3427:3431   */\n      dup3\n        /* \"#utility.yul\":3419:3425   */\n      dup3\n        /* \"#utility.yul\":3399:3432   */\n      tag_149\n      jump\t// in\n    tag_217:\n        /* \"#utility.yul\":3309:3438   */\n      swap2\n      swap1\n      pop\n      jump\t// out\n        /* \"#utility.yul\":3444:3752   */\n    tag_151:\n        /* \"#utility.yul\":3506:3510   */\n      0x00\n        /* \"#utility.yul\":3596:3614   */\n      0xffffffffffffffff\n        /* \"#utility.yul\":3588:3594   */\n      dup3\n        /* \"#utility.yul\":3585:3615   */\n      gt\n        /* \"#utility.yul\":3582:3638   */\n      iszero\n      tag_219\n      jumpi\n        /* \"#utility.yul\":3618:3636   */\n      tag_220\n      tag_148\n      jump\t// in\n    tag_220:\n        /* \"#utility.yul\":3582:3638   */\n    tag_219:\n        /* \"#utility.yul\":3656:3685   */\n      tag_221\n        /* \"#utility.yul\":3678:3684   */\n      dup3\n        /* \"#utility.yul\":3656:3685   */\n      tag_147\n      jump\t// in\n    tag_221:\n        /* \"#utility.yul\":3648:3685   */\n      swap1\n      pop\n        /* \"#utility.yul\":3740:3744   */\n      0x20\n        /* \"#utility.yul\":3734:3738   */\n      dup2\n        /* \"#utility.yul\":3730:3745   */\n      add\n        /* \"#utility.yul\":3722:3745   */\n      swap1\n      pop\n        /* \"#utility.yul\":3444:3752   */\n      swap2\n      swap1\n      pop\n      jump\t// out\n        /* \"#utility.yul\":3758:3904   */\n    tag_152:\n        /* \"#utility.yul\":3855:3861   */\n      dup3\n        /* \"#utility.yul\":3850:3853   */\n      dup2\n        /* \"#utility.yul\":3845:3848   */\n      dup4\n        /* \"#utility.yul\":3832:3862   */\n      calldatacopy\n        /* \"#utility.yul\":3896:3897   */\n      0x00\n        /* \"#utility.yul\":3887:3893   */\n      dup4\n        /* \"#utility.yul\":3882:3885   */\n      dup4\n        /* \"#utility.yul\":3878:3894   */\n      add\n        /* \"#utility.yul\":3871:3898   */\n      mstore\n        /* \"#utility.yul\":3758:3904   */\n      pop\n      pop\n      pop\n      jump\t// out\n        /* \"#utility.yul\":3910:4335   */\n    tag_153:\n        /* \"#utility.yul\":3988:3993   */\n      0x00\n        /* \"#utility.yul\":4013:4079   */\n      tag_224\n        /* \"#utility.yul\":4029:4078   */\n      tag_225\n        /* \"#utility.yul\":4071:4077   */\n      dup5\n        /* \"#utility.yul\":4029:4078   */\n      tag_151\n      jump\t// in\n    tag_225:\n        /* \"#utility.yul\":4013:4079   */\n      tag_150\n      jump\t// in\n    tag_224:\n        /* \"#utility.yul\":4004:4079   */\n      swap1\n      pop\n        /* \"#utility.yul\":4102:4108   */\n      dup3\n        /* \"#utility.yul\":4095:4100   */\n      dup2\n        /* \"#utility.yul\":4088:4109   */\n      mstore\n        /* \"#utility.yul\":4140:4144   */\n      0x20\n        /* \"#utility.yul\":4133:4138   */\n      dup2\n        /* \"#utility.yul\":4129:4145   */\n      add\n        /* \"#utility.yul\":4178:4181   */\n      dup5\n        /* \"#utility.yul\":4169:4175   */\n      dup5\n        /* \"#utility.yul\":4164:4167   */\n      dup5\n        /* \"#utility.yul\":4160:4176   */\n      add\n        /* \"#utility.yul\":4157:4182   */\n      gt\n        /* \"#utility.yul\":4154:4266   */\n      iszero\n      tag_226\n      jumpi\n        /* \"#utility.yul\":4185:4264   */\n      tag_227\n      tag_146\n      jump\t// in\n    tag_227:\n        /* \"#utility.yul\":4154:4266   */\n    tag_226:\n        /* \"#utility.yul\":4275:4329   */\n      tag_228\n        /* \"#utility.yul\":4322:4328   */\n      dup5\n        /* \"#utility.yul\":4317:4320   */\n      dup3\n        /* \"#utility.yul\":4312:4315   */\n      dup6\n        /* \"#utility.yul\":4275:4329   */\n      tag_152\n      jump\t// in\n    tag_228:\n        /* \"#utility.yul\":3994:4335   */\n      pop\n        /* \"#utility.yul\":3910:4335   */\n      swap4\n      swap3\n      pop\n      pop\n      pop\n      jump\t// out\n        /* \"#utility.yul\":4355:4695   */\n    tag_154:\n        /* \"#utility.yul\":4411:4416   */\n      0x00\n        /* \"#utility.yul\":4460:4463   */\n      dup3\n        /* \"#utility.yul\":4453:4457   */\n      0x1f\n        /* \"#utility.yul\":4445:4451   */\n      dup4\n        /* \"#utility.yul\":4441:4458   */\n      add\n        /* \"#utility.yul\":4437:4464   */\n      slt\n        /* \"#utility.yul\":4427:4549   */\n      tag_230\n      jumpi\n        /* \"#utility.yul\":4468:4547   */\n      tag_231\n      tag_145\n      jump\t// in\n    tag_231:\n        /* \"#utility.yul\":4427:4549   */\n    tag_230:\n        /* \"#utility.yul\":4585:4591   */\n      dup2\n        /* \"#utility.yul\":4572:4592   */\n      calldataload\n        /* \"#utility.yul\":4610:4689   */\n      tag_232\n        /* \"#utility.yul\":4685:4688   */\n      dup5\n        /* \"#utility.yul\":4677:4683   */\n      dup3\n        /* \"#utility.yul\":4670:4674   */\n      0x20\n        /* \"#utility.yul\":4662:4668   */\n      dup7\n        /* \"#utility.yul\":4658:4675   */\n      add\n        /* \"#utility.yul\":4610:4689   */\n      tag_153\n      jump\t// in\n    tag_232:\n        /* \"#utility.yul\":4601:4689   */\n      swap2\n      pop\n        /* \"#utility.yul\":4417:4695   */\n      pop\n        /* \"#utility.yul\":4355:4695   */\n      swap3\n      swap2\n      pop\n      pop\n      jump\t// out\n        /* \"#utility.yul\":4701:5355   */\n    tag_48:\n        /* \"#utility.yul\":4779:4785   */\n      0x00\n        /* \"#utility.yul\":4787:4793   */\n      dup1\n        /* \"#utility.yul\":4836:4838   */\n      0x40\n        /* \"#utility.yul\":4824:4833   */\n      dup4\n        /* \"#utility.yul\":4815:4822   */\n      dup6\n        /* \"#utility.yul\":4811:4834   */\n      sub\n        /* \"#utility.yul\":4807:4839   */\n      slt\n        /* \"#utility.yul\":4804:4923   */\n      iszero\n      tag_234\n      jumpi\n        /* \"#utility.yul\":4842:4921   */\n      tag_235\n      tag_139\n      jump\t// in\n    tag_235:\n        /* \"#utility.yul\":4804:4923   */\n    tag_234:\n        /* \"#utility.yul\":4962:4963   */\n      0x00\n        /* \"#utility.yul\":4987:5040   */\n      tag_236\n        /* \"#utility.yul\":5032:5039   */\n      dup6\n        /* \"#utility.yul\":5023:5029   */\n      dup3\n        /* \"#utility.yul\":5012:5021   */\n      dup7\n        /* \"#utility.yul\":5008:5030   */\n      add\n        /* \"#utility.yul\":4987:5040   */\n      tag_143\n      jump\t// in\n    tag_236:\n        /* \"#utility.yul\":4977:5040   */\n      swap3\n      pop\n        /* \"#utility.yul\":4933:5050   */\n      pop\n        /* \"#utility.yul\":5117:5119   */\n      0x20\n        /* \"#utility.yul\":5106:5115   */\n      dup4\n        /* \"#utility.yul\":5102:5120   */\n      add\n        /* \"#utility.yul\":5089:5121   */\n      calldataload\n        /* \"#utility.yul\":5148:5166   */\n      0xffffffffffffffff\n        /* \"#utility.yul\":5140:5146   */\n      dup2\n        /* \"#utility.yul\":5137:5167   */\n      gt\n        /* \"#utility.yul\":5134:5251   */\n      iszero\n      tag_237\n      jumpi\n        /* \"#utility.yul\":5170:5249   */\n      tag_238\n      tag_140\n      jump\t// in\n    tag_238:\n        /* \"#utility.yul\":5134:5251   */\n    tag_237:\n        /* \"#utility.yul\":5275:5338   */\n      tag_239\n        /* \"#utility.yul\":5330:5337   */\n      dup6\n        /* \"#utility.yul\":5321:5327   */\n      dup3\n        /* \"#utility.yul\":5310:5319   */\n      dup7\n        /* \"#utility.yul\":5306:5328   */\n      add\n        /* \"#utility.yul\":5275:5338   */\n      tag_154\n      jump\t// in\n    tag_239:\n        /* \"#utility.yul\":5265:5338   */\n      swap2\n      pop\n        /* \"#utility.yul\":5060:5348   */\n      pop\n        /* \"#utility.yul\":4701:5355   */\n      swap3\n      pop\n      swap3\n      swap1\n      pop\n      jump\t// out\n        /* \"#utility.yul\":5361:5460   */\n    tag_155:\n        /* \"#utility.yul\":5413:5419   */\n      0x00\n        /* \"#utility.yul\":5447:5452   */\n      dup2\n        /* \"#utility.yul\":5441:5453   */\n      mload\n        /* \"#utility.yul\":5431:5453   */\n      swap1\n      pop\n        /* \"#utility.yul\":5361:5460   */\n      swap2\n      swap1\n      pop\n      jump\t// out\n        /* \"#utility.yul\":5466:5635   */\n    tag_156:\n        /* \"#utility.yul\":5550:5561   */\n      0x00\n        /* \"#utility.yul\":5584:5590   */\n      dup3\n        /* \"#utility.yul\":5579:5582   */\n      dup3\n        /* \"#utility.yul\":5572:5591   */\n      mstore\n        /* \"#utility.yul\":5624:5628   */\n      0x20\n        /* \"#utility.yul\":5619:5622   */\n      dup3\n        /* \"#utility.yul\":5615:5629   */\n      add\n        /* \"#utility.yul\":5600:5629   */\n      swap1\n      pop\n        /* \"#utility.yul\":5466:5635   */\n      swap3\n      swap2\n      pop\n      pop\n      jump\t// out\n        /* \"#utility.yul\":5641:5887   */\n    tag_157:\n        /* \"#utility.yul\":5722:5723   */\n      0x00\n        /* \"#utility.yul\":5732:5845   */\n    tag_243:\n        /* \"#utility.yul\":5746:5752   */\n      dup4\n        /* \"#utility.yul\":5743:5744   */\n      dup2\n        /* \"#utility.yul\":5740:5753   */\n      lt\n        /* \"#utility.yul\":5732:5845   */\n      iszero\n      tag_245\n      jumpi\n        /* \"#utility.yul\":5831:5832   */\n      dup1\n        /* \"#utility.yul\":5826:5829   */\n      dup3\n        /* \"#utility.yul\":5822:5833   */\n      add\n        /* \"#utility.yul\":5816:5834   */\n      mload\n        /* \"#utility.yul\":5812:5813   */\n      dup2\n        /* \"#utility.yul\":5807:5810   */\n      dup5\n        /* \"#utility.yul\":5803:5814   */\n      add\n        /* \"#utility.yul\":5796:5835   */\n      mstore\n        /* \"#utility.yul\":5768:5770   */\n      0x20\n        /* \"#utility.yul\":5765:5766   */\n      dup2\n        /* \"#utility.yul\":5761:5771   */\n      add\n        /* \"#utility.yul\":5756:5771   */\n      swap1\n      pop\n        /* \"#utility.yul\":5732:5845   */\n      jump(tag_243)\n    tag_245:\n        /* \"#utility.yul\":5879:5880   */\n      0x00\n        /* \"#utility.yul\":5870:5876   */\n      dup5\n        /* \"#utility.yul\":5865:5868   */\n      dup5\n        /* \"#utility.yul\":5861:5877   */\n      add\n        /* \"#utility.yul\":5854:5881   */\n      mstore\n        /* \"#utility.yul\":5703:5887   */\n      pop\n        /* \"#utility.yul\":5641:5887   */\n      pop\n      pop\n      pop\n      jump\t// out\n        /* \"#utility.yul\":5893:6270   */\n    tag_158:\n        /* \"#utility.yul\":5981:5984   */\n      0x00\n        /* \"#utility.yul\":6009:6048   */\n      tag_247\n        /* \"#utility.yul\":6042:6047   */\n      dup3\n        /* \"#utility.yul\":6009:6048   */\n      tag_155\n      jump\t// in\n    tag_247:\n        /* \"#utility.yul\":6064:6135   */\n      tag_248\n        /* \"#utility.yul\":6128:6134   */\n      dup2\n        /* \"#utility.yul\":6123:6126   */\n      dup6\n        /* \"#utility.yul\":6064:6135   */\n      tag_156\n      jump\t// in\n    tag_248:\n        /* \"#utility.yul\":6057:6135   */\n      swap4\n      pop\n        /* \"#utility.yul\":6144:6209   */\n      tag_249\n        /* \"#utility.yul\":6202:6208   */\n      dup2\n        /* \"#utility.yul\":6197:6200   */\n      dup6\n        /* \"#utility.yul\":6190:6194   */\n      0x20\n        /* \"#utility.yul\":6183:6188   */\n      dup7\n        /* \"#utility.yul\":6179:6195   */\n      add\n        /* \"#utility.yul\":6144:6209   */\n      tag_157\n      jump\t// in\n    tag_249:\n        /* \"#utility.yul\":6234:6263   */\n      tag_250\n        /* \"#utility.yul\":6256:6262   */\n      dup2\n        /* \"#utility.yul\":6234:6263   */\n      tag_147\n      jump\t// in\n    tag_250:\n        /* \"#utility.yul\":6229:6232   */\n      dup5\n        /* \"#utility.yul\":6225:6264   */\n      add\n        /* \"#utility.yul\":6218:6264   */\n      swap2\n      pop\n        /* \"#utility.yul\":5985:6270   */\n      pop\n        /* \"#utility.yul\":5893:6270   */\n      swap3\n      swap2\n      pop\n      pop\n      jump\t// out\n        /* \"#utility.yul\":6276:6589   */\n    tag_51:\n        /* \"#utility.yul\":6389:6393   */\n      0x00\n        /* \"#utility.yul\":6427:6429   */\n      0x20\n        /* \"#utility.yul\":6416:6425   */\n      dup3\n        /* \"#utility.yul\":6412:6430   */\n      add\n        /* \"#utility.yul\":6404:6430   */\n      swap1\n      pop\n        /* \"#utility.yul\":6476:6485   */\n      dup2\n        /* \"#utility.yul\":6470:6474   */\n      dup2\n        /* \"#utility.yul\":6466:6486   */\n      sub\n        /* \"#utility.yul\":6462:6463   */\n      0x00\n        /* \"#utility.yul\":6451:6460   */\n      dup4\n        /* \"#utility.yul\":6447:6464   */\n      add\n        /* \"#utility.yul\":6440:6487   */\n      mstore\n        /* \"#utility.yul\":6504:6582   */\n      tag_252\n        /* \"#utility.yul\":6577:6581   */\n      dup2\n        /* \"#utility.yul\":6568:6574   */\n      dup5\n        /* \"#utility.yul\":6504:6582   */\n      tag_158\n      jump\t// in\n    tag_252:\n        /* \"#utility.yul\":6496:6582   */\n      swap1\n      pop\n        /* \"#utility.yul\":6276:6589   */\n      swap3\n      swap2\n      pop\n      pop\n      jump\t// out\n        /* \"#utility.yul\":6595:7350   */\n    tag_67:\n        /* \"#utility.yul\":6820:6824   */\n      0x00\n        /* \"#utility.yul\":6858:6861   */\n      0xa0\n        /* \"#utility.yul\":6847:6856   */\n      dup3\n        /* \"#utility.yul\":6843:6862   */\n      add\n        /* \"#utility.yul\":6835:6862   */\n      swap1\n      pop\n        /* \"#utility.yul\":6908:6917   */\n      dup2\n        /* \"#utility.yul\":6902:6906   */\n      dup2\n        /* \"#utility.yul\":6898:6918   */\n      sub\n        /* \"#utility.yul\":6894:6895   */\n      0x00\n        /* \"#utility.yul\":6883:6892   */\n      dup4\n        /* \"#utility.yul\":6879:6896   */\n      add\n        /* \"#utility.yul\":6872:6919   */\n      mstore\n        /* \"#utility.yul\":6936:7014   */\n      tag_254\n        /* \"#utility.yul\":7009:7013   */\n      dup2\n        /* \"#utility.yul\":7000:7006   */\n      dup9\n        /* \"#utility.yul\":6936:7014   */\n      tag_158\n      jump\t// in\n    tag_254:\n        /* \"#utility.yul\":6928:7014   */\n      swap1\n      pop\n        /* \"#utility.yul\":7024:7096   */\n      tag_255\n        /* \"#utility.yul\":7092:7094   */\n      0x20\n        /* \"#utility.yul\":7081:7090   */\n      dup4\n        /* \"#utility.yul\":7077:7095   */\n      add\n        /* \"#utility.yul\":7068:7074   */\n      dup8\n        /* \"#utility.yul\":7024:7096   */\n      tag_144\n      jump\t// in\n    tag_255:\n        /* \"#utility.yul\":7106:7178   */\n      tag_256\n        /* \"#utility.yul\":7174:7176   */\n      0x40\n        /* \"#utility.yul\":7163:7172   */\n      dup4\n        /* \"#utility.yul\":7159:7177   */\n      add\n        /* \"#utility.yul\":7150:7156   */\n      dup7\n        /* \"#utility.yul\":7106:7178   */\n      tag_144\n      jump\t// in\n    tag_256:\n        /* \"#utility.yul\":7188:7260   */\n      tag_257\n        /* \"#utility.yul\":7256:7258   */\n      0x60\n        /* \"#utility.yul\":7245:7254   */\n      dup4\n        /* \"#utility.yul\":7241:7259   */\n      add\n        /* \"#utility.yul\":7232:7238   */\n      dup6\n        /* \"#utility.yul\":7188:7260   */\n      tag_144\n      jump\t// in\n    tag_257:\n        /* \"#utility.yul\":7270:7343   */\n      tag_258\n        /* \"#utility.yul\":7338:7341   */\n      0x80\n        /* \"#utility.yul\":7327:7336   */\n      dup4\n        /* \"#utility.yul\":7323:7342   */\n      add\n        /* \"#utility.yul\":7314:7320   */\n      dup5\n        /* \"#utility.yul\":7270:7343   */\n      tag_144\n      jump\t// in\n    tag_258:\n        /* \"#utility.yul\":6595:7350   */\n      swap7\n      swap6\n      pop\n      pop\n      pop\n      pop\n      pop\n      pop\n      jump\t// out\n        /* \"#utility.yul\":7356:7536   */\n    tag_71:\n        /* \"#utility.yul\":7404:7481   */\n      0x4e487b7100000000000000000000000000000000000000000000000000000000\n        /* \"#utility.yul\":7401:7402   */\n      0x00\n        /* \"#utility.yul\":7394:7482   */\n      mstore\n        /* \"#utility.yul\":7501:7505   */\n      0x32\n        /* \"#utility.yul\":7498:7499   */\n      0x04\n        /* \"#utility.yul\":7491:7506   */\n      mstore\n        /* \"#utility.yul\":7525:7529   */\n      0x24\n        /* \"#utility.yul\":7522:7523   */\n      0x00\n        /* \"#utility.yul\":7515:7530   */\n      revert\n        /* \"#utility.yul\":7542:7722   */\n    tag_159:\n        /* \"#utility.yul\":7590:7667   */\n      0x4e487b7100000000000000000000000000000000000000000000000000000000\n        /* \"#utility.yul\":7587:7588   */\n      0x00\n        /* \"#utility.yul\":7580:7668   */\n      mstore\n        /* \"#utility.yul\":7687:7691   */\n      0x11\n        /* \"#utility.yul\":7684:7685   */\n      0x04\n        /* \"#utility.yul\":7677:7692   */\n      mstore\n        /* \"#utility.yul\":7711:7715   */\n      0x24\n        /* \"#utility.yul\":7708:7709   */\n      0x00\n        /* \"#utility.yul\":7701:7716   */\n      revert\n        /* \"#utility.yul\":7728:7922   */\n    tag_79:\n        /* \"#utility.yul\":7768:7772   */\n      0x00\n        /* \"#utility.yul\":7788:7808   */\n      tag_262\n        /* \"#utility.yul\":7806:7807   */\n      dup3\n        /* \"#utility.yul\":7788:7808   */\n      tag_141\n      jump\t// in\n    tag_262:\n        /* \"#utility.yul\":7783:7808   */\n      swap2\n      pop\n        /* \"#utility.yul\":7822:7842   */\n      tag_263\n        /* \"#utility.yul\":7840:7841   */\n      dup4\n        /* \"#utility.yul\":7822:7842   */\n      tag_141\n      jump\t// in\n    tag_263:\n        /* \"#utility.yul\":7817:7842   */\n      swap3\n      pop\n        /* \"#utility.yul\":7866:7867   */\n      dup3\n        /* \"#utility.yul\":7863:7864   */\n      dup3\n        /* \"#utility.yul\":7859:7868   */\n      sub\n        /* \"#utility.yul\":7851:7868   */\n      swap1\n      pop\n        /* \"#utility.yul\":7890:7891   */\n      dup2\n        /* \"#utility.yul\":7884:7888   */\n      dup2\n        /* \"#utility.yul\":7881:7892   */\n      gt\n        /* \"#utility.yul\":7878:7915   */\n      iszero\n      tag_264\n      jumpi\n        /* \"#utility.yul\":7895:7913   */\n      tag_265\n      tag_159\n      jump\t// in\n    tag_265:\n        /* \"#utility.yul\":7878:7915   */\n    tag_264:\n        /* \"#utility.yul\":7728:7922   */\n      swap3\n      swap2\n      pop\n      pop\n      jump\t// out\n        /* \"#utility.yul\":7928:8119   */\n    tag_81:\n        /* \"#utility.yul\":7968:7971   */\n      0x00\n        /* \"#utility.yul\":7987:8007   */\n      tag_267\n        /* \"#utility.yul\":8005:8006   */\n      dup3\n        /* \"#utility.yul\":7987:8007   */\n      tag_141\n      jump\t// in\n    tag_267:\n        /* \"#utility.yul\":7982:8007   */\n      swap2\n      pop\n        /* \"#utility.yul\":8021:8041   */\n      tag_268\n        /* \"#utility.yul\":8039:8040   */\n      dup4\n        /* \"#utility.yul\":8021:8041   */\n      tag_141\n      jump\t// in\n    tag_268:\n        /* \"#utility.yul\":8016:8041   */\n      swap3\n      pop\n        /* \"#utility.yul\":8064:8065   */\n      dup3\n        /* \"#utility.yul\":8061:8062   */\n      dup3\n        /* \"#utility.yul\":8057:8066   */\n      add\n        /* \"#utility.yul\":8050:8066   */\n      swap1\n      pop\n        /* \"#utility.yul\":8085:8088   */\n      dup1\n        /* \"#utility.yul\":8082:8083   */\n      dup3\n        /* \"#utility.yul\":8079:8089   */\n      gt\n        /* \"#utility.yul\":8076:8112   */\n      iszero\n      tag_269\n      jumpi\n        /* \"#utility.yul\":8092:8110   */\n      tag_270\n      tag_159\n      jump\t// in\n    tag_270:\n        /* \"#utility.yul\":8076:8112   */\n    tag_269:\n        /* \"#utility.yul\":7928:8119   */\n      swap3\n      swap2\n      pop\n      pop\n      jump\t// out\n        /* \"#utility.yul\":8125:8305   */\n    tag_160:\n        /* \"#utility.yul\":8173:8250   */\n      0x4e487b7100000000000000000000000000000000000000000000000000000000\n        /* \"#utility.yul\":8170:8171   */\n      0x00\n        /* \"#utility.yul\":8163:8251   */\n      mstore\n        /* \"#utility.yul\":8270:8274   */\n      0x22\n        /* \"#utility.yul\":8267:8268   */\n      0x04\n        /* \"#utility.yul\":8260:8275   */\n      mstore\n        /* \"#utility.yul\":8294:8298   */\n      0x24\n        /* \"#utility.yul\":8291:8292   */\n      0x00\n        /* \"#utility.yul\":8284:8299   */\n      revert\n        /* \"#utility.yul\":8311:8631   */\n    tag_109:\n        /* \"#utility.yul\":8355:8361   */\n      0x00\n        /* \"#utility.yul\":8392:8393   */\n      0x02\n        /* \"#utility.yul\":8386:8390   */\n      dup3\n        /* \"#utility.yul\":8382:8394   */\n      div\n        /* \"#utility.yul\":8372:8394   */\n      swap1\n      pop\n        /* \"#utility.yul\":8439:8440   */\n      0x01\n        /* \"#utility.yul\":8433:8437   */\n      dup3\n        /* \"#utility.yul\":8429:8441   */\n      and\n        /* \"#utility.yul\":8460:8478   */\n      dup1\n        /* \"#utility.yul\":8450:8531   */\n      tag_273\n      jumpi\n        /* \"#utility.yul\":8516:8520   */\n      0x7f\n        /* \"#utility.yul\":8508:8514   */\n      dup3\n        /* \"#utility.yul\":8504:8521   */\n      and\n        /* \"#utility.yul\":8494:8521   */\n      swap2\n      pop\n        /* \"#utility.yul\":8450:8531   */\n    tag_273:\n        /* \"#utility.yul\":8578:8580   */\n      0x20\n        /* \"#utility.yul\":8570:8576   */\n      dup3\n        /* \"#utility.yul\":8567:8581   */\n      lt\n        /* \"#utility.yul\":8547:8565   */\n      dup2\n        /* \"#utility.yul\":8544:8582   */\n      sub\n        /* \"#utility.yul\":8541:8625   */\n      tag_274\n      jumpi\n        /* \"#utility.yul\":8597:8615   */\n      tag_275\n      tag_160\n      jump\t// in\n    tag_275:\n        /* \"#utility.yul\":8541:8625   */\n    tag_274:\n        /* \"#utility.yul\":8362:8631   */\n      pop\n        /* \"#utility.yul\":8311:8631   */\n      swap2\n      swap1\n      pop\n      jump\t// out\n        /* \"#utility.yul\":8637:8778   */\n    tag_161:\n        /* \"#utility.yul\":8686:8690   */\n      0x00\n        /* \"#utility.yul\":8709:8712   */\n      dup2\n        /* \"#utility.yul\":8701:8712   */\n      swap1\n      pop\n        /* \"#utility.yul\":8732:8735   */\n      dup2\n        /* \"#utility.yul\":8729:8730   */\n      0x00\n        /* \"#utility.yul\":8722:8736   */\n      mstore\n        /* \"#utility.yul\":8766:8770   */\n      0x20\n        /* \"#utility.yul\":8763:8764   */\n      0x00\n        /* \"#utility.yul\":8753:8771   */\n      keccak256\n        /* \"#utility.yul\":8745:8771   */\n      swap1\n      pop\n        /* \"#utility.yul\":8637:8778   */\n      swap2\n      swap1\n      pop\n      jump\t// out\n        /* \"#utility.yul\":8784:8877   */\n    tag_162:\n        /* \"#utility.yul\":8821:8827   */\n      0x00\n        /* \"#utility.yul\":8868:8870   */\n      0x20\n        /* \"#utility.yul\":8863:8865   */\n      0x1f\n        /* \"#utility.yul\":8856:8861   */\n      dup4\n        /* \"#utility.yul\":8852:8866   */\n      add\n        /* \"#utility.yul\":8848:8871   */\n      div\n        /* \"#utility.yul\":8838:8871   */\n      swap1\n      pop\n        /* \"#utility.yul\":8784:8877   */\n      swap2\n      swap1\n      pop\n      jump\t// out\n        /* \"#utility.yul\":8883:8990   */\n    tag_163:\n        /* \"#utility.yul\":8927:8935   */\n      0x00\n        /* \"#utility.yul\":8977:8982   */\n      dup3\n        /* \"#utility.yul\":8971:8975   */\n      dup3\n        /* \"#utility.yul\":8967:8983   */\n      shl\n        /* \"#utility.yul\":8946:8983   */\n      swap1\n      pop\n        /* \"#utility.yul\":8883:8990   */\n      swap3\n      swap2\n      pop\n      pop\n      jump\t// out\n        /* \"#utility.yul\":8996:9389   */\n    tag_164:\n        /* \"#utility.yul\":9065:9071   */\n      0x00\n        /* \"#utility.yul\":9115:9116   */\n      0x08\n        /* \"#utility.yul\":9103:9113   */\n      dup4\n        /* \"#utility.yul\":9099:9117   */\n      mul\n        /* \"#utility.yul\":9138:9235   */\n      tag_280\n        /* \"#utility.yul\":9168:9234   */\n      0xffffffffffffffffffffffffffffffffffffffffffffffffffffffffffffffff\n        /* \"#utility.yul\":9157:9166   */\n      dup3\n        /* \"#utility.yul\":9138:9235   */\n      tag_163\n      jump\t// in\n    tag_280:\n        /* \"#utility.yul\":9256:9295   */\n      tag_281\n        /* \"#utility.yul\":9286:9294   */\n      dup7\n        /* \"#utility.yul\":9275:9284   */\n      dup4\n        /* \"#utility.yul\":9256:9295   */\n      tag_163\n      jump\t// in\n    tag_281:\n        /* \"#utility.yul\":9244:9295   */\n      swap6\n      pop\n        /* \"#utility.yul\":9328:9332   */\n      dup1\n        /* \"#utility.yul\":9324:9333   */\n      not\n        /* \"#utility.yul\":9317:9322   */\n      dup5\n        /* \"#utility.yul\":9313:9334   */\n      and\n        /* \"#utility.yul\":9304:9334   */\n      swap4\n      pop\n        /* \"#utility.yul\":9377:9381   */\n      dup1\n        /* \"#utility.yul\":9367:9375   */\n      dup7\n        /* \"#utility.yul\":9363:9382   */\n      and\n        /* \"#utility.yul\":9356:9361   */\n      dup5\n        /* \"#utility.yul\":9353:9383   */\n      or\n        /* \"#utility.yul\":9343:9383   */\n      swap3\n      pop\n        /* \"#utility.yul\":9072:9389   */\n      pop\n      pop\n        /* \"#utility.yul\":8996:9389   */\n      swap4\n      swap3\n      pop\n      pop\n      pop\n      jump\t// out\n        /* \"#utility.yul\":9395:9455   */\n    tag_165:\n        /* \"#utility.yul\":9423:9426   */\n      0x00\n        /* \"#utility.yul\":9444:9449   */\n      dup2\n        /* \"#utility.yul\":9437:9449   */\n      swap1\n      pop\n        /* \"#utility.yul\":9395:9455   */\n      swap2\n      swap1\n      pop\n      jump\t// out\n        /* \"#utility.yul\":9461:9603   */\n    tag_166:\n        /* \"#utility.yul\":9511:9520   */\n      0x00\n        /* \"#utility.yul\":9544:9597   */\n      tag_284\n        /* \"#utility.yul\":9562:9596   */\n      tag_285\n        /* \"#utility.yul\":9571:9595   */\n      tag_286\n        /* \"#utility.yul\":9589:9594   */\n      dup5\n        /* \"#utility.yul\":9571:9595   */\n      tag_141\n      jump\t// in\n    tag_286:\n        /* \"#utility.yul\":9562:9596   */\n      tag_165\n      jump\t// in\n    tag_285:\n        /* \"#utility.yul\":9544:9597   */\n      tag_141\n      jump\t// in\n    tag_284:\n        /* \"#utility.yul\":9531:9597   */\n      swap1\n      pop\n        /* \"#utility.yul\":9461:9603   */\n      swap2\n      swap1\n      pop\n      jump\t// out\n        /* \"#utility.yul\":9609:9684   */\n    tag_167:\n        /* \"#utility.yul\":9652:9655   */\n      0x00\n        /* \"#utility.yul\":9673:9678   */\n      dup2\n        /* \"#utility.yul\":9666:9678   */\n      swap1\n      pop\n        /* \"#utility.yul\":9609:9684   */\n      swap2\n      swap1\n      pop\n      jump\t// out\n        /* \"#utility.yul\":9690:9959   */\n    tag_168:\n        /* \"#utility.yul\":9800:9839   */\n      tag_289\n        /* \"#utility.yul\":9831:9838   */\n      dup4\n        /* \"#utility.yul\":9800:9839   */\n      tag_166\n      jump\t// in\n    tag_289:\n        /* \"#utility.yul\":9861:9952   */\n      tag_290\n        /* \"#utility.yul\":9910:9951   */\n      tag_291\n        /* \"#utility.yul\":9934:9950   */\n      dup3\n        /* \"#utility.yul\":9910:9951   */\n      tag_167\n      jump\t// in\n    tag_291:\n        /* \"#utility.yul\":9902:9908   */\n      dup5\n        /* \"#utility.yul\":9895:9899   */\n      dup5\n        /* \"#utility.yul\":9889:9900   */\n      sload\n        /* \"#utility.yul\":9861:9952   */\n      tag_164\n      jump\t// in\n    tag_290:\n        /* \"#utility.yul\":9855:9859   */\n      dup3\n        /* \"#utility.yul\":9848:9953   */\n      sstore\n        /* \"#utility.yul\":9766:9959   */\n      pop\n        /* \"#utility.yul\":9690:9959   */\n      pop\n      pop\n      pop\n      jump\t// out\n        /* \"#utility.yul\":9965:10038   */\n    tag_169:\n        /* \"#utility.yul\":10010:10013   */\n      0x00\n        /* \"#utility.yul\":9965:10038   */\n      swap1\n      jump\t// out\n        /* \"#utility.yul\":10044:10233   */\n    tag_170:\n        /* \"#utility.yul\":10121:10153   */\n      tag_294\n      tag_169\n      jump\t// in\n    tag_294:\n        /* \"#utility.yul\":10162:10227   */\n      tag_295\n        /* \"#utility.yul\":10220:10226   */\n      dup2\n        /* \"#utility.yul\":10212:10218   */\n      dup5\n        /* \"#utility.yul\":10206:10210   */\n      dup5\n        /* \"#utility.yul\":10162:10227   */\n      tag_168\n      jump\t// in\n    tag_295:\n        /* \"#utility.yul\":10097:10233   */\n      pop\n        /* \"#utility.yul\":10044:10233   */\n      pop\n      pop\n      jump\t// out\n        /* \"#utility.yul\":10239:10425   */\n    tag_171:\n        /* \"#utility.yul\":10299:10419   */\n    tag_297:\n        /* \"#utility.yul\":10316:10319   */\n      dup2\n        /* \"#utility.yul\":10309:10314   */\n      dup2\n        /* \"#utility.yul\":10306:10320   */\n      lt\n        /* \"#utility.yul\":10299:10419   */\n      iszero\n      tag_299\n      jumpi\n        /* \"#utility.yul\":10370:10409   */\n      tag_300\n        /* \"#utility.yul\":10407:10408   */\n      0x00\n        /* \"#utility.yul\":10400:10405   */\n      dup3\n        /* \"#utility.yul\":10370:10409   */\n      tag_170\n      jump\t// in\n    tag_300:\n        /* \"#utility.yul\":10343:10344   */\n      0x01\n        /* \"#utility.yul\":10336:10341   */\n      dup2\n        /* \"#utility.yul\":10332:10345   */\n      add\n        /* \"#utility.yul\":10323:10345   */\n      swap1\n      pop\n        /* \"#utility.yul\":10299:10419   */\n      jump(tag_297)\n    tag_299:\n        /* \"#utility.yul\":10239:10425   */\n      pop\n      pop\n      jump\t// out\n        /* \"#utility.yul\":10431:10974   */\n    tag_172:\n        /* \"#utility.yul\":10532:10534   */\n      0x1f\n        /* \"#utility.yul\":10527:10530   */\n      dup3\n        /* \"#utility.yul\":10524:10535   */\n      gt\n        /* \"#utility.yul\":10521:10967   */\n      iszero\n      tag_302\n      jumpi\n        /* \"#utility.yul\":10566:10604   */\n      tag_303\n        /* \"#utility.yul\":10598:10603   */\n      dup2\n        /* \"#utility.yul\":10566:10604   */\n      tag_161\n      jump\t// in\n    tag_303:\n        /* \"#utility.yul\":10650:10679   */\n      tag_304\n        /* \"#utility.yul\":10668:10678   */\n      dup5\n        /* \"#utility.yul\":10650:10679   */\n      tag_162\n      jump\t// in\n    tag_304:\n        /* \"#utility.yul\":10640:10648   */\n      dup2\n        /* \"#utility.yul\":10636:10680   */\n      add\n        /* \"#utility.yul\":10833:10835   */\n      0x20\n        /* \"#utility.yul\":10821:10831   */\n      dup6\n        /* \"#utility.yul\":10818:10836   */\n      lt\n        /* \"#utility.yul\":10815:10864   */\n      iszero\n      tag_305\n      jumpi\n        /* \"#utility.yul\":10854:10862   */\n      dup2\n        /* \"#utility.yul\":10839:10862   */\n      swap1\n      pop\n        /* \"#utility.yul\":10815:10864   */\n    tag_305:\n        /* \"#utility.yul\":10877:10957   */\n      tag_306\n        /* \"#utility.yul\":10933:10955   */\n      tag_307\n        /* \"#utility.yul\":10951:10954   */\n      dup6\n        /* \"#utility.yul\":10933:10955   */\n      tag_162\n      jump\t// in\n    tag_307:\n        /* \"#utility.yul\":10923:10931   */\n      dup4\n        /* \"#utility.yul\":10919:10956   */\n      add\n        /* \"#utility.yul\":10906:10917   */\n      dup3\n        /* \"#utility.yul\":10877:10957   */\n      tag_171\n      jump\t// in\n    tag_306:\n        /* \"#utility.yul\":10536:10967   */\n      pop\n      pop\n        /* \"#utility.yul\":10521:10967   */\n    tag_302:\n        /* \"#utility.yul\":10431:10974   */\n      pop\n      pop\n      pop\n      jump\t// out\n        /* \"#utility.yul\":10980:11097   */\n    tag_173:\n        /* \"#utility.yul\":11034:11042   */\n      0x00\n        /* \"#utility.yul\":11084:11089   */\n      dup3\n        /* \"#utility.yul\":11078:11082   */\n      dup3\n        /* \"#utility.yul\":11074:11090   */\n      shr\n        /* \"#utility.yul\":11053:11090   */\n      swap1\n      pop\n        /* \"#utility.yul\":10980:11097   */\n      swap3\n      swap2\n      pop\n      pop\n      jump\t// out\n        /* \"#utility.yul\":11103:11272   */\n    tag_174:\n        /* \"#utility.yul\":11147:11153   */\n      0x00\n        /* \"#utility.yul\":11180:11231   */\n      tag_310\n        /* \"#utility.yul\":11228:11229   */\n      0x00\n        /* \"#utility.yul\":11224:11230   */\n      not\n        /* \"#utility.yul\":11216:11221   */\n      dup5\n        /* \"#utility.yul\":11213:11214   */\n      0x08\n        /* \"#utility.yul\":11209:11222   */\n      mul\n        /* \"#utility.yul\":11180:11231   */\n      tag_173\n      jump\t// in\n    tag_310:\n        /* \"#utility.yul\":11176:11232   */\n      not\n        /* \"#utility.yul\":11261:11265   */\n      dup1\n        /* \"#utility.yul\":11255:11259   */\n      dup4\n        /* \"#utility.yul\":11251:11266   */\n      and\n        /* \"#utility.yul\":11241:11266   */\n      swap2\n      pop\n        /* \"#utility.yul\":11154:11272   */\n      pop\n        /* \"#utility.yul\":11103:11272   */\n      swap3\n      swap2\n      pop\n      pop\n      jump\t// out\n        /* \"#utility.yul\":11277:11572   */\n    tag_175:\n        /* \"#utility.yul\":11353:11357   */\n      0x00\n        /* \"#utility.yul\":11499:11528   */\n      tag_312\n        /* \"#utility.yul\":11524:11527   */\n      dup4\n        /* \"#utility.yul\":11518:11522   */\n      dup4\n        /* \"#utility.yul\":11499:11528   */\n      tag_174\n      jump\t// in\n    tag_312:\n        /* \"#utility.yul\":11491:11528   */\n      swap2\n      pop\n        /* \"#utility.yul\":11561:11564   */\n      dup3\n        /* \"#utility.yul\":11558:11559   */\n      0x02\n        /* \"#utility.yul\":11554:11565   */\n      mul\n        /* \"#utility.yul\":11548:11552   */\n      dup3\n        /* \"#utility.yul\":11545:11566   */\n      or\n        /* \"#utility.yul\":11537:11566   */\n      swap1\n      pop\n        /* \"#utility.yul\":11277:11572   */\n      swap3\n      swap2\n      pop\n      pop\n      jump\t// out\n        /* \"#utility.yul\":11577:12972   */\n    tag_84:\n        /* \"#utility.yul\":11694:11731   */\n      tag_314\n        /* \"#utility.yul\":11727:11730   */\n      dup3\n        /* \"#utility.yul\":11694:11731   */\n      tag_155\n      jump\t// in\n    tag_314:\n        /* \"#utility.yul\":11796:11814   */\n      0xffffffffffffffff\n        /* \"#utility.yul\":11788:11794   */\n      dup2\n        /* \"#utility.yul\":11785:11815   */\n      gt\n        /* \"#utility.yul\":11782:11838   */\n      iszero\n      tag_315\n      jumpi\n        /* \"#utility.yul\":11818:11836   */\n      tag_316\n      tag_148\n      jump\t// in\n    tag_316:\n        /* \"#utility.yul\":11782:11838   */\n    tag_315:\n        /* \"#utility.yul\":11862:11900   */\n      tag_317\n        /* \"#utility.yul\":11894:11898   */\n      dup3\n        /* \"#utility.yul\":11888:11899   */\n      sload\n        /* \"#utility.yul\":11862:11900   */\n      tag_109\n      jump\t// in\n    tag_317:\n        /* \"#utility.yul\":11947:12014   */\n      tag_318\n        /* \"#utility.yul\":12007:12013   */\n      dup3\n        /* \"#utility.yul\":11999:12005   */\n      dup3\n        /* \"#utility.yul\":11993:11997   */\n      dup6\n        /* \"#utility.yul\":11947:12014   */\n      tag_172\n      jump\t// in\n    tag_318:\n        /* \"#utility.yul\":12041:12042   */\n      0x00\n        /* \"#utility.yul\":12065:12069   */\n      0x20\n        /* \"#utility.yul\":12052:12069   */\n      swap1\n      pop\n        /* \"#utility.yul\":12097:12099   */\n      0x1f\n        /* \"#utility.yul\":12089:12095   */\n      dup4\n        /* \"#utility.yul\":12086:12100   */\n      gt\n        /* \"#utility.yul\":12114:12115   */\n      0x01\n        /* \"#utility.yul\":12109:12727   */\n      dup2\n      eq\n      tag_320\n      jumpi\n        /* \"#utility.yul\":12771:12772   */\n      0x00\n        /* \"#utility.yul\":12788:12794   */\n      dup5\n        /* \"#utility.yul\":12785:12862   */\n      iszero\n      tag_321\n      jumpi\n        /* \"#utility.yul\":12837:12846   */\n      dup3\n        /* \"#utility.yul\":12832:12835   */\n      dup8\n        /* \"#utility.yul\":12828:12847   */\n      add\n        /* \"#utility.yul\":12822:12848   */\n      mload\n        /* \"#utility.yul\":12813:12848   */\n      swap1\n      pop\n        /* \"#utility.yul\":12785:12862   */\n    tag_321:\n        /* \"#utility.yul\":12888:12955   */\n      tag_322\n        /* \"#utility.yul\":12948:12954   */\n      dup6\n        /* \"#utility.yul\":12941:12946   */\n      dup3\n        /* \"#utility.yul\":12888:12955   */\n      tag_175\n      jump\t// in\n    tag_322:\n        /* \"#utility.yul\":12882:12886   */\n      dup7\n        /* \"#utility.yul\":12875:12956   */\n      sstore\n        /* \"#utility.yul\":12744:12966   */\n      pop\n        /* \"#utility.yul\":12079:12966   */\n      jump(tag_319)\n        /* \"#utility.yul\":12109:12727   */\n    tag_320:\n        /* \"#utility.yul\":12161:12165   */\n      0x1f\n        /* \"#utility.yul\":12157:12166   */\n      not\n        /* \"#utility.yul\":12149:12155   */\n      dup5\n        /* \"#utility.yul\":12145:12167   */\n      and\n        /* \"#utility.yul\":12195:12232   */\n      tag_323\n        /* \"#utility.yul\":12227:12231   */\n      dup7\n        /* \"#utility.yul\":12195:12232   */\n      tag_161\n      jump\t// in\n    tag_323:\n        /* \"#utility.yul\":12254:12255   */\n      0x00\n        /* \"#utility.yul\":12268:12476   */\n    tag_324:\n        /* \"#utility.yul\":12282:12289   */\n      dup3\n        /* \"#utility.yul\":12279:12280   */\n      dup2\n        /* \"#utility.yul\":12276:12290   */\n      lt\n        /* \"#utility.yul\":12268:12476   */\n      iszero\n      tag_326\n      jumpi\n        /* \"#utility.yul\":12361:12370   */\n      dup5\n        /* \"#utility.yul\":12356:12359   */\n      dup10\n        /* \"#utility.yul\":12352:12371   */\n      add\n        /* \"#utility.yul\":12346:12372   */\n      mload\n        /* \"#utility.yul\":12338:12344   */\n      dup3\n        /* \"#utility.yul\":12331:12373   */\n      sstore\n        /* \"#utility.yul\":12412:12413   */\n      0x01\n        /* \"#utility.yul\":12404:12410   */\n      dup3\n        /* \"#utility.yul\":12400:12414   */\n      add\n        /* \"#utility.yul\":12390:12414   */\n      swap2\n      pop\n        /* \"#utility.yul\":12459:12461   */\n      0x20\n        /* \"#utility.yul\":12448:12457   */\n      dup6\n        /* \"#utility.yul\":12444:12462   */\n      add\n        /* \"#utility.yul\":12431:12462   */\n      swap5\n      pop\n        /* \"#utility.yul\":12305:12309   */\n      0x20\n        /* \"#utility.yul\":12302:12303   */\n      dup2\n        /* \"#utility.yul\":12298:12310   */\n      add\n        /* \"#utility.yul\":12293:12310   */\n      swap1\n      pop\n        /* \"#utility.yul\":12268:12476   */\n      jump(tag_324)\n    tag_326:\n        /* \"#utility.yul\":12504:12510   */\n      dup7\n        /* \"#utility.yul\":12495:12502   */\n      dup4\n        /* \"#utility.yul\":12492:12511   */\n      lt\n        /* \"#utility.yul\":12489:12668   */\n      iszero\n      tag_327\n      jumpi\n        /* \"#utility.yul\":12562:12571   */\n      dup5\n        /* \"#utility.yul\":12557:12560   */\n      dup10\n        /* \"#utility.yul\":12553:12572   */\n      add\n        /* \"#utility.yul\":12547:12573   */\n      mload\n        /* \"#utility.yul\":12605:12653   */\n      tag_328\n        /* \"#utility.yul\":12647:12651   */\n      0x1f\n        /* \"#utility.yul\":12639:12645   */\n      dup10\n        /* \"#utility.yul\":12635:12652   */\n      and\n        /* \"#utility.yul\":12624:12633   */\n      dup3\n        /* \"#utility.yul\":12605:12653   */\n      tag_174\n      jump\t// in\n    tag_328:\n        /* \"#utility.yul\":12597:12603   */\n      dup4\n        /* \"#utility.yul\":12590:12654   */\n      sstore\n        /* \"#utility.yul\":12512:12668   */\n      pop\n        /* \"#utility.yul\":12489:12668   */\n    tag_327:\n        /* \"#utility.yul\":12714:12715   */\n      0x01\n        /* \"#utility.yul\":12710:12711   */\n      0x02\n        /* \"#utility.yul\":12702:12708   */\n      dup9\n        /* \"#utility.yul\":12698:12712   */\n      mul\n        /* \"#utility.yul\":12694:12716   */\n      add\n        /* \"#utility.yul\":12688:12692   */\n      dup9\n        /* \"#utility.yul\":12681:12717   */\n      sstore\n        /* \"#utility.yul\":12116:12727   */\n      pop\n      pop\n      pop\n        /* \"#utility.yul\":12079:12966   */\n    tag_319:\n      pop\n        /* \"#utility.yul\":11669:12972   */\n      pop\n      pop\n      pop\n        /* \"#utility.yul\":11577:12972   */\n      pop\n      pop\n      jump\t// out\n        /* \"#utility.yul\":12978:13150   */\n    tag_176:\n        /* \"#utility.yul\":13118:13142   */\n      0x4163636f756e7420416c72656164792045786973747300000000000000000000\n        /* \"#utility.yul\":13114:13115   */\n      0x00\n        /* \"#utility.yul\":13106:13112   */\n      dup3\n        /* \"#utility.yul\":13102:13116   */\n      add\n        /* \"#utility.yul\":13095:13143   */\n      mstore\n        /* \"#utility.yul\":12978:13150   */\n      pop\n      jump\t// out\n        /* \"#utility.yul\":13156:13522   */\n    tag_177:\n        /* \"#utility.yul\":13298:13301   */\n      0x00\n        /* \"#utility.yul\":13319:13386   */\n      tag_331\n        /* \"#utility.yul\":13383:13385   */\n      0x16\n        /* \"#utility.yul\":13378:13381   */\n      dup4\n        /* \"#utility.yul\":13319:13386   */\n      tag_156\n      jump\t// in\n    tag_331:\n        /* \"#utility.yul\":13312:13386   */\n      swap2\n      pop\n        /* \"#utility.yul\":13395:13488   */\n      tag_332\n        /* \"#utility.yul\":13484:13487   */\n      dup3\n        /* \"#utility.yul\":13395:13488   */\n      tag_176\n      jump\t// in\n    tag_332:\n        /* \"#utility.yul\":13513:13515   */\n      0x20\n        /* \"#utility.yul\":13508:13511   */\n      dup3\n        /* \"#utility.yul\":13504:13516   */\n      add\n        /* \"#utility.yul\":13497:13516   */\n      swap1\n      pop\n        /* \"#utility.yul\":13156:13522   */\n      swap2\n      swap1\n      pop\n      jump\t// out\n        /* \"#utility.yul\":13528:13947   */\n    tag_118:\n        /* \"#utility.yul\":13694:13698   */\n      0x00\n        /* \"#utility.yul\":13732:13734   */\n      0x20\n        /* \"#utility.yul\":13721:13730   */\n      dup3\n        /* \"#utility.yul\":13717:13735   */\n      add\n        /* \"#utility.yul\":13709:13735   */\n      swap1\n      pop\n        /* \"#utility.yul\":13781:13790   */\n      dup2\n        /* \"#utility.yul\":13775:13779   */\n      dup2\n        /* \"#utility.yul\":13771:13791   */\n      sub\n        /* \"#utility.yul\":13767:13768   */\n      0x00\n        /* \"#utility.yul\":13756:13765   */\n      dup4\n        /* \"#utility.yul\":13752:13769   */\n      add\n        /* \"#utility.yul\":13745:13792   */\n      mstore\n        /* \"#utility.yul\":13809:13940   */\n      tag_334\n        /* \"#utility.yul\":13935:13939   */\n      dup2\n        /* \"#utility.yul\":13809:13940   */\n      tag_177\n      jump\t// in\n    tag_334:\n        /* \"#utility.yul\":13801:13940   */\n      swap1\n      pop\n        /* \"#utility.yul\":13528:13947   */\n      swap2\n      swap1\n      pop\n      jump\t// out\n\n    auxdata: 0xa2646970667358221220eb1f8ccd47453074ba41705027626f58429cb3c327ba210cc8ff10c3c611004464736f6c63430008170033\n}\n",
				"bytecode": {
					"linkReferences": {},
					"object": "608060405234801561000f575f80fd5b506112f48061001d5f395ff3fe608060405234801561000f575f80fd5b50600436106100b2575f3560e01c80638486ebcb1161006f5780638486ebcb146101ae57806386b5b252146101de5780638a4366c01461020e5780639cf42bc61461022a578063d32060971461025a578063f2a40db81461028a576100b2565b806316b621d6146100b65780631e010439146100e65780631f038e491461011657806323e673801461013257806336a31de51461014e5780634ca989971461017e575b5f80fd5b6100d060048036038101906100cb9190610b64565b6102be565b6040516100dd9190610bb1565b60405180910390f35b61010060048036038101906100fb9190610bca565b6102fc565b60405161010d9190610bb1565b60405180910390f35b610130600480360381019061012b9190610bf5565b610318565b005b61014c60048036038101906101479190610bf5565b6105a6565b005b61016860048036038101906101639190610b64565b610675565b6040516101759190610bb1565b60405180910390f35b61019860048036038101906101939190610b64565b6106b2565b6040516101a59190610bb1565b60405180910390f35b6101c860048036038101906101c39190610b64565b6106f0565b6040516101d59190610bb1565b60405180910390f35b6101f860048036038101906101f39190610d81565b61072e565b6040516102059190610e55565b60405180910390f35b61022860048036038101906102239190610d81565b6108bb565b005b610244600480360381019061023f9190610b64565b610967565b6040516102519190610e55565b60405180910390f35b610274600480360381019061026f9190610b64565b610a2c565b6040516102819190610bb1565b60405180910390f35b6102a4600480360381019061029f9190610bca565b610a69565b6040516102b5959493929190610e75565b60405180910390f35b5f805f8481526020019081526020015f2060050182815481106102e4576102e3610ecd565b5b905f5260205f20906002020160010154905092915050565b5f805f8381526020019081526020015f20600101549050919050565b60015f808581526020019081526020015f206002015414610337575f80fd5b60015f808481526020019081526020015f206002015414610356575f80fd5b805f808581526020019081526020015f20600101541015610375575f80fd5b805f808581526020019081526020015f206001015f8282546103979190610f27565b92505081905550805f808481526020019081526020015f206001015f8282546103c09190610f5a565b925050819055505f808481526020019081526020015f2060060160405180608001604052808581526020018481526020018381526020016040518060400160405280600481526020017f53656e7400000000000000000000000000000000000000000000000000000000815250815250908060018154018082558091505060019003905f5260205f2090600402015f909190919091505f820151815f0155602082015181600101556040820151816002015560608201518160030190816104879190611187565b5050505f808381526020019081526020015f2060060160405180608001604052808581526020018481526020018381526020016040518060400160405280600881526020017f5265636569766564000000000000000000000000000000000000000000000000815250815250908060018154018082558091505060019003905f5260205f2090600402015f909190919091505f820151815f01556020820151816001015560408201518160020155606082015181600301908161054a9190611187565b50505060015f808581526020019081526020015f206004015f8282546105709190610f5a565b9250508190555060015f808481526020019081526020015f206004015f82825461059a9190610f5a565b92505081905550505050565b60015f808581526020019081526020015f2060020154146105c5575f80fd5b60015f808481526020019081526020015f2060020154146105e4575f80fd5b5f808381526020019081526020015f20600501604051806040016040528085815260200183815250908060018154018082558091505060019003905f5260205f2090600202015f909190919091505f820151815f015560208201518160010155505060015f808481526020019081526020015f206003015f8282546106699190610f5a565b92505081905550505050565b5f805f8481526020019081526020015f20600501828154811061069b5761069a610ecd565b5b905f5260205f2090600202015f0154905092915050565b5f805f8481526020019081526020015f2060060182815481106106d8576106d7610ecd565b5b905f5260205f20906004020160020154905092915050565b5f805f8481526020019081526020015f20600601828154811061071657610715610ecd565b5b905f5260205f20906004020160010154905092915050565b60605f805f8581526020019081526020015f206002015403610787576040518060400160405280600181526020017f300000000000000000000000000000000000000000000000000000000000000081525090506108b5565b5f805f8581526020019081526020015f205f0180546107a590610fba565b80601f01602080910402602001604051908101604052809291908181526020018280546107d190610fba565b801561081c5780601f106107f35761010080835404028352916020019161081c565b820191905f5260205f20905b8154815290600101906020018083116107ff57829003601f168201915b505050505090505f8390505f6040518060400160405280600181526020017f3000000000000000000000000000000000000000000000000000000000000000815250905081805190602001208380519060200120036108ae576040518060400160405280600181526020017f310000000000000000000000000000000000000000000000000000000000000081525090505b8093505050505b92915050565b60015f808481526020019081526020015f206002015403610911576040517f08c379a0000000000000000000000000000000000000000000000000000000008152600401610908906112a0565b60405180910390fd5b805f808481526020019081526020015f205f0190816109309190611187565b5060645f808481526020019081526020015f206001018190555060015f808481526020019081526020015f20600201819055505050565b60605f808481526020019081526020015f20600601828154811061098e5761098d610ecd565b5b905f5260205f20906004020160030180546109a890610fba565b80601f01602080910402602001604051908101604052809291908181526020018280546109d490610fba565b8015610a1f5780601f106109f657610100808354040283529160200191610a1f565b820191905f5260205f20905b815481529060010190602001808311610a0257829003601f168201915b5050505050905092915050565b5f805f8481526020019081526020015f206006018281548110610a5257610a51610ecd565b5b905f5260205f2090600402015f0154905092915050565b5f602052805f5260405f205f91509050805f018054610a8790610fba565b80601f0160208091040260200160405190810160405280929190818152602001828054610ab390610fba565b8015610afe5780601f10610ad557610100808354040283529160200191610afe565b820191905f5260205f20905b815481529060010190602001808311610ae157829003601f168201915b5050505050908060010154908060020154908060030154908060040154905085565b5f604051905090565b5f80fd5b5f80fd5b5f819050919050565b610b4381610b31565b8114610b4d575f80fd5b50565b5f81359050610b5e81610b3a565b92915050565b5f8060408385031215610b7a57610b79610b29565b5b5f610b8785828601610b50565b9250506020610b9885828601610b50565b9150509250929050565b610bab81610b31565b82525050565b5f602082019050610bc45f830184610ba2565b92915050565b5f60208284031215610bdf57610bde610b29565b5b5f610bec84828501610b50565b91505092915050565b5f805f60608486031215610c0c57610c0b610b29565b5b5f610c1986828701610b50565b9350506020610c2a86828701610b50565b9250506040610c3b86828701610b50565b9150509250925092565b5f80fd5b5f80fd5b5f601f19601f8301169050919050565b7f4e487b71000000000000000000000000000000000000000000000000000000005f52604160045260245ffd5b610c9382610c4d565b810181811067ffffffffffffffff82111715610cb257610cb1610c5d565b5b80604052505050565b5f610cc4610b20565b9050610cd08282610c8a565b919050565b5f67ffffffffffffffff821115610cef57610cee610c5d565b5b610cf882610c4d565b9050602081019050919050565b828183375f83830152505050565b5f610d25610d2084610cd5565b610cbb565b905082815260208101848484011115610d4157610d40610c49565b5b610d4c848285610d05565b509392505050565b5f82601f830112610d6857610d67610c45565b5b8135610d78848260208601610d13565b91505092915050565b5f8060408385031215610d9757610d96610b29565b5b5f610da485828601610b50565b925050602083013567ffffffffffffffff811115610dc557610dc4610b2d565b5b610dd185828601610d54565b9150509250929050565b5f81519050919050565b5f82825260208201905092915050565b5f5b83811015610e12578082015181840152602081019050610df7565b5f8484015250505050565b5f610e2782610ddb565b610e318185610de5565b9350610e41818560208601610df5565b610e4a81610c4d565b840191505092915050565b5f6020820190508181035f830152610e6d8184610e1d565b905092915050565b5f60a0820190508181035f830152610e8d8188610e1d565b9050610e9c6020830187610ba2565b610ea96040830186610ba2565b610eb66060830185610ba2565b610ec36080830184610ba2565b9695505050505050565b7f4e487b71000000000000000000000000000000000000000000000000000000005f52603260045260245ffd5b7f4e487b71000000000000000000000000000000000000000000000000000000005f52601160045260245ffd5b5f610f3182610b31565b9150610f3c83610b31565b9250828203905081811115610f5457610f53610efa565b5b92915050565b5f610f6482610b31565b9150610f6f83610b31565b9250828201905080821115610f8757610f86610efa565b5b92915050565b7f4e487b71000000000000000000000000000000000000000000000000000000005f52602260045260245ffd5b5f6002820490506001821680610fd157607f821691505b602082108103610fe457610fe3610f8d565b5b50919050565b5f819050815f5260205f209050919050565b5f6020601f8301049050919050565b5f82821b905092915050565b5f600883026110467fffffffffffffffffffffffffffffffffffffffffffffffffffffffffffffffff8261100b565b611050868361100b565b95508019841693508086168417925050509392505050565b5f819050919050565b5f61108b61108661108184610b31565b611068565b610b31565b9050919050565b5f819050919050565b6110a483611071565b6110b86110b082611092565b848454611017565b825550505050565b5f90565b6110cc6110c0565b6110d781848461109b565b505050565b5b818110156110fa576110ef5f826110c4565b6001810190506110dd565b5050565b601f82111561113f5761111081610fea565b61111984610ffc565b81016020851015611128578190505b61113c61113485610ffc565b8301826110dc565b50505b505050565b5f82821c905092915050565b5f61115f5f1984600802611144565b1980831691505092915050565b5f6111778383611150565b9150826002028217905092915050565b61119082610ddb565b67ffffffffffffffff8111156111a9576111a8610c5d565b5b6111b38254610fba565b6111be8282856110fe565b5f60209050601f8311600181146111ef575f84156111dd578287015190505b6111e7858261116c565b86555061124e565b601f1984166111fd86610fea565b5f5b82811015611224578489015182556001820191506020850194506020810190506111ff565b86831015611241578489015161123d601f891682611150565b8355505b6001600288020188555050505b505050505050565b7f4163636f756e7420416c726561647920457869737473000000000000000000005f82015250565b5f61128a601683610de5565b915061129582611256565b602082019050919050565b5f6020820190508181035f8301526112b78161127e565b905091905056fea2646970667358221220eb1f8ccd47453074ba41705027626f58429cb3c327ba210cc8ff10c3c611004464736f6c63430008170033",
					"opcodes": "PUSH1 0x80 PUSH1 0x40 MSTORE CALLVALUE DUP1 ISZERO PUSH2 0xF JUMPI PUSH0 DUP1 REVERT JUMPDEST POP PUSH2 0x12F4 DUP1 PUSH2 0x1D PUSH0 CODECOPY PUSH0 RETURN INVALID PUSH1 0x80 PUSH1 0x40 MSTORE CALLVALUE DUP1 ISZERO PUSH2 0xF JUMPI PUSH0 DUP1 REVERT JUMPDEST POP PUSH1 0x4 CALLDATASIZE LT PUSH2 0xB2 JUMPI PUSH0 CALLDATALOAD PUSH1 0xE0 SHR DUP1 PUSH4 0x8486EBCB GT PUSH2 0x6F JUMPI DUP1 PUSH4 0x8486EBCB EQ PUSH2 0x1AE JUMPI DUP1 PUSH4 0x86B5B252 EQ PUSH2 0x1DE JUMPI DUP1 PUSH4 0x8A4366C0 EQ PUSH2 0x20E JUMPI DUP1 PUSH4 0x9CF42BC6 EQ PUSH2 0x22A JUMPI DUP1 PUSH4 0xD3206097 EQ PUSH2 0x25A JUMPI DUP1 PUSH4 0xF2A40DB8 EQ PUSH2 0x28A JUMPI PUSH2 0xB2 JUMP JUMPDEST DUP1 PUSH4 0x16B621D6 EQ PUSH2 0xB6 JUMPI DUP1 PUSH4 0x1E010439 EQ PUSH2 0xE6 JUMPI DUP1 PUSH4 0x1F038E49 EQ PUSH2 0x116 JUMPI DUP1 PUSH4 0x23E67380 EQ PUSH2 0x132 JUMPI DUP1 PUSH4 0x36A31DE5 EQ PUSH2 0x14E JUMPI DUP1 PUSH4 0x4CA98997 EQ PUSH2 0x17E JUMPI JUMPDEST PUSH0 DUP1 REVERT JUMPDEST PUSH2 0xD0 PUSH1 0x4 DUP1 CALLDATASIZE SUB DUP2 ADD SWAP1 PUSH2 0xCB SWAP2 SWAP1 PUSH2 0xB64 JUMP JUMPDEST PUSH2 0x2BE JUMP JUMPDEST PUSH1 0x40 MLOAD PUSH2 0xDD SWAP2 SWAP1 PUSH2 0xBB1 JUMP JUMPDEST PUSH1 0x40 MLOAD DUP1 SWAP2 SUB SWAP1 RETURN JUMPDEST PUSH2 0x100 PUSH1 0x4 DUP1 CALLDATASIZE SUB DUP2 ADD SWAP1 PUSH2 0xFB SWAP2 SWAP1 PUSH2 0xBCA JUMP JUMPDEST PUSH2 0x2FC JUMP JUMPDEST PUSH1 0x40 MLOAD PUSH2 0x10D SWAP2 SWAP1 PUSH2 0xBB1 JUMP JUMPDEST PUSH1 0x40 MLOAD DUP1 SWAP2 SUB SWAP1 RETURN JUMPDEST PUSH2 0x130 PUSH1 0x4 DUP1 CALLDATASIZE SUB DUP2 ADD SWAP1 PUSH2 0x12B SWAP2 SWAP1 PUSH2 0xBF5 JUMP JUMPDEST PUSH2 0x318 JUMP JUMPDEST STOP JUMPDEST PUSH2 0x14C PUSH1 0x4 DUP1 CALLDATASIZE SUB DUP2 ADD SWAP1 PUSH2 0x147 SWAP2 SWAP1 PUSH2 0xBF5 JUMP JUMPDEST PUSH2 0x5A6 JUMP JUMPDEST STOP JUMPDEST PUSH2 0x168 PUSH1 0x4 DUP1 CALLDATASIZE SUB DUP2 ADD SWAP1 PUSH2 0x163 SWAP2 SWAP1 PUSH2 0xB64 JUMP JUMPDEST PUSH2 0x675 JUMP JUMPDEST PUSH1 0x40 MLOAD PUSH2 0x175 SWAP2 SWAP1 PUSH2 0xBB1 JUMP JUMPDEST PUSH1 0x40 MLOAD DUP1 SWAP2 SUB SWAP1 RETURN JUMPDEST PUSH2 0x198 PUSH1 0x4 DUP1 CALLDATASIZE SUB DUP2 ADD SWAP1 PUSH2 0x193 SWAP2 SWAP1 PUSH2 0xB64 JUMP JUMPDEST PUSH2 0x6B2 JUMP JUMPDEST PUSH1 0x40 MLOAD PUSH2 0x1A5 SWAP2 SWAP1 PUSH2 0xBB1 JUMP JUMPDEST PUSH1 0x40 MLOAD DUP1 SWAP2 SUB SWAP1 RETURN JUMPDEST PUSH2 0x1C8 PUSH1 0x4 DUP1 CALLDATASIZE SUB DUP2 ADD SWAP1 PUSH2 0x1C3 SWAP2 SWAP1 PUSH2 0xB64 JUMP JUMPDEST PUSH2 0x6F0 JUMP JUMPDEST PUSH1 0x40 MLOAD PUSH2 0x1D5 SWAP2 SWAP1 PUSH2 0xBB1 JUMP JUMPDEST PUSH1 0x40 MLOAD DUP1 SWAP2 SUB SWAP1 RETURN JUMPDEST PUSH2 0x1F8 PUSH1 0x4 DUP1 CALLDATASIZE SUB DUP2 ADD SWAP1 PUSH2 0x1F3 SWAP2 SWAP1 PUSH2 0xD81 JUMP JUMPDEST PUSH2 0x72E JUMP JUMPDEST PUSH1 0x40 MLOAD PUSH2 0x205 SWAP2 SWAP1 PUSH2 0xE55 JUMP JUMPDEST PUSH1 0x40 MLOAD DUP1 SWAP2 SUB SWAP1 RETURN JUMPDEST PUSH2 0x228 PUSH1 0x4 DUP1 CALLDATASIZE SUB DUP2 ADD SWAP1 PUSH2 0x223 SWAP2 SWAP1 PUSH2 0xD81 JUMP JUMPDEST PUSH2 0x8BB JUMP JUMPDEST STOP JUMPDEST PUSH2 0x244 PUSH1 0x4 DUP1 CALLDATASIZE SUB DUP2 ADD SWAP1 PUSH2 0x23F SWAP2 SWAP1 PUSH2 0xB64 JUMP JUMPDEST PUSH2 0x967 JUMP JUMPDEST PUSH1 0x40 MLOAD PUSH2 0x251 SWAP2 SWAP1 PUSH2 0xE55 JUMP JUMPDEST PUSH1 0x40 MLOAD DUP1 SWAP2 SUB SWAP1 RETURN JUMPDEST PUSH2 0x274 PUSH1 0x4 DUP1 CALLDATASIZE SUB DUP2 ADD SWAP1 PUSH2 0x26F SWAP2 SWAP1 PUSH2 0xB64 JUMP JUMPDEST PUSH2 0xA2C JUMP JUMPDEST PUSH1 0x40 MLOAD PUSH2 0x281 SWAP2 SWAP1 PUSH2 0xBB1 JUMP JUMPDEST PUSH1 0x40 MLOAD DUP1 SWAP2 SUB SWAP1 RETURN JUMPDEST PUSH2 0x2A4 PUSH1 0x4 DUP1 CALLDATASIZE SUB DUP2 ADD SWAP1 PUSH2 0x29F SWAP2 SWAP1 PUSH2 0xBCA JUMP JUMPDEST PUSH2 0xA69 JUMP JUMPDEST PUSH1 0x40 MLOAD PUSH2 0x2B5 SWAP6 SWAP5 SWAP4 SWAP3 SWAP2 SWAP1 PUSH2 0xE75 JUMP JUMPDEST PUSH1 0x40 MLOAD DUP1 SWAP2 SUB SWAP1 RETURN JUMPDEST PUSH0 DUP1 PUSH0 DUP5 DUP2 MSTORE PUSH1 0x20 ADD SWAP1 DUP2 MSTORE PUSH1 0x20 ADD PUSH0 KECCAK256 PUSH1 0x5 ADD DUP3 DUP2 SLOAD DUP2 LT PUSH2 0x2E4 JUMPI PUSH2 0x2E3 PUSH2 0xECD JUMP JUMPDEST JUMPDEST SWAP1 PUSH0 MSTORE PUSH1 0x20 PUSH0 KECCAK256 SWAP1 PUSH1 0x2 MUL ADD PUSH1 0x1 ADD SLOAD SWAP1 POP SWAP3 SWAP2 POP POP JUMP JUMPDEST PUSH0 DUP1 PUSH0 DUP4 DUP2 MSTORE PUSH1 0x20 ADD SWAP1 DUP2 MSTORE PUSH1 0x20 ADD PUSH0 KECCAK256 PUSH1 0x1 ADD SLOAD SWAP1 POP SWAP2 SWAP1 POP JUMP JUMPDEST PUSH1 0x1 PUSH0 DUP1 DUP6 DUP2 MSTORE PUSH1 0x20 ADD SWAP1 DUP2 MSTORE PUSH1 0x20 ADD PUSH0 KECCAK256 PUSH1 0x2 ADD SLOAD EQ PUSH2 0x337 JUMPI PUSH0 DUP1 REVERT JUMPDEST PUSH1 0x1 PUSH0 DUP1 DUP5 DUP2 MSTORE PUSH1 0x20 ADD SWAP1 DUP2 MSTORE PUSH1 0x20 ADD PUSH0 KECCAK256 PUSH1 0x2 ADD SLOAD EQ PUSH2 0x356 JUMPI PUSH0 DUP1 REVERT JUMPDEST DUP1 PUSH0 DUP1 DUP6 DUP2 MSTORE PUSH1 0x20 ADD SWAP1 DUP2 MSTORE PUSH1 0x20 ADD PUSH0 KECCAK256 PUSH1 0x1 ADD SLOAD LT ISZERO PUSH2 0x375 JUMPI PUSH0 DUP1 REVERT JUMPDEST DUP1 PUSH0 DUP1 DUP6 DUP2 MSTORE PUSH1 0x20 ADD SWAP1 DUP2 MSTORE PUSH1 0x20 ADD PUSH0 KECCAK256 PUSH1 0x1 ADD PUSH0 DUP3 DUP3 SLOAD PUSH2 0x397 SWAP2 SWAP1 PUSH2 0xF27 JUMP JUMPDEST SWAP3 POP POP DUP2 SWAP1 SSTORE POP DUP1 PUSH0 DUP1 DUP5 DUP2 MSTORE PUSH1 0x20 ADD SWAP1 DUP2 MSTORE PUSH1 0x20 ADD PUSH0 KECCAK256 PUSH1 0x1 ADD PUSH0 DUP3 DUP3 SLOAD PUSH2 0x3C0 SWAP2 SWAP1 PUSH2 0xF5A JUMP JUMPDEST SWAP3 POP POP DUP2 SWAP1 SSTORE POP PUSH0 DUP1 DUP5 DUP2 MSTORE PUSH1 0x20 ADD SWAP1 DUP2 MSTORE PUSH1 0x20 ADD PUSH0 KECCAK256 PUSH1 0x6 ADD PUSH1 0x40 MLOAD DUP1 PUSH1 0x80 ADD PUSH1 0x40 MSTORE DUP1 DUP6 DUP2 MSTORE PUSH1 0x20 ADD DUP5 DUP2 MSTORE PUSH1 0x20 ADD DUP4 DUP2 MSTORE PUSH1 0x20 ADD PUSH1 0x40 MLOAD DUP1 PUSH1 0x40 ADD PUSH1 0x40 MSTORE DUP1 PUSH1 0x4 DUP2 MSTORE PUSH1 0x20 ADD PUSH32 0x53656E7400000000000000000000000000000000000000000000000000000000 DUP2 MSTORE POP DUP2 MSTORE POP SWAP1 DUP1 PUSH1 0x1 DUP2 SLOAD ADD DUP1 DUP3 SSTORE DUP1 SWAP2 POP POP PUSH1 0x1 SWAP1 SUB SWAP1 PUSH0 MSTORE PUSH1 0x20 PUSH0 KECCAK256 SWAP1 PUSH1 0x4 MUL ADD PUSH0 SWAP1 SWAP2 SWAP1 SWAP2 SWAP1 SWAP2 POP PUSH0 DUP3 ADD MLOAD DUP2 PUSH0 ADD SSTORE PUSH1 0x20 DUP3 ADD MLOAD DUP2 PUSH1 0x1 ADD SSTORE PUSH1 0x40 DUP3 ADD MLOAD DUP2 PUSH1 0x2 ADD SSTORE PUSH1 0x60 DUP3 ADD MLOAD DUP2 PUSH1 0x3 ADD SWAP1 DUP2 PUSH2 0x487 SWAP2 SWAP1 PUSH2 0x1187 JUMP JUMPDEST POP POP POP PUSH0 DUP1 DUP4 DUP2 MSTORE PUSH1 0x20 ADD SWAP1 DUP2 MSTORE PUSH1 0x20 ADD PUSH0 KECCAK256 PUSH1 0x6 ADD PUSH1 0x40 MLOAD DUP1 PUSH1 0x80 ADD PUSH1 0x40 MSTORE DUP1 DUP6 DUP2 MSTORE PUSH1 0x20 ADD DUP5 DUP2 MSTORE PUSH1 0x20 ADD DUP4 DUP2 MSTORE PUSH1 0x20 ADD PUSH1 0x40 MLOAD DUP1 PUSH1 0x40 ADD PUSH1 0x40 MSTORE DUP1 PUSH1 0x8 DUP2 MSTORE PUSH1 0x20 ADD PUSH32 0x5265636569766564000000000000000000000000000000000000000000000000 DUP2 MSTORE POP DUP2 MSTORE POP SWAP1 DUP1 PUSH1 0x1 DUP2 SLOAD ADD DUP1 DUP3 SSTORE DUP1 SWAP2 POP POP PUSH1 0x1 SWAP1 SUB SWAP1 PUSH0 MSTORE PUSH1 0x20 PUSH0 KECCAK256 SWAP1 PUSH1 0x4 MUL ADD PUSH0 SWAP1 SWAP2 SWAP1 SWAP2 SWAP1 SWAP2 POP PUSH0 DUP3 ADD MLOAD DUP2 PUSH0 ADD SSTORE PUSH1 0x20 DUP3 ADD MLOAD DUP2 PUSH1 0x1 ADD SSTORE PUSH1 0x40 DUP3 ADD MLOAD DUP2 PUSH1 0x2 ADD SSTORE PUSH1 0x60 DUP3 ADD MLOAD DUP2 PUSH1 0x3 ADD SWAP1 DUP2 PUSH2 0x54A SWAP2 SWAP1 PUSH2 0x1187 JUMP JUMPDEST POP POP POP PUSH1 0x1 PUSH0 DUP1 DUP6 DUP2 MSTORE PUSH1 0x20 ADD SWAP1 DUP2 MSTORE PUSH1 0x20 ADD PUSH0 KECCAK256 PUSH1 0x4 ADD PUSH0 DUP3 DUP3 SLOAD PUSH2 0x570 SWAP2 SWAP1 PUSH2 0xF5A JUMP JUMPDEST SWAP3 POP POP DUP2 SWAP1 SSTORE POP PUSH1 0x1 PUSH0 DUP1 DUP5 DUP2 MSTORE PUSH1 0x20 ADD SWAP1 DUP2 MSTORE PUSH1 0x20 ADD PUSH0 KECCAK256 PUSH1 0x4 ADD PUSH0 DUP3 DUP3 SLOAD PUSH2 0x59A SWAP2 SWAP1 PUSH2 0xF5A JUMP JUMPDEST SWAP3 POP POP DUP2 SWAP1 SSTORE POP POP POP POP JUMP JUMPDEST PUSH1 0x1 PUSH0 DUP1 DUP6 DUP2 MSTORE PUSH1 0x20 ADD SWAP1 DUP2 MSTORE PUSH1 0x20 ADD PUSH0 KECCAK256 PUSH1 0x2 ADD SLOAD EQ PUSH2 0x5C5 JUMPI PUSH0 DUP1 REVERT JUMPDEST PUSH1 0x1 PUSH0 DUP1 DUP5 DUP2 MSTORE PUSH1 0x20 ADD SWAP1 DUP2 MSTORE PUSH1 0x20 ADD PUSH0 KECCAK256 PUSH1 0x2 ADD SLOAD EQ PUSH2 0x5E4 JUMPI PUSH0 DUP1 REVERT JUMPDEST PUSH0 DUP1 DUP4 DUP2 MSTORE PUSH1 0x20 ADD SWAP1 DUP2 MSTORE PUSH1 0x20 ADD PUSH0 KECCAK256 PUSH1 0x5 ADD PUSH1 0x40 MLOAD DUP1 PUSH1 0x40 ADD PUSH1 0x40 MSTORE DUP1 DUP6 DUP2 MSTORE PUSH1 0x20 ADD DUP4 DUP2 MSTORE POP SWAP1 DUP1 PUSH1 0x1 DUP2 SLOAD ADD DUP1 DUP3 SSTORE DUP1 SWAP2 POP POP PUSH1 0x1 SWAP1 SUB SWAP1 PUSH0 MSTORE PUSH1 0x20 PUSH0 KECCAK256 SWAP1 PUSH1 0x2 MUL ADD PUSH0 SWAP1 SWAP2 SWAP1 SWAP2 SWAP1 SWAP2 POP PUSH0 DUP3 ADD MLOAD DUP2 PUSH0 ADD SSTORE PUSH1 0x20 DUP3 ADD MLOAD DUP2 PUSH1 0x1 ADD SSTORE POP POP PUSH1 0x1 PUSH0 DUP1 DUP5 DUP2 MSTORE PUSH1 0x20 ADD SWAP1 DUP2 MSTORE PUSH1 0x20 ADD PUSH0 KECCAK256 PUSH1 0x3 ADD PUSH0 DUP3 DUP3 SLOAD PUSH2 0x669 SWAP2 SWAP1 PUSH2 0xF5A JUMP JUMPDEST SWAP3 POP POP DUP2 SWAP1 SSTORE POP POP POP POP JUMP JUMPDEST PUSH0 DUP1 PUSH0 DUP5 DUP2 MSTORE PUSH1 0x20 ADD SWAP1 DUP2 MSTORE PUSH1 0x20 ADD PUSH0 KECCAK256 PUSH1 0x5 ADD DUP3 DUP2 SLOAD DUP2 LT PUSH2 0x69B JUMPI PUSH2 0x69A PUSH2 0xECD JUMP JUMPDEST JUMPDEST SWAP1 PUSH0 MSTORE PUSH1 0x20 PUSH0 KECCAK256 SWAP1 PUSH1 0x2 MUL ADD PUSH0 ADD SLOAD SWAP1 POP SWAP3 SWAP2 POP POP JUMP JUMPDEST PUSH0 DUP1 PUSH0 DUP5 DUP2 MSTORE PUSH1 0x20 ADD SWAP1 DUP2 MSTORE PUSH1 0x20 ADD PUSH0 KECCAK256 PUSH1 0x6 ADD DUP3 DUP2 SLOAD DUP2 LT PUSH2 0x6D8 JUMPI PUSH2 0x6D7 PUSH2 0xECD JUMP JUMPDEST JUMPDEST SWAP1 PUSH0 MSTORE PUSH1 0x20 PUSH0 KECCAK256 SWAP1 PUSH1 0x4 MUL ADD PUSH1 0x2 ADD SLOAD SWAP1 POP SWAP3 SWAP2 POP POP JUMP JUMPDEST PUSH0 DUP1 PUSH0 DUP5 DUP2 MSTORE PUSH1 0x20 ADD SWAP1 DUP2 MSTORE PUSH1 0x20 ADD PUSH0 KECCAK256 PUSH1 0x6 ADD DUP3 DUP2 SLOAD DUP2 LT PUSH2 0x716 JUMPI PUSH2 0x715 PUSH2 0xECD JUMP JUMPDEST JUMPDEST SWAP1 PUSH0 MSTORE PUSH1 0x20 PUSH0 KECCAK256 SWAP1 PUSH1 0x4 MUL ADD PUSH1 0x1 ADD SLOAD SWAP1 POP SWAP3 SWAP2 POP POP JUMP JUMPDEST PUSH1 0x60 PUSH0 DUP1 PUSH0 DUP6 DUP2 MSTORE PUSH1 0x20 ADD SWAP1 DUP2 MSTORE PUSH1 0x20 ADD PUSH0 KECCAK256 PUSH1 0x2 ADD SLOAD SUB PUSH2 0x787 JUMPI PUSH1 0x40 MLOAD DUP1 PUSH1 0x40 ADD PUSH1 0x40 MSTORE DUP1 PUSH1 0x1 DUP2 MSTORE PUSH1 0x20 ADD PUSH32 0x3000000000000000000000000000000000000000000000000000000000000000 DUP2 MSTORE POP SWAP1 POP PUSH2 0x8B5 JUMP JUMPDEST PUSH0 DUP1 PUSH0 DUP6 DUP2 MSTORE PUSH1 0x20 ADD SWAP1 DUP2 MSTORE PUSH1 0x20 ADD PUSH0 KECCAK256 PUSH0 ADD DUP1 SLOAD PUSH2 0x7A5 SWAP1 PUSH2 0xFBA JUMP JUMPDEST DUP1 PUSH1 0x1F ADD PUSH1 0x20 DUP1 SWAP2 DIV MUL PUSH1 0x20 ADD PUSH1 0x40 MLOAD SWAP1 DUP2 ADD PUSH1 0x40 MSTORE DUP1 SWAP3 SWAP2 SWAP1 DUP2 DUP2 MSTORE PUSH1 0x20 ADD DUP3 DUP1 SLOAD PUSH2 0x7D1 SWAP1 PUSH2 0xFBA JUMP JUMPDEST DUP1 ISZERO PUSH2 0x81C JUMPI DUP1 PUSH1 0x1F LT PUSH2 0x7F3 JUMPI PUSH2 0x100 DUP1 DUP4 SLOAD DIV MUL DUP4 MSTORE SWAP2 PUSH1 0x20 ADD SWAP2 PUSH2 0x81C JUMP JUMPDEST DUP3 ADD SWAP2 SWAP1 PUSH0 MSTORE PUSH1 0x20 PUSH0 KECCAK256 SWAP1 JUMPDEST DUP2 SLOAD DUP2 MSTORE SWAP1 PUSH1 0x1 ADD SWAP1 PUSH1 0x20 ADD DUP1 DUP4 GT PUSH2 0x7FF JUMPI DUP3 SWAP1 SUB PUSH1 0x1F AND DUP3 ADD SWAP2 JUMPDEST POP POP POP POP POP SWAP1 POP PUSH0 DUP4 SWAP1 POP PUSH0 PUSH1 0x40 MLOAD DUP1 PUSH1 0x40 ADD PUSH1 0x40 MSTORE DUP1 PUSH1 0x1 DUP2 MSTORE PUSH1 0x20 ADD PUSH32 0x3000000000000000000000000000000000000000000000000000000000000000 DUP2 MSTORE POP SWAP1 POP DUP2 DUP1 MLOAD SWAP1 PUSH1 0x20 ADD KECCAK256 DUP4 DUP1 MLOAD SWAP1 PUSH1 0x20 ADD KECCAK256 SUB PUSH2 0x8AE JUMPI PUSH1 0x40 MLOAD DUP1 PUSH1 0x40 ADD PUSH1 0x40 MSTORE DUP1 PUSH1 0x1 DUP2 MSTORE PUSH1 0x20 ADD PUSH32 0x3100000000000000000000000000000000000000000000000000000000000000 DUP2 MSTORE POP SWAP1 POP JUMPDEST DUP1 SWAP4 POP POP POP POP JUMPDEST SWAP3 SWAP2 POP POP JUMP JUMPDEST PUSH1 0x1 PUSH0 DUP1 DUP5 DUP2 MSTORE PUSH1 0x20 ADD SWAP1 DUP2 MSTORE PUSH1 0x20 ADD PUSH0 KECCAK256 PUSH1 0x2 ADD SLOAD SUB PUSH2 0x911 JUMPI PUSH1 0x40 MLOAD PUSH32 0x8C379A000000000000000000000000000000000000000000000000000000000 DUP2 MSTORE PUSH1 0x4 ADD PUSH2 0x908 SWAP1 PUSH2 0x12A0 JUMP JUMPDEST PUSH1 0x40 MLOAD DUP1 SWAP2 SUB SWAP1 REVERT JUMPDEST DUP1 PUSH0 DUP1 DUP5 DUP2 MSTORE PUSH1 0x20 ADD SWAP1 DUP2 MSTORE PUSH1 0x20 ADD PUSH0 KECCAK256 PUSH0 ADD SWAP1 DUP2 PUSH2 0x930 SWAP2 SWAP1 PUSH2 0x1187 JUMP JUMPDEST POP PUSH1 0x64 PUSH0 DUP1 DUP5 DUP2 MSTORE PUSH1 0x20 ADD SWAP1 DUP2 MSTORE PUSH1 0x20 ADD PUSH0 KECCAK256 PUSH1 0x1 ADD DUP2 SWAP1 SSTORE POP PUSH1 0x1 PUSH0 DUP1 DUP5 DUP2 MSTORE PUSH1 0x20 ADD SWAP1 DUP2 MSTORE PUSH1 0x20 ADD PUSH0 KECCAK256 PUSH1 0x2 ADD DUP2 SWAP1 SSTORE POP POP POP JUMP JUMPDEST PUSH1 0x60 PUSH0 DUP1 DUP5 DUP2 MSTORE PUSH1 0x20 ADD SWAP1 DUP2 MSTORE PUSH1 0x20 ADD PUSH0 KECCAK256 PUSH1 0x6 ADD DUP3 DUP2 SLOAD DUP2 LT PUSH2 0x98E JUMPI PUSH2 0x98D PUSH2 0xECD JUMP JUMPDEST JUMPDEST SWAP1 PUSH0 MSTORE PUSH1 0x20 PUSH0 KECCAK256 SWAP1 PUSH1 0x4 MUL ADD PUSH1 0x3 ADD DUP1 SLOAD PUSH2 0x9A8 SWAP1 PUSH2 0xFBA JUMP JUMPDEST DUP1 PUSH1 0x1F ADD PUSH1 0x20 DUP1 SWAP2 DIV MUL PUSH1 0x20 ADD PUSH1 0x40 MLOAD SWAP1 DUP2 ADD PUSH1 0x40 MSTORE DUP1 SWAP3 SWAP2 SWAP1 DUP2 DUP2 MSTORE PUSH1 0x20 ADD DUP3 DUP1 SLOAD PUSH2 0x9D4 SWAP1 PUSH2 0xFBA JUMP JUMPDEST DUP1 ISZERO PUSH2 0xA1F JUMPI DUP1 PUSH1 0x1F LT PUSH2 0x9F6 JUMPI PUSH2 0x100 DUP1 DUP4 SLOAD DIV MUL DUP4 MSTORE SWAP2 PUSH1 0x20 ADD SWAP2 PUSH2 0xA1F JUMP JUMPDEST DUP3 ADD SWAP2 SWAP1 PUSH0 MSTORE PUSH1 0x20 PUSH0 KECCAK256 SWAP1 JUMPDEST DUP2 SLOAD DUP2 MSTORE SWAP1 PUSH1 0x1 ADD SWAP1 PUSH1 0x20 ADD DUP1 DUP4 GT PUSH2 0xA02 JUMPI DUP3 SWAP1 SUB PUSH1 0x1F AND DUP3 ADD SWAP2 JUMPDEST POP POP POP POP POP SWAP1 POP SWAP3 SWAP2 POP POP JUMP JUMPDEST PUSH0 DUP1 PUSH0 DUP5 DUP2 MSTORE PUSH1 0x20 ADD SWAP1 DUP2 MSTORE PUSH1 0x20 ADD PUSH0 KECCAK256 PUSH1 0x6 ADD DUP3 DUP2 SLOAD DUP2 LT PUSH2 0xA52 JUMPI PUSH2 0xA51 PUSH2 0xECD JUMP JUMPDEST JUMPDEST SWAP1 PUSH0 MSTORE PUSH1 0x20 PUSH0 KECCAK256 SWAP1 PUSH1 0x4 MUL ADD PUSH0 ADD SLOAD SWAP1 POP SWAP3 SWAP2 POP POP JUMP JUMPDEST PUSH0 PUSH1 0x20 MSTORE DUP1 PUSH0 MSTORE PUSH1 0x40 PUSH0 KECCAK256 PUSH0 SWAP2 POP SWAP1 POP DUP1 PUSH0 ADD DUP1 SLOAD PUSH2 0xA87 SWAP1 PUSH2 0xFBA JUMP JUMPDEST DUP1 PUSH1 0x1F ADD PUSH1 0x20 DUP1 SWAP2 DIV MUL PUSH1 0x20 ADD PUSH1 0x40 MLOAD SWAP1 DUP2 ADD PUSH1 0x40 MSTORE DUP1 SWAP3 SWAP2 SWAP1 DUP2 DUP2 MSTORE PUSH1 0x20 ADD DUP3 DUP1 SLOAD PUSH2 0xAB3 SWAP1 PUSH2 0xFBA JUMP JUMPDEST DUP1 ISZERO PUSH2 0xAFE JUMPI DUP1 PUSH1 0x1F LT PUSH2 0xAD5 JUMPI PUSH2 0x100 DUP1 DUP4 SLOAD DIV MUL DUP4 MSTORE SWAP2 PUSH1 0x20 ADD SWAP2 PUSH2 0xAFE JUMP JUMPDEST DUP3 ADD SWAP2 SWAP1 PUSH0 MSTORE PUSH1 0x20 PUSH0 KECCAK256 SWAP1 JUMPDEST DUP2 SLOAD DUP2 MSTORE SWAP1 PUSH1 0x1 ADD SWAP1 PUSH1 0x20 ADD DUP1 DUP4 GT PUSH2 0xAE1 JUMPI DUP3 SWAP1 SUB PUSH1 0x1F AND DUP3 ADD SWAP2 JUMPDEST POP POP POP POP POP SWAP1 DUP1 PUSH1 0x1 ADD SLOAD SWAP1 DUP1 PUSH1 0x2 ADD SLOAD SWAP1 DUP1 PUSH1 0x3 ADD SLOAD SWAP1 DUP1 PUSH1 0x4 ADD SLOAD SWAP1 POP DUP6 JUMP JUMPDEST PUSH0 PUSH1 0x40 MLOAD SWAP1 POP SWAP1 JUMP JUMPDEST PUSH0 DUP1 REVERT JUMPDEST PUSH0 DUP1 REVERT JUMPDEST PUSH0 DUP2 SWAP1 POP SWAP2 SWAP1 POP JUMP JUMPDEST PUSH2 0xB43 DUP2 PUSH2 0xB31 JUMP JUMPDEST DUP2 EQ PUSH2 0xB4D JUMPI PUSH0 DUP1 REVERT JUMPDEST POP JUMP JUMPDEST PUSH0 DUP2 CALLDATALOAD SWAP1 POP PUSH2 0xB5E DUP2 PUSH2 0xB3A JUMP JUMPDEST SWAP3 SWAP2 POP POP JUMP JUMPDEST PUSH0 DUP1 PUSH1 0x40 DUP4 DUP6 SUB SLT ISZERO PUSH2 0xB7A JUMPI PUSH2 0xB79 PUSH2 0xB29 JUMP JUMPDEST JUMPDEST PUSH0 PUSH2 0xB87 DUP6 DUP3 DUP7 ADD PUSH2 0xB50 JUMP JUMPDEST SWAP3 POP POP PUSH1 0x20 PUSH2 0xB98 DUP6 DUP3 DUP7 ADD PUSH2 0xB50 JUMP JUMPDEST SWAP2 POP POP SWAP3 POP SWAP3 SWAP1 POP JUMP JUMPDEST PUSH2 0xBAB DUP2 PUSH2 0xB31 JUMP JUMPDEST DUP3 MSTORE POP POP JUMP JUMPDEST PUSH0 PUSH1 0x20 DUP3 ADD SWAP1 POP PUSH2 0xBC4 PUSH0 DUP4 ADD DUP5 PUSH2 0xBA2 JUMP JUMPDEST SWAP3 SWAP2 POP POP JUMP JUMPDEST PUSH0 PUSH1 0x20 DUP3 DUP5 SUB SLT ISZERO PUSH2 0xBDF JUMPI PUSH2 0xBDE PUSH2 0xB29 JUMP JUMPDEST JUMPDEST PUSH0 PUSH2 0xBEC DUP5 DUP3 DUP6 ADD PUSH2 0xB50 JUMP JUMPDEST SWAP2 POP POP SWAP3 SWAP2 POP POP JUMP JUMPDEST PUSH0 DUP1 PUSH0 PUSH1 0x60 DUP5 DUP7 SUB SLT ISZERO PUSH2 0xC0C JUMPI PUSH2 0xC0B PUSH2 0xB29 JUMP JUMPDEST JUMPDEST PUSH0 PUSH2 0xC19 DUP7 DUP3 DUP8 ADD PUSH2 0xB50 JUMP JUMPDEST SWAP4 POP POP PUSH1 0x20 PUSH2 0xC2A DUP7 DUP3 DUP8 ADD PUSH2 0xB50 JUMP JUMPDEST SWAP3 POP POP PUSH1 0x40 PUSH2 0xC3B DUP7 DUP3 DUP8 ADD PUSH2 0xB50 JUMP JUMPDEST SWAP2 POP POP SWAP3 POP SWAP3 POP SWAP3 JUMP JUMPDEST PUSH0 DUP1 REVERT JUMPDEST PUSH0 DUP1 REVERT JUMPDEST PUSH0 PUSH1 0x1F NOT PUSH1 0x1F DUP4 ADD AND SWAP1 POP SWAP2 SWAP1 POP JUMP JUMPDEST PUSH32 0x4E487B7100000000000000000000000000000000000000000000000000000000 PUSH0 MSTORE PUSH1 0x41 PUSH1 0x4 MSTORE PUSH1 0x24 PUSH0 REVERT JUMPDEST PUSH2 0xC93 DUP3 PUSH2 0xC4D JUMP JUMPDEST DUP2 ADD DUP2 DUP2 LT PUSH8 0xFFFFFFFFFFFFFFFF DUP3 GT OR ISZERO PUSH2 0xCB2 JUMPI PUSH2 0xCB1 PUSH2 0xC5D JUMP JUMPDEST JUMPDEST DUP1 PUSH1 0x40 MSTORE POP POP POP JUMP JUMPDEST PUSH0 PUSH2 0xCC4 PUSH2 0xB20 JUMP JUMPDEST SWAP1 POP PUSH2 0xCD0 DUP3 DUP3 PUSH2 0xC8A JUMP JUMPDEST SWAP2 SWAP1 POP JUMP JUMPDEST PUSH0 PUSH8 0xFFFFFFFFFFFFFFFF DUP3 GT ISZERO PUSH2 0xCEF JUMPI PUSH2 0xCEE PUSH2 0xC5D JUMP JUMPDEST JUMPDEST PUSH2 0xCF8 DUP3 PUSH2 0xC4D JUMP JUMPDEST SWAP1 POP PUSH1 0x20 DUP2 ADD SWAP1 POP SWAP2 SWAP1 POP JUMP JUMPDEST DUP3 DUP2 DUP4 CALLDATACOPY PUSH0 DUP4 DUP4 ADD MSTORE POP POP POP JUMP JUMPDEST PUSH0 PUSH2 0xD25 PUSH2 0xD20 DUP5 PUSH2 0xCD5 JUMP JUMPDEST PUSH2 0xCBB JUMP JUMPDEST SWAP1 POP DUP3 DUP2 MSTORE PUSH1 0x20 DUP2 ADD DUP5 DUP5 DUP5 ADD GT ISZERO PUSH2 0xD41 JUMPI PUSH2 0xD40 PUSH2 0xC49 JUMP JUMPDEST JUMPDEST PUSH2 0xD4C DUP5 DUP3 DUP6 PUSH2 0xD05 JUMP JUMPDEST POP SWAP4 SWAP3 POP POP POP JUMP JUMPDEST PUSH0 DUP3 PUSH1 0x1F DUP4 ADD SLT PUSH2 0xD68 JUMPI PUSH2 0xD67 PUSH2 0xC45 JUMP JUMPDEST JUMPDEST DUP2 CALLDATALOAD PUSH2 0xD78 DUP5 DUP3 PUSH1 0x20 DUP7 ADD PUSH2 0xD13 JUMP JUMPDEST SWAP2 POP POP SWAP3 SWAP2 POP POP JUMP JUMPDEST PUSH0 DUP1 PUSH1 0x40 DUP4 DUP6 SUB SLT ISZERO PUSH2 0xD97 JUMPI PUSH2 0xD96 PUSH2 0xB29 JUMP JUMPDEST JUMPDEST PUSH0 PUSH2 0xDA4 DUP6 DUP3 DUP7 ADD PUSH2 0xB50 JUMP JUMPDEST SWAP3 POP POP PUSH1 0x20 DUP4 ADD CALLDATALOAD PUSH8 0xFFFFFFFFFFFFFFFF DUP2 GT ISZERO PUSH2 0xDC5 JUMPI PUSH2 0xDC4 PUSH2 0xB2D JUMP JUMPDEST JUMPDEST PUSH2 0xDD1 DUP6 DUP3 DUP7 ADD PUSH2 0xD54 JUMP JUMPDEST SWAP2 POP POP SWAP3 POP SWAP3 SWAP1 POP JUMP JUMPDEST PUSH0 DUP2 MLOAD SWAP1 POP SWAP2 SWAP1 POP JUMP JUMPDEST PUSH0 DUP3 DUP3 MSTORE PUSH1 0x20 DUP3 ADD SWAP1 POP SWAP3 SWAP2 POP POP JUMP JUMPDEST PUSH0 JUMPDEST DUP4 DUP2 LT ISZERO PUSH2 0xE12 JUMPI DUP1 DUP3 ADD MLOAD DUP2 DUP5 ADD MSTORE PUSH1 0x20 DUP2 ADD SWAP1 POP PUSH2 0xDF7 JUMP JUMPDEST PUSH0 DUP5 DUP5 ADD MSTORE POP POP POP POP JUMP JUMPDEST PUSH0 PUSH2 0xE27 DUP3 PUSH2 0xDDB JUMP JUMPDEST PUSH2 0xE31 DUP2 DUP6 PUSH2 0xDE5 JUMP JUMPDEST SWAP4 POP PUSH2 0xE41 DUP2 DUP6 PUSH1 0x20 DUP7 ADD PUSH2 0xDF5 JUMP JUMPDEST PUSH2 0xE4A DUP2 PUSH2 0xC4D JUMP JUMPDEST DUP5 ADD SWAP2 POP POP SWAP3 SWAP2 POP POP JUMP JUMPDEST PUSH0 PUSH1 0x20 DUP3 ADD SWAP1 POP DUP2 DUP2 SUB PUSH0 DUP4 ADD MSTORE PUSH2 0xE6D DUP2 DUP5 PUSH2 0xE1D JUMP JUMPDEST SWAP1 POP SWAP3 SWAP2 POP POP JUMP JUMPDEST PUSH0 PUSH1 0xA0 DUP3 ADD SWAP1 POP DUP2 DUP2 SUB PUSH0 DUP4 ADD MSTORE PUSH2 0xE8D DUP2 DUP9 PUSH2 0xE1D JUMP JUMPDEST SWAP1 POP PUSH2 0xE9C PUSH1 0x20 DUP4 ADD DUP8 PUSH2 0xBA2 JUMP JUMPDEST PUSH2 0xEA9 PUSH1 0x40 DUP4 ADD DUP7 PUSH2 0xBA2 JUMP JUMPDEST PUSH2 0xEB6 PUSH1 0x60 DUP4 ADD DUP6 PUSH2 0xBA2 JUMP JUMPDEST PUSH2 0xEC3 PUSH1 0x80 DUP4 ADD DUP5 PUSH2 0xBA2 JUMP JUMPDEST SWAP7 SWAP6 POP POP POP POP POP POP JUMP JUMPDEST PUSH32 0x4E487B7100000000000000000000000000000000000000000000000000000000 PUSH0 MSTORE PUSH1 0x32 PUSH1 0x4 MSTORE PUSH1 0x24 PUSH0 REVERT JUMPDEST PUSH32 0x4E487B7100000000000000000000000000000000000000000000000000000000 PUSH0 MSTORE PUSH1 0x11 PUSH1 0x4 MSTORE PUSH1 0x24 PUSH0 REVERT JUMPDEST PUSH0 PUSH2 0xF31 DUP3 PUSH2 0xB31 JUMP JUMPDEST SWAP2 POP PUSH2 0xF3C DUP4 PUSH2 0xB31 JUMP JUMPDEST SWAP3 POP DUP3 DUP3 SUB SWAP1 POP DUP2 DUP2 GT ISZERO PUSH2 0xF54 JUMPI PUSH2 0xF53 PUSH2 0xEFA JUMP JUMPDEST JUMPDEST SWAP3 SWAP2 POP POP JUMP JUMPDEST PUSH0 PUSH2 0xF64 DUP3 PUSH2 0xB31 JUMP JUMPDEST SWAP2 POP PUSH2 0xF6F DUP4 PUSH2 0xB31 JUMP JUMPDEST SWAP3 POP DUP3 DUP3 ADD SWAP1 POP DUP1 DUP3 GT ISZERO PUSH2 0xF87 JUMPI PUSH2 0xF86 PUSH2 0xEFA JUMP JUMPDEST JUMPDEST SWAP3 SWAP2 POP POP JUMP JUMPDEST PUSH32 0x4E487B7100000000000000000000000000000000000000000000000000000000 PUSH0 MSTORE PUSH1 0x22 PUSH1 0x4 MSTORE PUSH1 0x24 PUSH0 REVERT JUMPDEST PUSH0 PUSH1 0x2 DUP3 DIV SWAP1 POP PUSH1 0x1 DUP3 AND DUP1 PUSH2 0xFD1 JUMPI PUSH1 0x7F DUP3 AND SWAP2 POP JUMPDEST PUSH1 0x20 DUP3 LT DUP2 SUB PUSH2 0xFE4 JUMPI PUSH2 0xFE3 PUSH2 0xF8D JUMP JUMPDEST JUMPDEST POP SWAP2 SWAP1 POP JUMP JUMPDEST PUSH0 DUP2 SWAP1 POP DUP2 PUSH0 MSTORE PUSH1 0x20 PUSH0 KECCAK256 SWAP1 POP SWAP2 SWAP1 POP JUMP JUMPDEST PUSH0 PUSH1 0x20 PUSH1 0x1F DUP4 ADD DIV SWAP1 POP SWAP2 SWAP1 POP JUMP JUMPDEST PUSH0 DUP3 DUP3 SHL SWAP1 POP SWAP3 SWAP2 POP POP JUMP JUMPDEST PUSH0 PUSH1 0x8 DUP4 MUL PUSH2 0x1046 PUSH32 0xFFFFFFFFFFFFFFFFFFFFFFFFFFFFFFFFFFFFFFFFFFFFFFFFFFFFFFFFFFFFFFFF DUP3 PUSH2 0x100B JUMP JUMPDEST PUSH2 0x1050 DUP7 DUP4 PUSH2 0x100B JUMP JUMPDEST SWAP6 POP DUP1 NOT DUP5 AND SWAP4 POP DUP1 DUP7 AND DUP5 OR SWAP3 POP POP POP SWAP4 SWAP3 POP POP POP JUMP JUMPDEST PUSH0 DUP2 SWAP1 POP SWAP2 SWAP1 POP JUMP JUMPDEST PUSH0 PUSH2 0x108B PUSH2 0x1086 PUSH2 0x1081 DUP5 PUSH2 0xB31 JUMP JUMPDEST PUSH2 0x1068 JUMP JUMPDEST PUSH2 0xB31 JUMP JUMPDEST SWAP1 POP SWAP2 SWAP1 POP JUMP JUMPDEST PUSH0 DUP2 SWAP1 POP SWAP2 SWAP1 POP JUMP JUMPDEST PUSH2 0x10A4 DUP4 PUSH2 0x1071 JUMP JUMPDEST PUSH2 0x10B8 PUSH2 0x10B0 DUP3 PUSH2 0x1092 JUMP JUMPDEST DUP5 DUP5 SLOAD PUSH2 0x1017 JUMP JUMPDEST DUP3 SSTORE POP POP POP POP JUMP JUMPDEST PUSH0 SWAP1 JUMP JUMPDEST PUSH2 0x10CC PUSH2 0x10C0 JUMP JUMPDEST PUSH2 0x10D7 DUP2 DUP5 DUP5 PUSH2 0x109B JUMP JUMPDEST POP POP POP JUMP JUMPDEST JUMPDEST DUP2 DUP2 LT ISZERO PUSH2 0x10FA JUMPI PUSH2 0x10EF PUSH0 DUP3 PUSH2 0x10C4 JUMP JUMPDEST PUSH1 0x1 DUP2 ADD SWAP1 POP PUSH2 0x10DD JUMP JUMPDEST POP POP JUMP JUMPDEST PUSH1 0x1F DUP3 GT ISZERO PUSH2 0x113F JUMPI PUSH2 0x1110 DUP2 PUSH2 0xFEA JUMP JUMPDEST PUSH2 0x1119 DUP5 PUSH2 0xFFC JUMP JUMPDEST DUP2 ADD PUSH1 0x20 DUP6 LT ISZERO PUSH2 0x1128 JUMPI DUP2 SWAP1 POP JUMPDEST PUSH2 0x113C PUSH2 0x1134 DUP6 PUSH2 0xFFC JUMP JUMPDEST DUP4 ADD DUP3 PUSH2 0x10DC JUMP JUMPDEST POP POP JUMPDEST POP POP POP JUMP JUMPDEST PUSH0 DUP3 DUP3 SHR SWAP1 POP SWAP3 SWAP2 POP POP JUMP JUMPDEST PUSH0 PUSH2 0x115F PUSH0 NOT DUP5 PUSH1 0x8 MUL PUSH2 0x1144 JUMP JUMPDEST NOT DUP1 DUP4 AND SWAP2 POP POP SWAP3 SWAP2 POP POP JUMP JUMPDEST PUSH0 PUSH2 0x1177 DUP4 DUP4 PUSH2 0x1150 JUMP JUMPDEST SWAP2 POP DUP3 PUSH1 0x2 MUL DUP3 OR SWAP1 POP SWAP3 SWAP2 POP POP JUMP JUMPDEST PUSH2 0x1190 DUP3 PUSH2 0xDDB JUMP JUMPDEST PUSH8 0xFFFFFFFFFFFFFFFF DUP2 GT ISZERO PUSH2 0x11A9 JUMPI PUSH2 0x11A8 PUSH2 0xC5D JUMP JUMPDEST JUMPDEST PUSH2 0x11B3 DUP3 SLOAD PUSH2 0xFBA JUMP JUMPDEST PUSH2 0x11BE DUP3 DUP3 DUP6 PUSH2 0x10FE JUMP JUMPDEST PUSH0 PUSH1 0x20 SWAP1 POP PUSH1 0x1F DUP4 GT PUSH1 0x1 DUP2 EQ PUSH2 0x11EF JUMPI PUSH0 DUP5 ISZERO PUSH2 0x11DD JUMPI DUP3 DUP8 ADD MLOAD SWAP1 POP JUMPDEST PUSH2 0x11E7 DUP6 DUP3 PUSH2 0x116C JUMP JUMPDEST DUP7 SSTORE POP PUSH2 0x124E JUMP JUMPDEST PUSH1 0x1F NOT DUP5 AND PUSH2 0x11FD DUP7 PUSH2 0xFEA JUMP JUMPDEST PUSH0 JUMPDEST DUP3 DUP2 LT ISZERO PUSH2 0x1224 JUMPI DUP5 DUP10 ADD MLOAD DUP3 SSTORE PUSH1 0x1 DUP3 ADD SWAP2 POP PUSH1 0x20 DUP6 ADD SWAP5 POP PUSH1 0x20 DUP2 ADD SWAP1 POP PUSH2 0x11FF JUMP JUMPDEST DUP7 DUP4 LT ISZERO PUSH2 0x1241 JUMPI DUP5 DUP10 ADD MLOAD PUSH2 0x123D PUSH1 0x1F DUP10 AND DUP3 PUSH2 0x1150 JUMP JUMPDEST DUP4 SSTORE POP JUMPDEST PUSH1 0x1 PUSH1 0x2 DUP9 MUL ADD DUP9 SSTORE POP POP POP JUMPDEST POP POP POP POP POP POP JUMP JUMPDEST PUSH32 0x4163636F756E7420416C72656164792045786973747300000000000000000000 PUSH0 DUP3 ADD MSTORE POP JUMP JUMPDEST PUSH0 PUSH2 0x128A PUSH1 0x16 DUP4 PUSH2 0xDE5 JUMP JUMPDEST SWAP2 POP PUSH2 0x1295 DUP3 PUSH2 0x1256 JUMP JUMPDEST PUSH1 0x20 DUP3 ADD SWAP1 POP SWAP2 SWAP1 POP JUMP JUMPDEST PUSH0 PUSH1 0x20 DUP3 ADD SWAP1 POP DUP2 DUP2 SUB PUSH0 DUP4 ADD MSTORE PUSH2 0x12B7 DUP2 PUSH2 0x127E JUMP JUMPDEST SWAP1 POP SWAP2 SWAP1 POP JUMP INVALID LOG2 PUSH5 0x6970667358 0x22 SLT KECCAK256 0xEB 0x1F DUP13 0xCD SELFBALANCE GASLIMIT ADDRESS PUSH21 0xBA41705027626F58429CB3C327BA210CC8FF10C3C6 GT STOP PREVRANDAO PUSH5 0x736F6C6343 STOP ADDMOD OR STOP CALLER "
				},
				"gasEstimates": {
					"creation": {
						"codeDepositCost": "970400",
						"executionCost": "1006",
						"totalCost": "971406"
					},
					"external": {
						"accounts(uint256)": "infinite",
						"getAmount(uint256,uint256)": "infinite",
						"getBalance(uint256)": "infinite",
						"getRecipient(uint256,uint256)": "infinite",
						"getRequestAmount(uint256,uint256)": "infinite",
						"getRequestOwner(uint256,uint256)": "infinite",
						"getRole(uint256,uint256)": "infinite",
						"getSender(uint256,uint256)": "infinite",
						"loginAuthenticate(uint256,string)": "infinite",
						"newUser(uint256,string)": "infinite",
						"requestMoney(uint256,uint256,uint256)": "infinite",
						"sendMoney(uint256,uint256,uint256)": "infinite"
					}
				},
				"methodIdentifiers": {
					"accounts(uint256)": "f2a40db8",
					"getAmount(uint256,uint256)": "4ca98997",
					"getBalance(uint256)": "1e010439",
					"getRecipient(uint256,uint256)": "8486ebcb",
					"getRequestAmount(uint256,uint256)": "16b621d6",
					"getRequestOwner(uint256,uint256)": "36a31de5",
					"getRole(uint256,uint256)": "9cf42bc6",
					"getSender(uint256,uint256)": "d3206097",
					"loginAuthenticate(uint256,string)": "86b5b252",
					"newUser(uint256,string)": "8a4366c0",
					"requestMoney(uint256,uint256,uint256)": "23e67380",
					"sendMoney(uint256,uint256,uint256)": "1f038e49"
				}
			},
			"storageLayout": {
				"storage": [
					{
						"astId": 39,
						"contract": "Desktop/crypro_wallet/backend/contracts/Bank.sol:Bank",
						"label": "accounts",
						"offset": 0,
						"slot": "0",
						"type": "t_mapping(t_uint256,t_struct(User)34_storage)"
					}
				],
				"types": {
					"t_array(t_struct(Request)6_storage)dyn_storage": {
						"base": "t_struct(Request)6_storage",
						"encoding": "dynamic_array",
						"label": "struct Bank.Request[]",
						"numberOfBytes": "32"
					},
					"t_array(t_struct(Transaction)15_storage)dyn_storage": {
						"base": "t_struct(Transaction)15_storage",
						"encoding": "dynamic_array",
						"label": "struct Bank.Transaction[]",
						"numberOfBytes": "32"
					},
					"t_mapping(t_uint256,t_struct(User)34_storage)": {
						"encoding": "mapping",
						"key": "t_uint256",
						"label": "mapping(uint256 => struct Bank.User)",
						"numberOfBytes": "32",
						"value": "t_struct(User)34_storage"
					},
					"t_string_storage": {
						"encoding": "bytes",
						"label": "string",
						"numberOfBytes": "32"
					},
					"t_struct(Request)6_storage": {
						"encoding": "inplace",
						"label": "struct Bank.Request",
						"members": [
							{
								"astId": 3,
								"contract": "Desktop/crypro_wallet/backend/contracts/Bank.sol:Bank",
								"label": "from",
								"offset": 0,
								"slot": "0",
								"type": "t_uint256"
							},
							{
								"astId": 5,
								"contract": "Desktop/crypro_wallet/backend/contracts/Bank.sol:Bank",
								"label": "amount",
								"offset": 0,
								"slot": "1",
								"type": "t_uint256"
							}
						],
						"numberOfBytes": "64"
					},
					"t_struct(Transaction)15_storage": {
						"encoding": "inplace",
						"label": "struct Bank.Transaction",
						"members": [
							{
								"astId": 8,
								"contract": "Desktop/crypro_wallet/backend/contracts/Bank.sol:Bank",
								"label": "sender",
								"offset": 0,
								"slot": "0",
								"type": "t_uint256"
							},
							{
								"astId": 10,
								"contract": "Desktop/crypro_wallet/backend/contracts/Bank.sol:Bank",
								"label": "recipient",
								"offset": 0,
								"slot": "1",
								"type": "t_uint256"
							},
							{
								"astId": 12,
								"contract": "Desktop/crypro_wallet/backend/contracts/Bank.sol:Bank",
								"label": "amount",
								"offset": 0,
								"slot": "2",
								"type": "t_uint256"
							},
							{
								"astId": 14,
								"contract": "Desktop/crypro_wallet/backend/contracts/Bank.sol:Bank",
								"label": "role",
								"offset": 0,
								"slot": "3",
								"type": "t_string_storage"
							}
						],
						"numberOfBytes": "128"
					},
					"t_struct(User)34_storage": {
						"encoding": "inplace",
						"label": "struct Bank.User",
						"members": [
							{
								"astId": 17,
								"contract": "Desktop/crypro_wallet/backend/contracts/Bank.sol:Bank",
								"label": "password",
								"offset": 0,
								"slot": "0",
								"type": "t_string_storage"
							},
							{
								"astId": 19,
								"contract": "Desktop/crypro_wallet/backend/contracts/Bank.sol:Bank",
								"label": "account_balance",
								"offset": 0,
								"slot": "1",
								"type": "t_uint256"
							},
							{
								"astId": 21,
								"contract": "Desktop/crypro_wallet/backend/contracts/Bank.sol:Bank",
								"label": "created",
								"offset": 0,
								"slot": "2",
								"type": "t_uint256"
							},
							{
								"astId": 23,
								"contract": "Desktop/crypro_wallet/backend/contracts/Bank.sol:Bank",
								"label": "request_count",
								"offset": 0,
								"slot": "3",
								"type": "t_uint256"
							},
							{
								"astId": 25,
								"contract": "Desktop/crypro_wallet/backend/contracts/Bank.sol:Bank",
								"label": "transaction_count",
								"offset": 0,
								"slot": "4",
								"type": "t_uint256"
							},
							{
								"astId": 29,
								"contract": "Desktop/crypro_wallet/backend/contracts/Bank.sol:Bank",
								"label": "requests",
								"offset": 0,
								"slot": "5",
								"type": "t_array(t_struct(Request)6_storage)dyn_storage"
							},
							{
								"astId": 33,
								"contract": "Desktop/crypro_wallet/backend/contracts/Bank.sol:Bank",
								"label": "transactions",
								"offset": 0,
								"slot": "6",
								"type": "t_array(t_struct(Transaction)15_storage)dyn_storage"
							}
						],
						"numberOfBytes": "224"
					},
					"t_uint256": {
						"encoding": "inplace",
						"label": "uint256",
						"numberOfBytes": "32"
					}
				}
			},
			"userdoc": {
				"kind": "user",
				"methods": {},
				"version": 1
			}
		}
	}
}